ENTRY            D5002   20100326                             D072D500200000001 
SUBENT        D5002001   20100326                             D072D500200100001 
BIB                 11         21                                 D500200100002 
TITLE      Mean angular momenta of fission fragments of Th-232    D500200100003 
AUTHOR     (I.N.Vishnevsky,V.YU.Denisov,V.A.Zheltonozhsky,        D500200100004 
            S.V.Reshitko,L.V.Sadovnikov,N.V.Strilchuk)            D500200100005 
INSTITUTE  (4UKRIJD)                                              D500200100006 
REFERENCE  (J,YF,61,(9),1562,199809)                              D500200100007 
           (J,PAN,61,1452,1998) English translation               D500200100008 
           #NSR:1998VI05                                          D500200100009 
DETECTOR   (HPGE) 1) Volume 250 cm3, energy resolution 2 keV at   D500200100010 
           1330 keV for gamma ray(Co-60)                          D500200100011 
           2) volume 5cm3 with Be window, energy resolution       D500200100012 
           0.45 keV at 59 keV for gamma ray(Am-241)               D500200100013 
FACILITY   (CYCLO)                                                D500200100014 
METHOD     (ACTIV,EXTB)                                           D500200100015 
ADD-RES    For the neutron data measured                          D500200100016 
                                 in this work see entry no. 32213 D500200100017 
ERR-ANALYS (DATA-ERR) Total error                                 D500200100018 
STATUS     (APRVD) Approved by author                             D500200100019 
HISTORY    (20040618C)NK and MV                                   D500200100020 
           (20100228A) SD:TITLE and AUTHOR codes were             D500200100021 
                                     updated to new format.       D500200100022 
           (20100601A)UKRNDC: was added #NSR                      D500200100023 
ENDBIB              21          0                                 D500200100024 
COMMON               1          3                                 D500200100025 
EN                                                                D500200100026 
MEV                                                               D500200100027 
13.6                                                              D500200100028 
ENDCOMMON            3          0                                 D500200100029 
ENDSUBENT           28          0                                 D500200199999 
SUBENT        D5002002   20040618                             0000D500200200001 
BIB                  2          2                                 D500200200002 
REACTION   (90-TH-232(D,F)41-NB-95-M/T,IND,FY/RAT)                D500200200003 
ADD-RES    (AMFF) Mean 4.0+-(0.5-1)h/2*pi                         D500200200004 
ENDBIB               2          0                                 D500200200005 
NOCOMMON             0          0                                 D500200200006 
DATA                 2          1                                 D500200200007 
DATA       DATA-ERR                                               D500200200008 
NO-DIM     NO-DIM                                                 D500200200009 
3.6        0.6                                                    D500200200010 
ENDDATA              3          0                                 D500200200011 
ENDSUBENT           10          0                                 D500200299999 
SUBENT        D5002003   20040618                             0000D500200300001 
BIB                  2          2                                 D500200300002 
REACTION   (90-TH-232(D,F)49-IN-117-M/T,IND,FY/RAT)               D500200300003 
ADD-RES    (AMFF) Mean 9.1+-(0.5-1)h/2*pi                         D500200300004 
ENDBIB               2          0                                 D500200300005 
NOCOMMON             0          0                                 D500200300006 
DATA                 2          1                                 D500200300007 
DATA       DATA-ERR                                               D500200300008 
NO-DIM     NO-DIM                                                 D500200300009 
22.        11.                                                    D500200300010 
ENDDATA              3          0                                 D500200300011 
ENDSUBENT           10          0                                 D500200399999 
SUBENT        D5002004   20040618                             0000D500200400001 
BIB                  2          2                                 D500200400002 
REACTION   (90-TH-232(D,F)52-TE-131-M/T,IND,FY/RAT)               D500200400003 
ADD-RES    (AMFF) Mean 4.1+-(0.5-1)h/2*pi                         D500200400004 
ENDBIB               2          0                                 D500200400005 
NOCOMMON             0          0                                 D500200400006 
DATA                 2          1                                 D500200400007 
DATA       DATA-ERR                                               D500200400008 
NO-DIM     NO-DIM                                                 D500200400009 
0.60       0.07                                                   D500200400010 
ENDDATA              3          0                                 D500200400011 
ENDSUBENT           10          0                                 D500200499999 
SUBENT        D5002005   20040618                             0000D500200500001 
BIB                  2          2                                 D500200500002 
REACTION   (90-TH-232(D,F)53-I-132-M/T,IND,FY/RAT)                D500200500003 
ADD-RES    (AMFF) Mean 5.6+-(0.5-1)h/2*pi                         D500200500004 
ENDBIB               2          0                                 D500200500005 
NOCOMMON             0          0                                 D500200500006 
DATA                 2          1                                 D500200500007 
DATA       DATA-ERR                                               D500200500008 
NO-DIM     NO-DIM                                                 D500200500009 
0.54       0.05                                                   D500200500010 
ENDDATA              3          0                                 D500200500011 
ENDSUBENT           10          0                                 D500200599999 
SUBENT        D5002006   20040618                             0000D500200600001 
BIB                  2          2                                 D500200600002 
REACTION   (90-TH-232(D,F)54-XE-133-M/T,IND,FY/RAT)               D500200600003 
ADD-RES    (AMFF) Mean 4.7+-(0.5-1)h/2*pi                         D500200600004 
ENDBIB               2          0                                 D500200600005 
NOCOMMON             0          0                                 D500200600006 
DATA                 2          1                                 D500200600007 
DATA       DATA-ERR                                               D500200600008 
NO-DIM     NO-DIM                                                 D500200600009 
0.97       0.08                                                   D500200600010 
ENDDATA              3          0                                 D500200600011 
ENDSUBENT           10          0                                 D500200699999 
SUBENT        D5002007   20040618                             0000D500200700001 
BIB                  2          2                                 D500200700002 
REACTION   (90-TH-232(D,F)61-PM-148-M/T,IND,FY/RAT)               D500200700003 
ADD-RES    (AMFF) Mean 9.7+-(0.5-1)h/2*pi                         D500200700004 
ENDBIB               2          0                                 D500200700005 
NOCOMMON             0          0                                 D500200700006 
DATA                 2          1                                 D500200700007 
DATA       DATA-ERR                                               D500200700008 
NO-DIM     NO-DIM                                                 D500200700009 
6.2        0.8                                                    D500200700010 
ENDDATA              3          0                                 D500200700011 
ENDSUBENT           10          0                                 D500200799999 
ENDENTRY             7          0                                 D500299999999 
