ENTRY            D5061   20110204                             D076D506100000001 
SUBENT        D5061001   20110204                             D076D506100100001 
BIB                 11         31                                 D506100100002 
TITLE      Radiation widths of resonances in the 40-Ar(p,g)41-K   D506100100003 
           reaction                                               D506100100004 
AUTHOR     (A.N.Vodin, L.P.Korda, A.O.Rastrepina, G.E.Tuller,     D506100100005 
           I.V.Ushakov)                                           D506100100006 
INSTITUTE  (4UKRKFT)                                              D506100100007 
REFERENCE  (J,IZV,72,(6),808,2008)                                D506100100008 
           (J,BAS,72,761,2008)                                    D506100100009 
           #doi:10.3103/S1062873808060105                         D506100100010 
           #NSR 2008VO08                                          D506100100011 
FACILITY   (VDG,4UKRKFT)Electrostatic accelerator ESA-5 with Emax=D506100100012 
           Emax=4 MeV and energy dispersion of beam 800 eV. A beamD506100100013 
           current  was 8-10 microA.                              D506100100014 
SAMPLE     The isotopic target of 40Ar is produced by hammering   D506100100015 
           of 40Ar+ ions in tantalum backing directly in          D506100100016 
           electromagnetic separator. The target thickness was    D506100100017 
           about 4 keV at proton energy at Ep=2.0 MeV.            D506100100018 
DETECTOR   (NAICR)  NaI(Tl) detector was used for  excitation     D506100100019 
           function measurements. The gamma-rays were detected  atD506100100020 
           angle of 55 degrees concerning proton beam direction.  D506100100021 
           The dimensions of the crystal was diameter 15 x 10 cm. D506100100022 
METHOD     (GSPEC)                                                D506100100023 
ANALYSIS   In REACTIONs FCT=1/(2Jp+1)(2Jt+1),                     D506100100024 
           where is Jp = spin of incident projectile and          D506100100025 
           Jt = spin of target nucleus.                           D506100100026 
           In the formula of resonance strength:                  D506100100027 
                     g*Gamma(i)Gamma(j)/Gamma(tot)                D506100100028 
           instead of usual statistical weight:                   D506100100029 
             g=(2J+1)/(2Jp+1)(2Jt+1), the authors used g=(2J+1)   D506100100030 
ERR-ANALYS No information.                                        D506100100031 
HISTORY    (20081021C)UKRNDC                                      D506100100032 
           (20110203U) VS. DOI identifier corrected               D506100100033 
ENDBIB              31          0                                 D506100100034 
NOCOMMON             0          0                                 D506100100035 
ENDSUBENT           34          0                                 D506100199999 
SUBENT        D5061002   20081021                             D065D506100200001 
BIB                  5          6                                 D506100200002 
REACTION  1(18-AR-40(P,0),,WID/STR,,RG)See ANALYSIS in SUB 001    D506100200003 
          2(18-AR-40(P,G),,WID)                                   D506100200004 
MONITOR    (18-AR-40(P,0),,WID/STR,,RG)                           D506100200005 
MONIT-REF  (,J.J.Smit+,J,SAP,12,74,1989)                          D506100200006 
ADD-RES    (STRUC)                                                D506100200007 
STATUS     (TABLE) Table 1 in text.                               D506100200008 
ENDBIB               6          0                                 D506100200009 
COMMON               3          3                                 D506100200010 
EN-RES-NRM MONIT      MONIT-ERR                                   D506100200011 
KEV        EV         EV                                          D506100200012 
1102.      8.0        0.5                                         D506100200013 
ENDCOMMON            3          0                                 D506100200014 
DATA                 3        166                                 D506100200015 
EN-RES     DATA      1DATA      2                                 D506100200016 
KEV        EV         EV                                          D506100200017 
799.       0.34                                                   D506100200018 
819.       0.25                                                   D506100200019 
854.       0.2                                                    D506100200020 
889.       0.08                                                   D506100200021 
904.       0.7                                                    D506100200022 
909.       0.6                                                    D506100200023 
943.       0.18                                                   D506100200024 
950.       0.8                                                    D506100200025 
960.       0.5                                                    D506100200026 
972.       1.0                                                    D506100200027 
984.       1.1                                                    D506100200028 
993.       0.6                                                    D506100200029 
1004.      0.8                                                    D506100200030 
1015.      1.0                                                    D506100200031 
1029.      0.66                                                   D506100200032 
1049.      0.3                                                    D506100200033 
1052.      1.1                                                    D506100200034 
1061.      0.8                                                    D506100200035 
1068.      0.4                                                    D506100200036 
1074.      0.6                                                    D506100200037 
1081.      0.6                                                    D506100200038 
1086.      3.6                                                    D506100200039 
1102.      8.0                                                    D506100200040 
1108.      3.1                                                    D506100200041 
1118.      2.0                                                    D506100200042 
1139.      1.1                                                    D506100200043 
1152.      1.0                                                    D506100200044 
1162.      1.2                                                    D506100200045 
1186.      1.5                                                    D506100200046 
1200.      0.6                                                    D506100200047 
1207.      1.2                                                    D506100200048 
1217.      0.3                                                    D506100200049 
1244.      3.1                                                    D506100200050 
1258.      0.3                                                    D506100200051 
1262.      0.8                                                    D506100200052 
1268.      0.7                                                    D506100200053 
1283.      2.2                                                    D506100200054 
1293.      1.1                                                    D506100200055 
1303.      1.4                                                    D506100200056 
1321.      0.9                                                    D506100200057 
1333.      2.3                                                    D506100200058 
1349.      0.9                                                    D506100200059 
1358.      1.1                                                    D506100200060 
1365.      0.3                                                    D506100200061 
1372.      2.3                                                    D506100200062 
1387.      5.6                                                    D506100200063 
1408.      0.9                                                    D506100200064 
1420.      0.7                                                    D506100200065 
1428.      1.4                                                    D506100200066 
1434.      0.5                                                    D506100200067 
1444.      1.9                                                    D506100200068 
1458.      0.5                                                    D506100200069 
1466.      1.3                                                    D506100200070 
1477.      3.8                                                    D506100200071 
1488.      0.8                                                    D506100200072 
1496.      0.99                                                   D506100200073 
1510.      1.2                                                    D506100200074 
1517.      1.3                                                    D506100200075 
1530.      5.6                                                    D506100200076 
1552.      2.0                                                    D506100200077 
1556.      3.0                                                    D506100200078 
1571.      2.6                                                    D506100200079 
1581.      2.6                                                    D506100200080 
1590.      4.1                                                    D506100200081 
1602.      8.5                                                    D506100200082 
1616.      4.7                                                    D506100200083 
1623.      4.1                                                    D506100200084 
1638.      2.7                                                    D506100200085 
1648.      3.2        0.8                                         D506100200086 
1652.      0.2                                                    D506100200087 
1656.      0.2        0.1                                         D506100200088 
1670.      0.5        0.1                                         D506100200089 
1675.      2.6                                                    D506100200090 
1686.      0.9                                                    D506100200091 
1702.      2.7                                                    D506100200092 
1714.      2.4                                                    D506100200093 
1730.      7.8                                                    D506100200094 
1740.      13.8                                                   D506100200095 
1752.      0.5        0.3                                         D506100200096 
1762.      0.5                                                    D506100200097 
1764.      1.5        0.4                                         D506100200098 
1772.      1.         0.5                                         D506100200099 
1778.      2.                                                     D506100200100 
1785.      0.4                                                    D506100200101 
1795.      0.7        0.2                                         D506100200102 
1804.      4.6        2.4                                         D506100200103 
1814.      2.4        0.6                                         D506100200104 
1821.      0.6                                                    D506100200105 
1827.      1.2                                                    D506100200106 
1831.      1.2        0.3                                         D506100200107 
1839.      3.2        0.8                                         D506100200108 
1842.      3.0                                                    D506100200109 
1859.      3.0        0.8                                         D506100200110 
1875.      3.9        1.0                                         D506100200111 
1896.      4.4        1.1                                         D506100200112 
1909.      0.6        0.3                                         D506100200113 
1916.      4.0        3.0                                         D506100200114 
1926.      3.5        0.6                                         D506100200115 
1931.      0.7        0.4                                         D506100200116 
1941.      2.1                                                    D506100200117 
1947.      3.6                                                    D506100200118 
1951.      0.6                                                    D506100200119 
1959.      3.8        1.9                                         D506100200120 
1970.      0.9                                                    D506100200121 
1971.      0.9                                                    D506100200122 
1979.      1.1                                                    D506100200123 
1985.      5.0        2.5                                         D506100200124 
1996.      0.9                                                    D506100200125 
2003.      2.7        1.4                                         D506100200126 
2021.      5.5                                                    D506100200127 
2039.      2.6        0.7                                         D506100200128 
2054.      2.3                                                    D506100200129 
2068.      1.5        0.8                                         D506100200130 
2072.      1.2                                                    D506100200131 
2079.      1.3        0.7                                         D506100200132 
2089.      2.3        0.6                                         D506100200133 
2101.      1.5        0.4                                         D506100200134 
2111.      2.7        1.4                                         D506100200135 
2127.      0.8        0.2                                         D506100200136 
2144.      1.3        0.3                                         D506100200137 
2163.      2.6                                                    D506100200138 
2182.      3.6                                                    D506100200139 
2197.      1.2                                                    D506100200140 
2201.      1.5                                                    D506100200141 
2206.      1.3        0.7                                         D506100200142 
2214.      1.4        0.7                                         D506100200143 
2225.      3.7        1.5                                         D506100200144 
2241.      1.3                                                    D506100200145 
2248.      0.7        0.4                                         D506100200146 
2260.      1.4        0.4                                         D506100200147 
2273.      4.0        2.0                                         D506100200148 
2293.      1.4        0.4                                         D506100200149 
2300.      1.4        0.4                                         D506100200150 
2312.      1.6        0.4                                         D506100200151 
2322.      0.7        0.35                                        D506100200152 
2330.      2.3        1.2                                         D506100200153 
2339.      2.9                                                    D506100200154 
2347.      3.2        1.6                                         D506100200155 
2357.      4.3        2.2                                         D506100200156 
2368.      2.4                                                    D506100200157 
2380.      1.3        0.7                                         D506100200158 
2400.      3.8        1.9                                         D506100200159 
2414.      2.0        1.0                                         D506100200160 
2422.      3.3        1.7                                         D506100200161 
2436.      3.2        1.6                                         D506100200162 
2444.      2.5        0.6                                         D506100200163 
2458.      2.2        0.6                                         D506100200164 
2466.      1.1        0.6                                         D506100200165 
2472.      4.0        2.0                                         D506100200166 
2486.      11.6       2.9                                         D506100200167 
2500.      2.6        1.3                                         D506100200168 
2513.      2.5        1.3                                         D506100200169 
2519.      2.0        1.0                                         D506100200170 
2535.      3.0        0.8                                         D506100200171 
2549.      5.0        0.3                                         D506100200172 
2569.      9.0        0.5                                         D506100200173 
2584.      2.0        0.5                                         D506100200174 
2588.      1.4        0.7                                         D506100200175 
2594.      1.6        0.8                                         D506100200176 
2609.      4.5        1.1                                         D506100200177 
2617.      1.6                                                    D506100200178 
2627.      9.0                                                    D506100200179 
2646.      10.0                                                   D506100200180 
2653.      1.6                                                    D506100200181 
2661.      1.6                                                    D506100200182 
2667.      1.4                                                    D506100200183 
ENDDATA            168          0                                 D506100200184 
ENDSUBENT          183          0                                 D506100299999 
ENDENTRY             2          0                                 D506199999999 
