ENTRY            D5076   20180821                             D118D507600000001 
SUBENT        D5076001   20180821                             D118D507600100001 
BIB                 12         39                                 D507600100002 
TITLE      Quasi-free inclusive processes in the two-particle     D507600100003 
           splitting of tritons by deuterons with an energy of    D507600100004 
           37 MeV                                                 D507600100005 
AUTHOR     (O.O.Belyuskina,V.I.Grantsev,V.V.Davidovsky,           D507600100006 
           K.K.Kisurin,S.E.Omelchuk,G.P.Palkin,Yu.S.Roznyuk,      D507600100007 
           B.A.Rudenko,V.S.Semenov,L.I.Slyusarenko,B.G.Struzhko,  D507600100008 
           V.K.Tartakovsky)                                       D507600100009 
INSTITUTE  (4UKRIJD)                                              D507600100010 
REFERENCE  (J,IZV,75,988,2011)                                    D507600100011 
           (J,BAS,75,925,2011) English translation                D507600100012 
           (C,2010KYIV,,201,2010)                                 D507600100013 
           #doi:10.3103/S1062873811070070                         D507600100014 
           #NSR:2011BE27                                          D507600100015 
           (J,YFE,11,262,2010)                                    D507600100016 
FACILITY   (CYCLO,4UKRIJD)Isochronous cyclotron U-240             D507600100017 
SAMPLE     The measurements were carried out making use of a      D507600100018 
           titanium-tritium (Ti-T) and a pure titanium target. It D507600100019 
           was a Ti film 4.9 mg/cm2 in thickness, saturated by    D507600100020 
           tritium to an activity of 7.57 Cu. The equivalent      D507600100021 
           thickness of tritium in the titanium matrix was        D507600100022 
           0.30+-0.04 mg/cm2.                                     D507600100023 
DETECTOR   (TELES)Charged particles were registered using three   D507600100024 
           telescopes deltaE-E located in the reaction plane. The D507600100025 
           intensity of the ionic beam passed through the target  D507600100026 
           was registered with the help of a Faraday cup connectedD507600100027 
           to a current integrator.                               D507600100028 
CORRECTION Corrected on background.                               D507600100029 
ERR-ANALYS (ERR-T)Full uncertainty values were determined as a sumD507600100030 
           of systematic and statistical errors.                  D507600100031 
ADD-RES    (COMP)The cross sections(accurate up to the multiplier)D507600100032 
           were calculated in an approximation of the quasi-free  D507600100033 
           scattering of a deuteron on a deuteron in a triton,    D507600100034 
           in which the neutron in the triton was considered as   D507600100035 
           an observer, as well as scattering of deuterons on     D507600100036 
           neutron in a triton in which deuteron was considered asD507600100037 
           an observer.                                           D507600100038 
METHOD     (EXTB,EDE)                                             D507600100039 
HISTORY    (20121018C)UKRNDC                                      D507600100040 
           (20180821U) OG. REFERENCE: J,YFE,11,(3),262,2010 added.D507600100041 
ENDBIB              39          0                                 D507600100042 
COMMON               1          3                                 D507600100043 
EN                                                                D507600100044 
MEV                                                               D507600100045 
36.9                                                              D507600100046 
ENDCOMMON            3          0                                 D507600100047 
ENDSUBENT           46          0                                 D507600199999 
SUBENT        D5076002   20121018                             D086D507600200001 
BIB                  3          4                                 D507600200002 
REACTION   (1-H-3(D,X)1-H-2,,DA/DE)                               D507600200003 
           ANG is angle between incident deuteron beam and D.     D507600200004 
EN-SEC     (E,D)                                                  D507600200005 
STATUS     (TABLE) Data (fig.2a) received from L.I.Slyusarenko.   D507600200006 
ENDBIB               4          0                                 D507600200007 
COMMON               1          3                                 D507600200008 
ANG                                                               D507600200009 
ADEG                                                              D507600200010 
15.0                                                              D507600200011 
ENDCOMMON            3          0                                 D507600200012 
DATA                 3         57                                 D507600200013 
E          DATA       ERR-T                                       D507600200014 
MEV        MB/SR/MEV  MB/SR/MEV                                   D507600200015 
3.5        2.80       0.42                                        D507600200016 
4.0        3.00       0.45                                        D507600200017 
4.5        3.30       0.50                                        D507600200018 
5.0        3.50       0.53                                        D507600200019 
5.5        3.70       0.56                                        D507600200020 
6.0        4.10       0.62                                        D507600200021 
6.5        4.10       0.62                                        D507600200022 
7.0        4.20       0.63                                        D507600200023 
7.5        4.50       0.68                                        D507600200024 
8.0        4.90       0.74                                        D507600200025 
8.5        5.00       0.75                                        D507600200026 
9.0        5.20       0.78                                        D507600200027 
9.5        5.60       0.84                                        D507600200028 
10.0       5.80       0.87                                        D507600200029 
10.5       6.10       0.92                                        D507600200030 
11.0       6.00       0.90                                        D507600200031 
11.5       6.70       1.01                                        D507600200032 
12.0       6.60       0.99                                        D507600200033 
12.5       7.20       1.08                                        D507600200034 
13.0       6.90       1.04                                        D507600200035 
13.5       8.00       1.20                                        D507600200036 
14.0       7.80       1.17                                        D507600200037 
14.5       7.10       1.07                                        D507600200038 
15.0       8.10       1.22                                        D507600200039 
15.5       8.60       1.29                                        D507600200040 
16.0       8.50       1.28                                        D507600200041 
16.5       9.30       1.40                                        D507600200042 
17.0       9.20       1.38                                        D507600200043 
17.5       9.10       1.37                                        D507600200044 
18.0       9.10       1.37                                        D507600200045 
18.5       9.80       1.47                                        D507600200046 
19.0       9.70       1.46                                        D507600200047 
19.5       10.40      1.56                                        D507600200048 
20.0       10.80      1.62                                        D507600200049 
20.5       10.80      1.62                                        D507600200050 
21.0       10.50      1.58                                        D507600200051 
21.5       10.00      1.50                                        D507600200052 
22.0       10.80      1.62                                        D507600200053 
22.5       10.80      1.62                                        D507600200054 
23.0       10.50      1.58                                        D507600200055 
23.5       10.40      1.56                                        D507600200056 
24.0       9.60       1.44                                        D507600200057 
24.5       8.40       1.26                                        D507600200058 
25.0       8.00       1.20                                        D507600200059 
25.5       7.10       1.07                                        D507600200060 
26.0       6.70       1.01                                        D507600200061 
26.5       6.40       0.96                                        D507600200062 
27.0       5.50       0.83                                        D507600200063 
27.5       5.80       0.87                                        D507600200064 
28.0       5.60       0.84                                        D507600200065 
28.5       4.80       0.72                                        D507600200066 
29.0       3.90       0.59                                        D507600200067 
29.5       3.40       0.51                                        D507600200068 
30.0       2.40       0.36                                        D507600200069 
30.5       1.50       0.23                                        D507600200070 
31.0       1.00       0.15                                        D507600200071 
31.5       0.50       0.08                                        D507600200072 
ENDDATA             59          0                                 D507600200073 
ENDSUBENT           72          0                                 D507600299999 
SUBENT        D5076003   20121019                             D086D507600300001 
BIB                  3          4                                 D507600300002 
REACTION   (1-H-3(D,X)1-H-2,,DA/DE)                               D507600300003 
           ANG is angle between incident deuteron beam and D.     D507600300004 
EN-SEC     (E,D)                                                  D507600300005 
STATUS     (TABLE) Data (fig.2b) received from L.I.Slyusarenko.   D507600300006 
ENDBIB               4          0                                 D507600300007 
COMMON               1          3                                 D507600300008 
ANG                                                               D507600300009 
ADEG                                                              D507600300010 
20.0                                                              D507600300011 
ENDCOMMON            3          0                                 D507600300012 
DATA                 3         51                                 D507600300013 
E          DATA       ERR-T                                       D507600300014 
MEV        MB/SR/MEV  MB/SR/MEV                                   D507600300015 
5.0        1.90       0.29                                        D507600300016 
5.5        1.90       0.29                                        D507600300017 
6.0        2.20       0.33                                        D507600300018 
6.5        2.50       0.38                                        D507600300019 
7.0        2.50       0.38                                        D507600300020 
7.5        2.50       0.38                                        D507600300021 
8.0        2.40       0.36                                        D507600300022 
8.5        2.80       0.42                                        D507600300023 
9.0        2.90       0.44                                        D507600300024 
9.5        3.00       0.45                                        D507600300025 
10.0       3.10       0.47                                        D507600300026 
10.5       3.10       0.47                                        D507600300027 
11.0       3.20       0.48                                        D507600300028 
11.5       3.40       0.51                                        D507600300029 
12.0       3.60       0.54                                        D507600300030 
12.5       3.70       0.56                                        D507600300031 
13.0       3.80       0.57                                        D507600300032 
13.5       3.80       0.57                                        D507600300033 
14.0       3.80       0.57                                        D507600300034 
14.5       4.20       0.63                                        D507600300035 
15.0       4.40       0.66                                        D507600300036 
15.5       4.10       0.62                                        D507600300037 
16.0       3.80       0.57                                        D507600300038 
16.5       3.80       0.57                                        D507600300039 
17.0       4.10       0.62                                        D507600300040 
17.5       4.10       0.62                                        D507600300041 
18.0       4.30       0.65                                        D507600300042 
18.5       4.20       0.63                                        D507600300043 
19.0       4.30       0.65                                        D507600300044 
19.5       4.20       0.63                                        D507600300045 
20.0       4.60       0.69                                        D507600300046 
20.5       4.60       0.69                                        D507600300047 
21.0       4.60       0.69                                        D507600300048 
21.5       4.60       0.69                                        D507600300049 
22.0       4.50       0.68                                        D507600300050 
22.5       4.60       0.69                                        D507600300051 
23.0       4.70       0.71                                        D507600300052 
23.5       4.50       0.68                                        D507600300053 
24.0       4.40       0.66                                        D507600300054 
24.5       4.30       0.65                                        D507600300055 
25.0       4.00       0.60                                        D507600300056 
25.5       3.80       0.57                                        D507600300057 
26.0       3.30       0.50                                        D507600300058 
26.5       3.10       0.47                                        D507600300059 
27.0       2.60       0.39                                        D507600300060 
27.5       2.30       0.35                                        D507600300061 
28.0       1.90       0.29                                        D507600300062 
28.5       1.50       0.23                                        D507600300063 
29.0       1.10       0.17                                        D507600300064 
29.5       0.90       0.14                                        D507600300065 
30.0       0.40       0.06                                        D507600300066 
ENDDATA             53          0                                 D507600300067 
ENDSUBENT           66          0                                 D507600399999 
SUBENT        D5076004   20121019                             D086D507600400001 
BIB                  3          4                                 D507600400002 
REACTION   (1-H-3(D,X)1-H-2,,DA/DE)                               D507600400003 
           ANG is angle between incident deuteron beam and D.     D507600400004 
EN-SEC     (E,D)                                                  D507600400005 
STATUS     (TABLE) Data (fig.2c) received from L.I.Slyusarenko.   D507600400006 
ENDBIB               4          0                                 D507600400007 
COMMON               1          3                                 D507600400008 
ANG                                                               D507600400009 
ADEG                                                              D507600400010 
30.0                                                              D507600400011 
ENDCOMMON            3          0                                 D507600400012 
DATA                 3         41                                 D507600400013 
E          DATA       ERR-T                                       D507600400014 
MEV        MB/SR/MEV  MB/SR/MEV                                   D507600400015 
4.0        1.40       0.21                                        D507600400016 
4.5        1.30       0.20                                        D507600400017 
5.0        1.50       0.23                                        D507600400018 
5.5        1.40       0.21                                        D507600400019 
6.0        1.60       0.24                                        D507600400020 
6.5        1.60       0.24                                        D507600400021 
7.0        1.70       0.26                                        D507600400022 
7.5        1.70       0.26                                        D507600400023 
8.0        1.90       0.29                                        D507600400024 
8.5        2.00       0.30                                        D507600400025 
9.0        1.90       0.29                                        D507600400026 
9.5        2.00       0.30                                        D507600400027 
10.0       2.00       0.30                                        D507600400028 
10.5       2.20       0.33                                        D507600400029 
11.0       2.10       0.32                                        D507600400030 
11.5       2.10       0.32                                        D507600400031 
12.0       2.20       0.33                                        D507600400032 
12.5       2.30       0.35                                        D507600400033 
13.0       2.30       0.35                                        D507600400034 
13.5       2.40       0.36                                        D507600400035 
14.0       2.40       0.36                                        D507600400036 
14.5       2.30       0.35                                        D507600400037 
15.0       2.20       0.33                                        D507600400038 
15.5       2.20       0.33                                        D507600400039 
16.0       2.10       0.32                                        D507600400040 
16.5       2.20       0.33                                        D507600400041 
17.0       2.10       0.32                                        D507600400042 
17.5       2.00       0.30                                        D507600400043 
18.0       2.00       0.30                                        D507600400044 
18.5       1.90       0.29                                        D507600400045 
19.0       1.70       0.26                                        D507600400046 
19.5       1.80       0.27                                        D507600400047 
20.0       1.70       0.26                                        D507600400048 
20.5       1.50       0.23                                        D507600400049 
21.0       1.30       0.20                                        D507600400050 
21.5       1.20       0.18                                        D507600400051 
22.0       0.90       0.14                                        D507600400052 
22.5       0.80       0.12                                        D507600400053 
23.0       0.50       0.08                                        D507600400054 
23.5       0.30       0.05                                        D507600400055 
24.0       0.10       0.02                                        D507600400056 
ENDDATA             43          0                                 D507600400057 
ENDSUBENT           56          0                                 D507600499999 
SUBENT        D5076005   20121019                             D086D507600500001 
BIB                  3          4                                 D507600500002 
REACTION   (1-H-3(D,X)1-H-2,,DA/DE)                               D507600500003 
           ANG is angle between incident deuteron beam and D.     D507600500004 
EN-SEC     (E,D)                                                  D507600500005 
STATUS     (TABLE) Data (fig.2d) received from L.I.Slyusarenko.   D507600500006 
ENDBIB               4          0                                 D507600500007 
COMMON               1          3                                 D507600500008 
ANG                                                               D507600500009 
ADEG                                                              D507600500010 
35.0                                                              D507600500011 
ENDCOMMON            3          0                                 D507600500012 
DATA                 3         35                                 D507600500013 
E          DATA       ERR-T                                       D507600500014 
MEV        MB/SR/MEV  MB/SR/MEV                                   D507600500015 
4.0        0.90       0.14                                        D507600500016 
4.5        0.90       0.14                                        D507600500017 
5.0        1.00       0.15                                        D507600500018 
5.5        1.00       0.15                                        D507600500019 
6.0        1.00       0.15                                        D507600500020 
6.5        1.10       0.17                                        D507600500021 
7.0        1.20       0.18                                        D507600500022 
8.0        1.30       0.20                                        D507600500023 
8.5        1.30       0.20                                        D507600500024 
9.0        1.30       0.20                                        D507600500025 
9.5        1.40       0.21                                        D507600500026 
10.0       1.40       0.21                                        D507600500027 
10.5       1.50       0.23                                        D507600500028 
11.0       1.50       0.23                                        D507600500029 
11.5       1.50       0.23                                        D507600500030 
12.0       1.50       0.23                                        D507600500031 
12.5       1.60       0.24                                        D507600500032 
13.0       1.60       0.24                                        D507600500033 
13.5       1.70       0.26                                        D507600500034 
14.0       1.60       0.24                                        D507600500035 
14.5       1.60       0.24                                        D507600500036 
15.0       1.70       0.26                                        D507600500037 
15.5       1.60       0.24                                        D507600500038 
16.0       1.60       0.24                                        D507600500039 
16.5       1.50       0.23                                        D507600500040 
17.0       1.60       0.24                                        D507600500041 
17.5       1.50       0.23                                        D507600500042 
18.0       1.30       0.20                                        D507600500043 
18.5       1.20       0.18                                        D507600500044 
19.0       1.10       0.17                                        D507600500045 
19.5       0.90       0.14                                        D507600500046 
20.0       0.60       0.09                                        D507600500047 
20.5       0.40       0.06                                        D507600500048 
21.0       0.20       0.03                                        D507600500049 
21.5       0.10       0.02                                        D507600500050 
ENDDATA             37          0                                 D507600500051 
ENDSUBENT           50          0                                 D507600599999 
SUBENT        D5076006   20121019                             D086D507600600001 
BIB                  3         10                                 D507600600002 
REACTION   (1-H-3(D,X)1-H-2,,DA)                                  D507600600003 
COMMENT    The differential cross section of deuterons DA in the  D507600600004 
           output channel of the d+t -> d+d+n reaction was        D507600600005 
           determined by integrating the cross sections DA/DE overD507600600006 
           the energy in the range of ~5 <= Ed <= 35 MeV.         D507600600007 
STATUS     (TABLE) Data (fig.3) received from O.O.Belyuskina.     D507600600008 
           (DEP,D5076002)                                         D507600600009 
           (DEP,D5076003)                                         D507600600010 
           (DEP,D5076004)                                         D507600600011 
           (DEP,D5076005)                                         D507600600012 
ENDBIB              10          0                                 D507600600013 
NOCOMMON             0          0                                 D507600600014 
DATA                 3         18                                 D507600600015 
ANG        DATA       ERR-T                                       D507600600016 
ADEG       MB/SR      MB/SR                                       D507600600017 
15.0       189.00     18.90                                       D507600600018 
20.0       86.00      8.60                                        D507600600019 
26.0       45.45      4.54                                        D507600600020 
27.0       44.31      4.43                                        D507600600021 
28.0       31.17      3.12                                        D507600600022 
29.0       38.51      3.85                                        D507600600023 
30.0       36.00      3.60                                        D507600600024 
32.0       27.44      2.74                                        D507600600025 
33.0       25.15      2.51                                        D507600600026 
34.0       29.07      2.91                                        D507600600027 
35.0       19.37      1.94                                        D507600600028 
38.0       17.28      1.73                                        D507600600029 
40.0       14.09      1.41                                        D507600600030 
42.0       14.64      1.46                                        D507600600031 
45.0       8.51       0.85                                        D507600600032 
47.0       9.27       0.93                                        D507600600033 
50.0       4.79       0.48                                        D507600600034 
52.0       2.06       0.21                                        D507600600035 
ENDDATA             20          0                                 D507600600036 
ENDSUBENT           35          0                                 D507600699999 
ENDENTRY             6          0                                 D507699999999 
