ENTRY            D5080   20110701                             D078D508000000001 
SUBENT        D5080001   20110701                             D078D508000100001 
BIB                 12         20                                 D508000100002 
TITLE      Deuterons interaction with nuclei 208-Pb at sub-barrierD508000100003 
           energies                                               D508000100004 
AUTHOR     (Yu.N.Pavlenko,K.O.Terenetsky,V.P.Verbitsky,O.I.Rundel,D508000100005 
           I.P.Dryapachenko,E.M.Mozhzhukhin,V.M.Dobrikov,         D508000100006 
           Yu.Ya.Karlyshev,O.K.Gorpinich,T.O.Korzyna)             D508000100007 
INSTITUTE  (4UKRIJD)                                              D508000100008 
REFERENCE  (J,YFE,11,(4),400,2010)                                D508000100009 
           (C,2010KYIV,,212,2010)                                 D508000100010 
FACILITY   (VDG,4UKRIJD)Tandem Van de Graaff Accelerator          D508000100011 
SAMPLE     Thick (11 mg/cm2) self-support 208Pb target was used.  D508000100012 
DETECTOR   (TELES,SI) Two deltaE-E telescopes of semiconductor    D508000100013 
           detectors: thicknesses: deltaE-detector 20 micro-m,    D508000100014 
           E-detector 500 micro-m.                                D508000100015 
MONITOR    Deuteron beam intensity was controlled with Faraday cupD508000100016 
           and two monitor detectors, which were installed in the D508000100017 
           reaction chamber at the fixed angles 27 and 150 degree.D508000100018 
ERR-ANALYS (ERR-S) Statistical error                              D508000100019 
METHOD     (EXTB,EDE)                                             D508000100020 
STATUS     (TABLE) Data were received from Yu.Pavlenko            D508000100021 
HISTORY    (20110630C)UKRNDC                                      D508000100022 
ENDBIB              20          0                                 D508000100023 
COMMON               1          3                                 D508000100024 
EN                                                                D508000100025 
MEV                                                               D508000100026 
7.3                                                               D508000100027 
ENDCOMMON            3          0                                 D508000100028 
ENDSUBENT           27          0                                 D508000199999 
SUBENT        D5080002   20110701                             D078D508000200001 
BIB                  3          5                                 D508000200002 
REACTION   (82-PB-208(D,EL)82-PB-208,,DA/DE)                      D508000200003 
           ANG is angle between incident deuteron beam and D      D508000200004 
EN-SEC     (E,D)                                                  D508000200005 
STATUS     (TABLE) Correspond to figure 2a.                       D508000200006 
                    Yad.Fiz.Energ.11(2010)400                     D508000200007 
ENDBIB               5          0                                 D508000200008 
COMMON               1          3                                 D508000200009 
ANG                                                               D508000200010 
ADEG                                                              D508000200011 
60.                                                               D508000200012 
ENDCOMMON            3          0                                 D508000200013 
DATA                 3         87                                 D508000200014 
E          DATA       ERR-S                                       D508000200015 
MEV        MB/SR/MEV  MB/SR/MEV                                   D508000200016 
5.01       36.88      18.44                                       D508000200017 
5.03       46.09      20.61                                       D508000200018 
5.06       27.66      15.97                                       D508000200019 
5.09       18.44      13.04                                       D508000200020 
5.11       27.66      15.97                                       D508000200021 
5.14       64.53      24.39                                       D508000200022 
5.16       55.31      22.58                                       D508000200023 
5.19       46.09      20.61                                       D508000200024 
5.21       82.97      27.66                                       D508000200025 
5.24       101.41     30.58                                       D508000200026 
5.26       73.75      26.08                                       D508000200027 
5.29       27.66      15.97                                       D508000200028 
5.31       55.31      22.58                                       D508000200029 
5.34       46.09      20.61                                       D508000200030 
5.36       46.09      20.61                                       D508000200031 
5.39       82.97      27.66                                       D508000200032 
5.41       46.09      20.61                                       D508000200033 
5.46       36.88      18.44                                       D508000200034 
5.49       27.66      15.97                                       D508000200035 
5.52       82.97      27.66                                       D508000200036 
5.54       82.97      27.66                                       D508000200037 
5.57       101.41     30.58                                       D508000200038 
5.59       82.97      27.66                                       D508000200039 
5.62       64.53      24.39                                       D508000200040 
5.64       110.63     31.94                                       D508000200041 
5.67       92.19      29.15                                       D508000200042 
5.69       64.53      24.39                                       D508000200043 
5.72       73.75      26.08                                       D508000200044 
5.74       119.85     33.24                                       D508000200045 
5.77       55.31      22.58                                       D508000200046 
5.79       101.41     30.58                                       D508000200047 
5.82       82.97      27.66                                       D508000200048 
5.84       64.53      24.39                                       D508000200049 
5.87       110.63     31.94                                       D508000200050 
5.89       92.19      29.15                                       D508000200051 
5.92       129.07     34.49                                       D508000200052 
5.95       119.85     33.24                                       D508000200053 
5.97       110.63     31.94                                       D508000200054 
6.00       119.85     33.24                                       D508000200055 
6.02       147.50     36.88                                       D508000200056 
6.05       165.94     39.11                                       D508000200057 
6.07       138.28     35.70                                       D508000200058 
6.10       82.97      27.66                                       D508000200059 
6.12       110.63     31.94                                       D508000200060 
6.15       82.97      27.66                                       D508000200061 
6.17       119.85     33.24                                       D508000200062 
6.20       36.88      18.44                                       D508000200063 
6.22       55.31      22.58                                       D508000200064 
6.25       55.31      22.58                                       D508000200065 
6.27       138.28     35.70                                       D508000200066 
6.30       73.75      26.08                                       D508000200067 
6.33       101.41     30.58                                       D508000200068 
6.35       92.19      29.15                                       D508000200069 
6.38       82.97      27.66                                       D508000200070 
6.40       138.28     35.70                                       D508000200071 
6.43       55.31      22.58                                       D508000200072 
6.45       64.53      24.39                                       D508000200073 
6.48       82.97      27.66                                       D508000200074 
6.50       138.28     35.70                                       D508000200075 
6.53       119.85     33.24                                       D508000200076 
6.55       129.07     34.49                                       D508000200077 
6.58       221.26     45.16                                       D508000200078 
6.60       433.29     63.20                                       D508000200079 
6.63       719.08     81.42                                       D508000200080 
6.65       1336.75    111.01                                      D508000200081 
6.68       2249.43    144.00                                      D508000200082 
6.70       3669.15    183.92                                      D508000200083 
6.73       5909.36    233.41                                      D508000200084 
6.76       8592.08    281.44                                      D508000200085 
6.78       10740.10   314.66                                      D508000200086 
6.81       13505.79   352.86                                      D508000200087 
6.83       14971.61   371.51                                      D508000200088 
6.86       13957.52   358.71                                      D508000200089 
6.88       11191.83   321.21                                      D508000200090 
6.91       8444.58    279.02                                      D508000200091 
6.93       4471.20    203.03                                      D508000200092 
6.96       2055.83    137.67                                      D508000200093 
6.98       885.02     90.33                                       D508000200094 
7.01       359.54     57.57                                       D508000200095 
7.03       156.72     38.01                                       D508000200096 
7.06       82.97      27.66                                       D508000200097 
7.08       36.88      18.44                                       D508000200098 
7.11       9.22       9.22                                        D508000200099 
7.13       18.44      13.04                                       D508000200100 
7.26       9.22       9.22                                        D508000200101 
7.36       9.22       9.22                                        D508000200102 
7.41       9.22       9.22                                        D508000200103 
ENDDATA             89          0                                 D508000200104 
ENDSUBENT          103          0                                 D508000299999 
SUBENT        D5080003   20110701                             D078D508000300001 
BIB                  3          5                                 D508000300002 
REACTION   (82-PB-208(D,EL)82-PB-208,,DA/DE)                      D508000300003 
           ANG is angle between incident deuteron beam and D      D508000300004 
EN-SEC     (E,D)                                                  D508000300005 
STATUS     (TABLE) Correspond to figure 2b.                       D508000300006 
                    Yad.Fiz.Energ.11(2010)400                     D508000300007 
ENDBIB               5          0                                 D508000300008 
COMMON               1          3                                 D508000300009 
ANG                                                               D508000300010 
ADEG                                                              D508000300011 
150.                                                              D508000300012 
ENDCOMMON            3          0                                 D508000300013 
DATA                 3        211                                 D508000300014 
E          DATA       ERR-S                                       D508000300015 
MEV        MB/SR/MEV  MB/SR/MEV                                   D508000300016 
1.87       0.44       0.44                                        D508000300017 
1.90       0.87       0.62                                        D508000300018 
1.92       3.92       1.31                                        D508000300019 
1.95       3.49       1.23                                        D508000300020 
1.97       1.74       0.87                                        D508000300021 
2.00       5.66       1.57                                        D508000300022 
2.02       6.97       1.74                                        D508000300023 
2.05       3.92       1.31                                        D508000300024 
2.07       6.54       1.69                                        D508000300025 
2.10       3.92       1.31                                        D508000300026 
2.13       4.79       1.45                                        D508000300027 
2.15       4.79       1.45                                        D508000300028 
2.18       5.23       1.51                                        D508000300029 
2.20       6.10       1.63                                        D508000300030 
2.23       6.97       1.74                                        D508000300031 
2.25       5.23       1.51                                        D508000300032 
2.28       7.84       1.85                                        D508000300033 
2.30       6.54       1.69                                        D508000300034 
2.33       3.92       1.31                                        D508000300035 
2.35       3.92       1.31                                        D508000300036 
2.38       5.23       1.51                                        D508000300037 
2.40       6.10       1.63                                        D508000300038 
2.43       5.66       1.57                                        D508000300039 
2.45       7.84       1.85                                        D508000300040 
2.48       5.23       1.51                                        D508000300041 
2.50       9.59       2.04                                        D508000300042 
2.53       6.10       1.63                                        D508000300043 
2.56       8.28       1.90                                        D508000300044 
2.58       8.28       1.90                                        D508000300045 
2.61       8.71       1.95                                        D508000300046 
2.63       9.59       2.04                                        D508000300047 
2.66       11.33      2.22                                        D508000300048 
2.68       5.66       1.57                                        D508000300049 
2.71       9.59       2.04                                        D508000300050 
2.73       4.79       1.45                                        D508000300051 
2.76       6.54       1.69                                        D508000300052 
2.78       7.84       1.85                                        D508000300053 
2.81       6.97       1.74                                        D508000300054 
2.83       8.71       1.95                                        D508000300055 
2.86       6.10       1.63                                        D508000300056 
2.88       8.71       1.95                                        D508000300057 
2.91       6.10       1.63                                        D508000300058 
2.93       6.54       1.69                                        D508000300059 
2.96       4.79       1.45                                        D508000300060 
2.99       4.79       1.45                                        D508000300061 
3.01       6.10       1.63                                        D508000300062 
3.04       7.41       1.80                                        D508000300063 
3.06       4.36       1.38                                        D508000300064 
3.09       6.10       1.63                                        D508000300065 
3.11       11.76      2.26                                        D508000300066 
3.14       8.28       1.90                                        D508000300067 
3.16       4.79       1.45                                        D508000300068 
3.19       8.28       1.90                                        D508000300069 
3.21       8.71       1.95                                        D508000300070 
3.24       11.33      2.22                                        D508000300071 
3.26       13.94      2.46                                        D508000300072 
3.29       11.76      2.26                                        D508000300073 
3.31       8.71       1.95                                        D508000300074 
3.34       14.81      2.54                                        D508000300075 
3.36       18.74      2.86                                        D508000300076 
3.39       13.51      2.43                                        D508000300077 
3.42       15.25      2.58                                        D508000300078 
3.44       15.25      2.58                                        D508000300079 
3.47       16.99      2.72                                        D508000300080 
3.49       16.12      2.65                                        D508000300081 
3.52       21.35      3.05                                        D508000300082 
3.54       18.30      2.82                                        D508000300083 
3.57       20.91      3.02                                        D508000300084 
3.59       12.64      2.35                                        D508000300085 
3.62       13.94      2.46                                        D508000300086 
3.64       9.15       2.00                                        D508000300087 
3.67       6.97       1.74                                        D508000300088 
3.69       6.10       1.63                                        D508000300089 
3.72       8.71       1.95                                        D508000300090 
3.74       5.23       1.51                                        D508000300091 
3.77       4.79       1.45                                        D508000300092 
3.80       5.66       1.57                                        D508000300093 
3.82       5.66       1.57                                        D508000300094 
3.85       2.61       1.07                                        D508000300095 
3.87       7.41       1.80                                        D508000300096 
3.90       6.54       1.69                                        D508000300097 
3.92       5.23       1.51                                        D508000300098 
3.95       6.10       1.63                                        D508000300099 
3.97       5.66       1.57                                        D508000300100 
4.00       8.28       1.90                                        D508000300101 
4.02       7.41       1.80                                        D508000300102 
4.05       7.84       1.85                                        D508000300103 
4.07       3.49       1.23                                        D508000300104 
4.10       6.10       1.63                                        D508000300105 
4.12       6.10       1.63                                        D508000300106 
4.15       7.41       1.80                                        D508000300107 
4.17       3.92       1.31                                        D508000300108 
4.20       5.23       1.51                                        D508000300109 
4.23       4.79       1.45                                        D508000300110 
4.25       5.66       1.57                                        D508000300111 
4.28       7.41       1.80                                        D508000300112 
4.30       6.97       1.74                                        D508000300113 
4.33       7.84       1.85                                        D508000300114 
4.35       13.51      2.43                                        D508000300115 
4.38       8.71       1.95                                        D508000300116 
4.40       5.66       1.57                                        D508000300117 
4.43       4.79       1.45                                        D508000300118 
4.45       7.41       1.80                                        D508000300119 
4.48       4.36       1.38                                        D508000300120 
4.50       5.66       1.57                                        D508000300121 
4.53       6.97       1.74                                        D508000300122 
4.55       9.59       2.04                                        D508000300123 
4.58       4.79       1.45                                        D508000300124 
4.60       5.66       1.57                                        D508000300125 
4.63       4.36       1.38                                        D508000300126 
4.66       6.97       1.74                                        D508000300127 
4.68       4.36       1.38                                        D508000300128 
4.71       3.49       1.23                                        D508000300129 
4.73       4.36       1.38                                        D508000300130 
4.76       3.49       1.23                                        D508000300131 
4.78       3.49       1.23                                        D508000300132 
4.81       6.10       1.63                                        D508000300133 
4.83       5.23       1.51                                        D508000300134 
4.86       5.66       1.57                                        D508000300135 
4.88       6.10       1.63                                        D508000300136 
4.91       4.36       1.38                                        D508000300137 
4.93       3.05       1.15                                        D508000300138 
4.96       8.28       1.90                                        D508000300139 
4.98       4.36       1.38                                        D508000300140 
5.01       8.71       1.95                                        D508000300141 
5.03       3.49       1.23                                        D508000300142 
5.06       3.92       1.31                                        D508000300143 
5.09       3.92       1.31                                        D508000300144 
5.11       6.54       1.69                                        D508000300145 
5.14       4.36       1.38                                        D508000300146 
5.16       4.36       1.38                                        D508000300147 
5.19       3.49       1.23                                        D508000300148 
5.21       3.92       1.31                                        D508000300149 
5.24       4.36       1.38                                        D508000300150 
5.26       6.10       1.63                                        D508000300151 
5.29       4.36       1.38                                        D508000300152 
5.31       5.23       1.51                                        D508000300153 
5.34       3.92       1.31                                        D508000300154 
5.36       5.66       1.57                                        D508000300155 
5.39       3.92       1.31                                        D508000300156 
5.41       4.36       1.38                                        D508000300157 
5.44       6.10       1.63                                        D508000300158 
5.46       4.79       1.45                                        D508000300159 
5.49       4.36       1.38                                        D508000300160 
5.52       6.54       1.69                                        D508000300161 
5.54       6.10       1.63                                        D508000300162 
5.57       4.79       1.45                                        D508000300163 
5.59       7.41       1.80                                        D508000300164 
5.62       4.79       1.45                                        D508000300165 
5.64       5.23       1.51                                        D508000300166 
5.67       6.10       1.63                                        D508000300167 
5.69       6.10       1.63                                        D508000300168 
5.72       3.92       1.31                                        D508000300169 
5.74       4.36       1.38                                        D508000300170 
5.77       7.41       1.80                                        D508000300171 
5.79       5.23       1.51                                        D508000300172 
5.82       7.84       1.85                                        D508000300173 
5.84       9.15       2.00                                        D508000300174 
5.87       16.99      2.72                                        D508000300175 
5.89       24.84      3.29                                        D508000300176 
5.92       21.35      3.05                                        D508000300177 
5.95       28.32      3.51                                        D508000300178 
5.97       46.19      4.49                                        D508000300179 
6.00       60.57      5.14                                        D508000300180 
6.02       60.57      5.14                                        D508000300181 
6.05       89.32      6.24                                        D508000300182 
6.07       84.97      6.08                                        D508000300183 
6.10       112.42     7.00                                        D508000300184 
6.12       118.95     7.20                                        D508000300185 
6.15       130.72     7.55                                        D508000300186 
6.17       139.87     7.81                                        D508000300187 
6.20       160.35     8.36                                        D508000300188 
6.22       161.22     8.38                                        D508000300189 
6.25       160.78     8.37                                        D508000300190 
6.27       159.04     8.32                                        D508000300191 
6.30       184.31     8.96                                        D508000300192 
6.33       189.98     9.10                                        D508000300193 
6.35       202.18     9.39                                        D508000300194 
6.38       183.00     8.93                                        D508000300195 
6.40       217.86     9.74                                        D508000300196 
6.43       196.51     9.25                                        D508000300197 
6.45       200.87     9.36                                        D508000300198 
6.48       191.28     9.13                                        D508000300199 
6.50       197.38     9.27                                        D508000300200 
6.53       207.40     9.51                                        D508000300201 
6.55       180.39     8.87                                        D508000300202 
6.58       198.69     9.30                                        D508000300203 
6.60       192.59     9.16                                        D508000300204 
6.63       195.20     9.22                                        D508000300205 
6.65       191.28     9.13                                        D508000300206 
6.68       188.67     9.07                                        D508000300207 
6.70       191.72     9.14                                        D508000300208 
6.73       199.13     9.31                                        D508000300209 
6.76       190.85     9.12                                        D508000300210 
6.78       177.78     8.80                                        D508000300211 
6.81       191.28     9.13                                        D508000300212 
6.83       180.83     8.88                                        D508000300213 
6.86       192.59     9.16                                        D508000300214 
6.88       172.98     8.68                                        D508000300215 
6.91       181.70     8.90                                        D508000300216 
6.93       180.83     8.88                                        D508000300217 
6.96       188.23     9.06                                        D508000300218 
6.98       173.42     8.69                                        D508000300219 
7.01       166.88     8.53                                        D508000300220 
7.03       159.91     8.35                                        D508000300221 
7.06       148.15     8.03                                        D508000300222 
7.08       97.60      6.52                                        D508000300223 
7.11       40.09      4.18                                        D508000300224 
7.13       17.86      2.79                                        D508000300225 
7.16       1.74       0.87                                        D508000300226 
7.19       0.44       0.44                                        D508000300227 
ENDDATA            213          0                                 D508000300228 
ENDSUBENT          227          0                                 D508000399999 
SUBENT        D5080004   20110701                             D078D508000400001 
BIB                  2          9                                 D508000400002 
REACTION   (82-PB-208(D,EL)82-PB-208,,DA,,RTH)                    D508000400003 
STATUS     (TABLE) Correspond to figure 3a.                       D508000400004 
                  Yad.Fiz.Energ.11(2010)400                       D508000400005 
           (DEP,D5080002)                                         D508000400006 
           (DEP,D5080003)The differential cross sections of       D508000400007 
           elastic scattering were determined by integrating of   D508000400008 
           energy spectra over the observed peaks and normalizing D508000400009 
           the cross section values, measured at forward angles,  D508000400010 
           to the cross section of Rutherford scattering.         D508000400011 
ENDBIB               9          0                                 D508000400012 
NOCOMMON             0          0                                 D508000400013 
DATA                 3         14                                 D508000400014 
ANG-CM     DATA       ERR-S                                       D508000400015 
ADEG       NO-DIM     NO-DIM                                      D508000400016 
49.98      1.0051     0.0095                                      D508000400017 
59.97      1.0092     0.0103                                      D508000400018 
69.97      0.9857     0.0095                                      D508000400019 
79.96      1.0006     0.0093                                      D508000400020 
84.96      0.9854     0.0094                                      D508000400021 
89.96      0.9932     0.0095                                      D508000400022 
94.96      0.9689     0.0094                                      D508000400023 
99.95      0.9185     0.0093                                      D508000400024 
99.95      0.9185     0.0089                                      D508000400025 
109.95     0.9441     0.0095                                      D508000400026 
119.94     0.9680     0.0093                                      D508000400027 
129.94     0.9582     0.0093                                      D508000400028 
139.93     0.9458     0.0099                                      D508000400029 
149.93     0.9242     0.0094                                      D508000400030 
ENDDATA             16          0                                 D508000400031 
ENDSUBENT           30          0                                 D508000499999 
SUBENT        D5080005   20110701                             D078D508000500001 
BIB                  3          5                                 D508000500002 
REACTION   (82-PB-208(D,N+P)82-PB-208,,DA/DE,P)                   D508000500003 
           ANG is angle between incident deuteron beam and P      D508000500004 
EN-SEC     (E,P)                                                  D508000500005 
STATUS     (TABLE) Correspond to figure 4b.                       D508000500006 
                   Yad.Fiz.Energ.11(2010)400                      D508000500007 
ENDBIB               5          0                                 D508000500008 
COMMON               1          3                                 D508000500009 
ANG                                                               D508000500010 
ADEG                                                              D508000500011 
120.                                                              D508000500012 
ENDCOMMON            3          0                                 D508000500013 
DATA                 3        118                                 D508000500014 
E          DATA       ERR-S                                       D508000500015 
MEV        MB/SR/MEV  MB/SR/MEV                                   D508000500016 
1.72       0.3532     0.3532                                      D508000500017 
1.77       1.7662     0.7899                                      D508000500018 
1.82       2.1194     0.8652                                      D508000500019 
1.87       4.2388     1.2236                                      D508000500020 
1.92       4.5920     1.2736                                      D508000500021 
1.97       1.7662     0.7899                                      D508000500022 
2.02       2.8259     0.9991                                      D508000500023 
2.07       3.5323     1.1170                                      D508000500024 
2.13       2.4726     0.9346                                      D508000500025 
2.18       4.9453     1.3217                                      D508000500026 
2.23       4.5920     1.2736                                      D508000500027 
2.28       3.5323     1.1170                                      D508000500028 
2.33       3.8856     1.1715                                      D508000500029 
2.38       2.4726     0.9346                                      D508000500030 
2.43       2.4726     0.9346                                      D508000500031 
2.48       1.7662     0.7899                                      D508000500032 
2.53       1.7662     0.7899                                      D508000500033 
2.58       1.7662     0.7899                                      D508000500034 
2.63       2.4726     0.9346                                      D508000500035 
2.68       2.1194     0.8652                                      D508000500036 
2.73       1.4129     0.7065                                      D508000500037 
2.78       1.0597     0.6118                                      D508000500038 
2.83       2.8259     0.9991                                      D508000500039 
2.88       3.5323     1.1170                                      D508000500040 
2.93       6.0050     1.4564                                      D508000500041 
2.99       3.5323     1.1170                                      D508000500042 
3.04       2.8259     0.9991                                      D508000500043 
3.09       4.9453     1.3217                                      D508000500044 
3.14       4.9453     1.3217                                      D508000500045 
3.19       2.8259     0.9991                                      D508000500046 
3.24       4.9453     1.3217                                      D508000500047 
3.29       5.6517     1.4129                                      D508000500048 
3.34       7.0647     1.5797                                      D508000500049 
3.39       7.0647     1.5797                                      D508000500050 
3.44       5.2985     1.3681                                      D508000500051 
3.49       4.5920     1.2736                                      D508000500052 
3.54       2.4726     0.9346                                      D508000500053 
3.59       2.4726     0.9346                                      D508000500054 
3.64       2.8259     0.9991                                      D508000500055 
3.69       2.1194     0.8652                                      D508000500056 
3.74       2.1194     0.8652                                      D508000500057 
3.80       1.7662     0.7899                                      D508000500058 
3.85       3.1791     1.0597                                      D508000500059 
3.90       4.2388     1.2236                                      D508000500060 
3.95       2.1194     0.8652                                      D508000500061 
4.00       4.9453     1.3217                                      D508000500062 
4.05       5.2985     1.3681                                      D508000500063 
4.10       3.8856     1.1715                                      D508000500064 
4.15       3.1791     1.0597                                      D508000500065 
4.20       3.8856     1.1715                                      D508000500066 
4.25       2.8259     0.9991                                      D508000500067 
4.30       1.4129     0.7065                                      D508000500068 
4.35       1.4129     0.7065                                      D508000500069 
4.40       2.8259     0.9991                                      D508000500070 
4.45       1.0597     0.6118                                      D508000500071 
4.50       1.7662     0.7899                                      D508000500072 
4.55       0.3532     0.3532                                      D508000500073 
4.60       0.7065     0.4996                                      D508000500074 
4.66       0.7065     0.4996                                      D508000500075 
4.71       0.3532     0.3532                                      D508000500076 
4.76       2.4726     0.9346                                      D508000500077 
4.81       1.0597     0.6118                                      D508000500078 
4.86       0.7065     0.4996                                      D508000500079 
4.91       1.7662     0.7899                                      D508000500080 
4.96       0.3532     0.3532                                      D508000500081 
5.01       0.3532     0.3532                                      D508000500082 
5.16       1.4129     0.7065                                      D508000500083 
5.26       0.3532     0.3532                                      D508000500084 
5.31       0.3532     0.3532                                      D508000500085 
5.36       0.3532     0.3532                                      D508000500086 
5.41       0.3532     0.3532                                      D508000500087 
5.46       0.3532     0.3532                                      D508000500088 
5.52       1.0597     0.6118                                      D508000500089 
5.57       1.0597     0.6118                                      D508000500090 
5.62       0.3532     0.3532                                      D508000500091 
5.67       1.0597     0.6118                                      D508000500092 
5.72       3.5323     1.1170                                      D508000500093 
5.77       1.4129     0.7065                                      D508000500094 
5.82       5.2985     1.3681                                      D508000500095 
5.87       3.8856     1.1715                                      D508000500096 
5.92       6.3582     1.4986                                      D508000500097 
5.97       9.1841     1.8012                                      D508000500098 
6.02       7.7711     1.6568                                      D508000500099 
6.07       5.2985     1.3681                                      D508000500100 
6.12       3.1791     1.0597                                      D508000500101 
6.17       2.4726     0.9346                                      D508000500102 
6.22       2.4726     0.9346                                      D508000500103 
6.27       8.4776     1.7305                                      D508000500104 
6.33       6.3582     1.4986                                      D508000500105 
6.38       7.7711     1.6568                                      D508000500106 
6.43       5.2985     1.3681                                      D508000500107 
6.48       6.7114     1.5397                                      D508000500108 
6.53       7.0647     1.5797                                      D508000500109 
6.58       8.4776     1.7305                                      D508000500110 
6.63       7.7711     1.6568                                      D508000500111 
6.68       11.3035    1.9982                                      D508000500112 
6.73       15.1891    2.3163                                      D508000500113 
6.78       16.9552    2.4473                                      D508000500114 
6.83       20.8408    2.7132                                      D508000500115 
6.88       21.1940    2.7361                                      D508000500116 
6.93       14.1294    2.2341                                      D508000500117 
6.98       10.2438    1.9022                                      D508000500118 
7.03       9.5373     1.8355                                      D508000500119 
7.08       8.8308     1.7662                                      D508000500120 
7.13       10.5970    1.9347                                      D508000500121 
7.19       8.1244     1.6941                                      D508000500122 
7.24       5.6517     1.4129                                      D508000500123 
7.29       6.3582     1.4986                                      D508000500124 
7.34       3.5323     1.1170                                      D508000500125 
7.39       5.2985     1.3681                                      D508000500126 
7.44       8.8308     1.7662                                      D508000500127 
7.49       7.0647     1.5797                                      D508000500128 
7.54       0.3532     0.3532                                      D508000500129 
7.59       0.3532     0.3532                                      D508000500130 
7.64       0.7065     0.4996                                      D508000500131 
7.69       0.3532     0.3532                                      D508000500132 
7.74       0.2178     0.2178                                      D508000500133 
7.79       0.2178     0.2178                                      D508000500134 
ENDDATA            120          0                                 D508000500135 
ENDSUBENT          134          0                                 D508000599999 
ENDENTRY             5          0                                 D508099999999 
