ENTRY            D5105   20141120                             D096D510500000001 
SUBENT        D5105001   20141120                             D096D510500100001 
BIB                 11         30                                 D510500100002 
TITLE      The resonance-like structure observed in the           D510500100003 
           40-Ar(p,g)41-K reaction                                D510500100004 
AUTHOR     (A.S.Kachan,I.V.Kurguz,I.S.Kovtunenko,V.M.Mishchenko,  D510500100005 
           S.N.Utenkov)                                           D510500100006 
INSTITUTE  (4UKRKFT)                                              D510500100007 
REFERENCE  (J,IZV,78,(7),805,2014)                                D510500100008 
           (J,BAS,78,591,2014)                                    D510500100009 
           #doi:10.3103/S1062873814070144                         D510500100010 
           #NSR 2014KA35                                          D510500100011 
FACILITY   (VDG,4UKRKFT)The ESU-5 accelerator at the Kharkiv      D510500100012 
           Institute of Physics and Technology.                   D510500100013 
SAMPLE     The target was produced by firing argon ions into a    D510500100014 
           tantalum substrate directly in an electromagnetic      D510500100015 
           separator.                                             D510500100016 
DETECTOR   (NAICR)  The excitation function was measured using an D510500100017 
           NaI(T1) detector with dimensions of diameter           D510500100018 
           150x100 mm, located at a distance of 5 cm from the     D510500100019 
           target at 55 degrees relative to the direction of the  D510500100020 
           proton beam to eliminate the effect of the angular     D510500100021 
           distribution of gamma quanta on the measured results.  D510500100022 
METHOD     (GSPEC)                                                D510500100023 
ANALYSIS   In REACTIONs FCT=1/(2Jp+1)(2Jt+1),                     D510500100024 
           where is Jp = spin of incident projectile and          D510500100025 
           Jt = spin of target nucleus.                           D510500100026 
           In the formula of resonance strength:                  D510500100027 
                     g*Gamma(i)Gamma(j)/Gamma(tot)                D510500100028 
           instead of usual statistical weight:                   D510500100029 
             g=(2J+1)/(2Jp+1)(2Jt+1), the authors used g=(2J+1)   D510500100030 
ERR-ANALYS No information.                                        D510500100031 
HISTORY    (20141120C)UKRNDC                                      D510500100032 
ENDBIB              30          0                                 D510500100033 
NOCOMMON             0          0                                 D510500100034 
ENDSUBENT           33          0                                 D510500199999 
SUBENT        D5105002   20141120                             D096D510500200001 
BIB                  5          5                                 D510500200002 
REACTION   (18-AR-40(P,G),,WID/STR,,RG)See ANALYSIS in SUB 001    D510500200003 
MONITOR    (18-AR-40(P,G),,WID/STR,,RG)                           D510500200004 
MONIT-REF  (,J.J.Smit+,J,SAP,12,74,1989)                          D510500200005 
COMMENT    MONIT-REF was assigned by compiler (OG)                D510500200006 
STATUS     (TABLE) Table in text.                                 D510500200007 
ENDBIB               5          0                                 D510500200008 
COMMON               2          3                                 D510500200009 
EN-RES-NRM MONIT                                                  D510500200010 
KEV        EV                                                     D510500200011 
1102.      8.0                                                    D510500200012 
ENDCOMMON            3          0                                 D510500200013 
DATA                 2        213                                 D510500200014 
EN-RES     DATA                                                   D510500200015 
KEV        EV                                                     D510500200016 
1108.      2.                                                     D510500200017 
1118.      3.                                                     D510500200018 
1139.      1.4                                                    D510500200019 
1152.      1.7                                                    D510500200020 
1161.      0.7                                                    D510500200021 
1177.      1.6                                                    D510500200022 
1184.      1.6                                                    D510500200023 
1194.      0.8                                                    D510500200024 
1199.      0.4                                                    D510500200025 
1204.      0.5                                                    D510500200026 
1217.      0.6                                                    D510500200027 
1221.      0.4                                                    D510500200028 
1229.      0.4                                                    D510500200029 
1238.      2.                                                     D510500200030 
1241.      1.3                                                    D510500200031 
1250.      0.6                                                    D510500200032 
1266.      0.8                                                    D510500200033 
1281.      2.6                                                    D510500200034 
1293.      2.6                                                    D510500200035 
1302.      3.9                                                    D510500200036 
1318.      1.3                                                    D510500200037 
1332.      0.8                                                    D510500200038 
1338.      1.7                                                    D510500200039 
1346.      1.2                                                    D510500200040 
1352.      1.6                                                    D510500200041 
1359.      1.1                                                    D510500200042 
1365.      1.                                                     D510500200043 
1371.      1.1                                                    D510500200044 
1380.      1.5                                                    D510500200045 
1385.      0.5                                                    D510500200046 
1406.      2.1                                                    D510500200047 
1418.      1.2                                                    D510500200048 
1425.      2.5                                                    D510500200049 
1431.      0.4                                                    D510500200050 
1441.      3.7                                                    D510500200051 
1449.      0.9                                                    D510500200052 
1454.      1.9                                                    D510500200053 
1462.      2.3                                                    D510500200054 
1474.      4.2                                                    D510500200055 
1484.      1.5                                                    D510500200056 
1493.      2.1                                                    D510500200057 
1504.      1.8                                                    D510500200058 
1513.      3.                                                     D510500200059 
1528.      4.8                                                    D510500200060 
1542.      1.5                                                    D510500200061 
1551.      4.2                                                    D510500200062 
1563.      3.3                                                    D510500200063 
1571.      0.9                                                    D510500200064 
1574.      2.                                                     D510500200065 
1583.      6.7                                                    D510500200066 
1597.      11.3                                                   D510500200067 
1608.      4.2                                                    D510500200068 
1618.      3.9                                                    D510500200069 
1630.      4.5                                                    D510500200070 
1649.      1.1                                                    D510500200071 
1654.      0.9                                                    D510500200072 
1660.      0.9                                                    D510500200073 
1670.      2.1                                                    D510500200074 
1673.      1.7                                                    D510500200075 
1681.      1.6                                                    D510500200076 
1684.      2.6                                                    D510500200077 
1695.      5.7                                                    D510500200078 
1703.      1.1                                                    D510500200079 
1707.      1.6                                                    D510500200080 
1710.      2.4                                                    D510500200081 
1723.      6.9                                                    D510500200082 
1731.      2.5                                                    D510500200083 
1736.      3.3                                                    D510500200084 
1741.      0.9                                                    D510500200085 
1744.      2.1                                                    D510500200086 
1749.      2.1                                                    D510500200087 
1757.      4.                                                     D510500200088 
1765.      4.2                                                    D510500200089 
1773.      3.6                                                    D510500200090 
1780.      2.7                                                    D510500200091 
1786.      3.8                                                    D510500200092 
1798.      6.3                                                    D510500200093 
1803.      1.                                                     D510500200094 
1808.      3.6                                                    D510500200095 
1816.      1.6                                                    D510500200096 
1826.      1.8                                                    D510500200097 
1835.      7.2                                                    D510500200098 
1843.      5.                                                     D510500200099 
1851.      3.                                                     D510500200100 
1856.      1.7                                                    D510500200101 
1868.      6.9                                                    D510500200102 
1880.      1.2                                                    D510500200103 
1890.      6.6                                                    D510500200104 
1907.      7.3                                                    D510500200105 
1917.      4.2                                                    D510500200106 
1934.      6.                                                     D510500200107 
1941.      2.6                                                    D510500200108 
1950.      4.5                                                    D510500200109 
1953.      3.7                                                    D510500200110 
1964.      3.5                                                    D510500200111 
1969.      1.4                                                    D510500200112 
1976.      4.2                                                    D510500200113 
1988.      1.5                                                    D510500200114 
1993.      2.8                                                    D510500200115 
2005.      1.3                                                    D510500200116 
2010.      3.6                                                    D510500200117 
2019.      2.9                                                    D510500200118 
2030.      10.1                                                   D510500200119 
2045.      3.                                                     D510500200120 
2056.      6.2                                                    D510500200121 
2061.      4.9                                                    D510500200122 
2068.      2.7                                                    D510500200123 
2074.      1.9                                                    D510500200124 
2079.      3.9                                                    D510500200125 
2086.      3.9                                                    D510500200126 
2090.      7.7                                                    D510500200127 
2100.      3.9                                                    D510500200128 
2106.      3.4                                                    D510500200129 
2117.      3.1                                                    D510500200130 
2120.      2.9                                                    D510500200131 
2127.      2.8                                                    D510500200132 
2133.      3.4                                                    D510500200133 
2140.      2.6                                                    D510500200134 
2144.      3.9                                                    D510500200135 
2149.      9.6                                                    D510500200136 
2169.      6.3                                                    D510500200137 
2180.      4.1                                                    D510500200138 
2187.      1.1                                                    D510500200139 
2191.      4.7                                                    D510500200140 
2200.      5.5                                                    D510500200141 
2205.      3.                                                     D510500200142 
2209.      8.2                                                    D510500200143 
2220.      5.8                                                    D510500200144 
2229.      2.5                                                    D510500200145 
2235.      1.9                                                    D510500200146 
2244.      4.8                                                    D510500200147 
2255.      6.7                                                    D510500200148 
2259.      2.8                                                    D510500200149 
2266.      2.2                                                    D510500200150 
2273.      5.5                                                    D510500200151 
2281.      2.2                                                    D510500200152 
2290.      4.3                                                    D510500200153 
2298.      2.3                                                    D510500200154 
2301.      3.7                                                    D510500200155 
2307.      4.9                                                    D510500200156 
2316.      4.4                                                    D510500200157 
2322.      2.3                                                    D510500200158 
2326.      7.                                                     D510500200159 
2333.      4.8                                                    D510500200160 
2337.      4.1                                                    D510500200161 
2343.      1.8                                                    D510500200162 
2348.      4.2                                                    D510500200163 
2360.      8.9                                                    D510500200164 
2369.      2.3                                                    D510500200165 
2377.      11.7                                                   D510500200166 
2382.      2.9                                                    D510500200167 
2390.      8.4                                                    D510500200168 
2396.      4.4                                                    D510500200169 
2400.      4.5                                                    D510500200170 
2409.      4.9                                                    D510500200171 
2413.      7.7                                                    D510500200172 
2421.      14.                                                    D510500200173 
2430.      5.8                                                    D510500200174 
2434.      4.2                                                    D510500200175 
2442.      4.6                                                    D510500200176 
2445.      7.5                                                    D510500200177 
2449.      1.7                                                    D510500200178 
2461.      5.6                                                    D510500200179 
2467.      5.6                                                    D510500200180 
2474.      7.5                                                    D510500200181 
2480.      5.3                                                    D510500200182 
2486.      4.2                                                    D510500200183 
2494.      7.5                                                    D510500200184 
2509.      6.7                                                    D510500200185 
2515.      13.5                                                   D510500200186 
2523.      3.9                                                    D510500200187 
2529.      1.5                                                    D510500200188 
2535.      1.1                                                    D510500200189 
2539.      2.1                                                    D510500200190 
2544.      7.5                                                    D510500200191 
2552.      4.2                                                    D510500200192 
2562.      6.                                                     D510500200193 
2580.      0.9                                                    D510500200194 
2586.      6.7                                                    D510500200195 
2598.      2.7                                                    D510500200196 
2599.      5.3                                                    D510500200197 
2608.      5.7                                                    D510500200198 
2616.      5.3                                                    D510500200199 
2627.      6.2                                                    D510500200200 
2631.      7.3                                                    D510500200201 
2641.      13.1                                                   D510500200202 
2659.      11.8                                                   D510500200203 
2665.      6.2                                                    D510500200204 
2673.      5.7                                                    D510500200205 
2677.      3.1                                                    D510500200206 
2686.      2.5                                                    D510500200207 
2698.      7.7                                                    D510500200208 
2718.      5.2                                                    D510500200209 
2730.      3.5                                                    D510500200210 
2742.      1.7                                                    D510500200211 
2746.      5.                                                     D510500200212 
2756.      12.6                                                   D510500200213 
2773.      6.6                                                    D510500200214 
2787.      10.7                                                   D510500200215 
2797.      10.8                                                   D510500200216 
2810.      11.                                                    D510500200217 
2818.      11.                                                    D510500200218 
2826.      6.3                                                    D510500200219 
2835.      5.7                                                    D510500200220 
2866.      7.6                                                    D510500200221 
2876.      6.                                                     D510500200222 
2884.      11.                                                    D510500200223 
2891.      5.4                                                    D510500200224 
2922.      11.8                                                   D510500200225 
2935.      11.2                                                   D510500200226 
2941.      8.6                                                    D510500200227 
2945.      9.9                                                    D510500200228 
2954.      5.1                                                    D510500200229 
ENDDATA            215          0                                 D510500200230 
ENDSUBENT          229          0                                 D510500299999 
ENDENTRY             2          0                                 D510599999999 
