ENTRY            D7024   20190201                             D119D702400000001 
SUBENT        D7024001   20190201                             D119D702400100001 
BIB                 14         29                                 D702400100002 
TITLE      Measurement of production cross sections in proton     D702400100003 
           induced reactions on natural zirconium                 D702400100004 
AUTHOR     (S.C.Yang, M.H.Jung, G.N.Kim, Y.O.Lee)                 D702400100005 
INSTITUTE  (3KORKAE,3KORKNU)                                      D702400100006 
REFERENCE  (J,NIM/B,436,179,2018)                                 D702400100007 
FACILITY   (LINAC,3KORKAE) 100 MeV linac in Korea Multi-purpose   D702400100008 
            Accelerator Complex (KOMAC)                           D702400100009 
SAMPLE     Natural zirconium (Zr)                                 D702400100010 
           - Purity   : 99.98%                                    D702400100011 
           - Thickness: 107+/-1 micro-meter                       D702400100012 
METHOD     (ACTIV) Irradiation for 2 h and 1 h at 57 MeV and      D702400100013 
            69 MeV, respectively (100 nA)                         D702400100014 
           (STTA) Conventional stacked-foil activation technique  D702400100015 
           (GSPEC) Started after the cooling time of 22 h and 21 hD702400100016 
            at 57 MeV and 69 MeV, respectively                    D702400100017 
DETECTOR   (HPGE) Energy resolutions of 1.8 keV (FWHM) and relativD702400100018 
            detection efficiency of 20% at 1.33 MeV peak of 60Co  D702400100019 
MONITOR    (29-CU-0(P,X)30-ZN-62,,SIG)                            D702400100020 
            - Cu foil (98 micro-meter thickness)                  D702400100021 
DECAY-MON  (30-ZN-62,9.193HR,DG,596.56,0.26)                      D702400100022 
MONIT-REF  (,S.M.Qaim+,R,IAEA-TECDOC-1211,2001)                   D702400100023 
ERR-ANALYS (ERR-T) Total uncertainty: 5.85-13.96%                 D702400100024 
           (ERR-S,0.22,10.78) Gamma-ray counting statistics       D702400100025 
           (ERR-1,3.43,4.10) Detection efficiency     (3.43-4.10%)D702400100026 
           (ERR-2,0.01,6.67) Decay data               (0.01-6.67%)D702400100027 
           (ERR-3) Sample thickness                        (0.55%)D702400100028 
           (ERR-4) Beam flux                               (5.09%)D702400100029 
STATUS     (APRVD) Approved by G.N.Kim (2019-02-07)               D702400100030 
HISTORY    (20190201C) S.C.Yang                                   D702400100031 
ENDBIB              29          0                                 D702400100032 
COMMON               2          3                                 D702400100033 
ERR-3      ERR-4                                                  D702400100034 
PER-CENT   PER-CENT                                               D702400100035 
0.55       5.09                                                   D702400100036 
ENDCOMMON            3          0                                 D702400100037 
ENDSUBENT           36          0                                 D702400199999 
SUBENT        D7024002   20190201                             D119D702400200001 
BIB                  3          3                                 D702400200002 
REACTION   (40-ZR-0(P,X)41-NB-90,,SIG)                            D702400200003 
DECAY-DATA (41-NB-90-G,14.6HR,DG,1129.22,0.927)                   D702400200004 
STATUS     (TABLE) Table 2 of Nucl.Instrum.Meth.B,436,179,2018    D702400200005 
ENDBIB               3          0                                 D702400200006 
NOCOMMON             0          0                                 D702400200007 
DATA                 4         23                                 D702400200008 
EN         EN-ERR     DATA       ERR-T                            D702400200009 
MEV        MEV        MB         MB                               D702400200010 
66.6       0.7        45.86      3.11                             D702400200011 
65.4       0.7        47.68      3.23                             D702400200012 
64.2       0.7        49.13      3.33                             D702400200013 
63.0       0.7        51.20      3.45                             D702400200014 
61.7       0.7        52.86      3.56                             D702400200015 
60.4       0.6        54.14      3.65                             D702400200016 
59.2       0.6        55.72      3.75                             D702400200017 
57.8       0.6        57.96      3.88                             D702400200018 
56.5       0.6        57.55      3.86                             D702400200019 
55.1       0.6        60.26      4.04                             D702400200020 
53.7       0.6        59.55      4.00                             D702400200021 
53.1       0.6        61.19      4.31                             D702400200022 
52.4       0.6        60.31      4.05                             D702400200023 
51.4       0.6        60.71      4.28                             D702400200024 
50.9       0.6        57.39      3.88                             D702400200025 
49.6       0.6        60.27      4.25                             D702400200026 
47.8       0.5        57.43      4.07                             D702400200027 
46.0       0.5        60.26      4.26                             D702400200028 
44.1       0.5        67.08      4.73                             D702400200029 
42.1       0.5        76.49      5.34                             D702400200030 
40.0       0.5        91.70      6.34                             D702400200031 
37.9       0.5        105.16     7.23                             D702400200032 
35.7       0.5        110.16     7.57                             D702400200033 
ENDDATA             25          0                                 D702400200034 
ENDSUBENT           33          0                                 D702400299999 
SUBENT        D7024003   20190201                             D119D702400300001 
BIB                  3          3                                 D702400300002 
REACTION   (40-ZR-0(P,X)41-NB-92-M,,SIG)                          D702400300003 
DECAY-DATA (41-NB-92-M,10.15D,DG,934.44,0.9915)                   D702400300004 
STATUS     (TABLE) Table 2 of Nucl.Instrum.Meth.B,436,179,2018    D702400300005 
ENDBIB               3          0                                 D702400300006 
NOCOMMON             0          0                                 D702400300007 
DATA                 4         23                                 D702400300008 
EN         EN-ERR     DATA       ERR-T                            D702400300009 
MEV        MEV        MB         MB                               D702400300010 
66.6       0.7        8.57       0.64                             D702400300011 
65.4       0.7        8.86       0.65                             D702400300012 
64.2       0.7        8.61       0.65                             D702400300013 
63.0       0.7        8.55       0.65                             D702400300014 
61.7       0.7        9.49       0.69                             D702400300015 
60.4       0.6        9.85       0.71                             D702400300016 
59.2       0.6        9.64       0.70                             D702400300017 
57.8       0.6        10.33      0.74                             D702400300018 
56.5       0.6        9.97       0.72                             D702400300019 
55.1       0.6        10.45      0.75                             D702400300020 
53.7       0.6        10.32      0.75                             D702400300021 
53.1       0.6        10.71      0.88                             D702400300022 
52.4       0.6        10.85      0.77                             D702400300023 
51.4       0.6        11.55      0.92                             D702400300024 
50.9       0.6        11.30      0.80                             D702400300025 
49.6       0.6        12.21      0.97                             D702400300026 
47.8       0.5        12.75      1.00                             D702400300027 
46.0       0.5        12.60      1.00                             D702400300028 
44.1       0.5        13.21      1.03                             D702400300029 
42.1       0.5        14.43      1.11                             D702400300030 
40.0       0.5        16.07      1.22                             D702400300031 
37.9       0.5        20.01      1.48                             D702400300032 
35.7       0.5        27.47      1.96                             D702400300033 
ENDDATA             25          0                                 D702400300034 
ENDSUBENT           33          0                                 D702400399999 
SUBENT        D7024004   20190201                             D119D702400400001 
BIB                  4          5                                 D702400400002 
REACTION   (40-ZR-0(P,X)41-NB-95-G,IND/M+,SIG)                    D702400400003 
DECAY-DATA (41-NB-95-G,34.991D,DG,765.8,0.99808)                  D702400400004 
ANALYSIS   95Zr contribution subtracted                           D702400400005 
STATUS     (TABLE) Table 2 of Nucl.Instrum.Meth.B,436,179,2018    D702400400006 
           (DEP,D7024008) 95Zr production cross section given     D702400400007 
ENDBIB               5          0                                 D702400400008 
NOCOMMON             0          0                                 D702400400009 
DATA                 4         23                                 D702400400010 
EN         EN-ERR     DATA       ERR-T                            D702400400011 
MEV        MEV        MB         MB                               D702400400012 
66.6       0.7        1.48       0.13                             D702400400013 
65.4       0.7        1.51       0.13                             D702400400014 
64.2       0.7        1.48       0.13                             D702400400015 
63.0       0.7        1.58       0.14                             D702400400016 
61.7       0.7        1.46       0.13                             D702400400017 
60.4       0.6        1.58       0.14                             D702400400018 
59.2       0.6        1.53       0.14                             D702400400019 
57.8       0.6        1.68       0.16                             D702400400020 
56.5       0.6        1.61       0.15                             D702400400021 
55.1       0.6        1.58       0.15                             D702400400022 
53.7       0.6        1.71       0.16                             D702400400023 
53.1       0.6        1.79       0.17                             D702400400024 
52.4       0.6        1.72       0.16                             D702400400025 
51.4       0.6        1.71       0.17                             D702400400026 
50.9       0.6        1.67       0.16                             D702400400027 
49.6       0.6        1.77       0.17                             D702400400028 
47.8       0.5        1.92       0.19                             D702400400029 
46.0       0.5        1.77       0.17                             D702400400030 
44.1       0.5        1.92       0.19                             D702400400031 
42.1       0.5        1.88       0.18                             D702400400032 
40.0       0.5        2.20       0.21                             D702400400033 
37.9       0.5        2.27       0.22                             D702400400034 
35.7       0.5        2.39       0.23                             D702400400035 
ENDDATA             25          0                                 D702400400036 
ENDSUBENT           35          0                                 D702400499999 
SUBENT        D7024005   20190201                             D119D702400500001 
BIB                  3          3                                 D702400500002 
REACTION   (40-ZR-0(P,X)40-ZR-86,CUM,SIG)                         D702400500003 
DECAY-DATA (40-ZR-86,16.5HR,DG,242.8,0.9584)                      D702400500004 
STATUS     (TABLE) Table 2 of Nucl.Instrum.Meth.B,436,179,2018    D702400500005 
ENDBIB               3          0                                 D702400500006 
NOCOMMON             0          0                                 D702400500007 
DATA                 4         12                                 D702400500008 
EN         EN-ERR     DATA       ERR-T                            D702400500009 
MEV        MEV        MB         MB                               D702400500010 
66.6       0.7        30.81      2.02                             D702400500011 
65.4       0.7        29.50      1.93                             D702400500012 
64.2       0.7        26.57      1.75                             D702400500013 
63.0       0.7        22.86      1.51                             D702400500014 
61.7       0.7        19.78      1.31                             D702400500015 
60.4       0.6        14.64      0.98                             D702400500016 
59.2       0.6        12.12      0.83                             D702400500017 
57.8       0.6        8.55       0.58                             D702400500018 
56.5       0.6        6.12       0.43                             D702400500019 
55.1       0.6        3.21       0.24                             D702400500020 
53.7       0.6        1.79       0.15                             D702400500021 
52.4       0.6        0.71       0.07                             D702400500022 
ENDDATA             14          0                                 D702400500023 
ENDSUBENT           22          0                                 D702400599999 
SUBENT        D7024006   20190201                             D119D702400600001 
BIB                  3          3                                 D702400600002 
REACTION   (40-ZR-0(P,X)40-ZR-88,CUM,SIG)                         D702400600003 
DECAY-DATA (40-ZR-88,83.4D,DG,392.87,0.9729)                      D702400600004 
STATUS     (TABLE) Table 2 of Nucl.Instrum.Meth.B,436,179,2018    D702400600005 
ENDBIB               3          0                                 D702400600006 
NOCOMMON             0          0                                 D702400600007 
DATA                 4         23                                 D702400600008 
EN         EN-ERR     DATA       ERR-T                            D702400600009 
MEV        MEV        MB         MB                               D702400600010 
66.6       0.7        193.19     11.30                            D702400600011 
65.4       0.7        198.26     11.60                            D702400600012 
64.2       0.7        200.71     11.74                            D702400600013 
63.0       0.7        206.46     12.08                            D702400600014 
61.7       0.7        207.12     12.12                            D702400600015 
60.4       0.6        202.90     11.87                            D702400600016 
59.2       0.6        207.08     12.12                            D702400600017 
57.8       0.6        211.87     12.40                            D702400600018 
56.5       0.6        210.40     12.32                            D702400600019 
55.1       0.6        215.62     12.62                            D702400600020 
53.7       0.6        219.86     12.87                            D702400600021 
53.1       0.6        242.04     15.54                            D702400600022 
52.4       0.6        219.31     12.84                            D702400600023 
51.4       0.6        256.63     16.47                            D702400600024 
50.9       0.6        234.28     13.71                            D702400600025 
49.6       0.6        285.74     18.34                            D702400600026 
47.8       0.5        313.89     20.14                            D702400600027 
46.0       0.5        346.93     22.26                            D702400600028 
44.1       0.5        366.83     23.54                            D702400600029 
42.1       0.5        363.65     23.34                            D702400600030 
40.0       0.5        344.85     22.13                            D702400600031 
37.9       0.5        307.17     19.71                            D702400600032 
35.7       0.5        227.86     14.63                            D702400600033 
ENDDATA             25          0                                 D702400600034 
ENDSUBENT           33          0                                 D702400699999 
SUBENT        D7024007   20190201                             D119D702400700001 
BIB                  3          3                                 D702400700002 
REACTION   (40-ZR-0(P,X)40-ZR-89-G,CUM,SIG)                       D702400700003 
DECAY-DATA (40-ZR-89-G,78.41HR,DG,909.15,0.9904)                  D702400700004 
STATUS     (TABLE) Table 2 of Nucl.Instrum.Meth.B,436,179,2018    D702400700005 
ENDBIB               3          0                                 D702400700006 
NOCOMMON             0          0                                 D702400700007 
DATA                 4         23                                 D702400700008 
EN         EN-ERR     DATA       ERR-T                            D702400700009 
MEV        MEV        MB         MB                               D702400700010 
66.6       0.7        196.80     11.62                            D702400700011 
65.4       0.7        199.97     11.80                            D702400700012 
64.2       0.7        202.26     11.94                            D702400700013 
63.0       0.7        203.10     11.98                            D702400700014 
61.7       0.7        202.71     11.96                            D702400700015 
60.4       0.6        199.66     11.78                            D702400700016 
59.2       0.6        201.61     11.90                            D702400700017 
57.8       0.6        206.12     12.16                            D702400700018 
56.5       0.6        207.39     12.24                            D702400700019 
55.1       0.6        214.61     12.66                            D702400700020 
53.7       0.6        219.85     12.95                            D702400700021 
53.1       0.6        226.61     15.06                            D702400700022 
52.4       0.6        220.79     13.00                            D702400700023 
51.4       0.6        232.35     15.44                            D702400700024 
50.9       0.6        229.66     13.52                            D702400700025 
49.6       0.6        240.01     15.95                            D702400700026 
47.8       0.5        242.17     16.09                            D702400700027 
46.0       0.5        251.19     16.68                            D702400700028 
44.1       0.5        251.93     16.73                            D702400700029 
42.1       0.5        252.87     16.72                            D702400700030 
40.0       0.5        258.36     17.08                            D702400700031 
37.9       0.5        276.24     18.26                            D702400700032 
35.7       0.5        317.03     20.93                            D702400700033 
ENDDATA             25          0                                 D702400700034 
ENDSUBENT           33          0                                 D702400799999 
SUBENT        D7024008   20190201                             D119D702400800001 
BIB                  3          3                                 D702400800002 
REACTION   (40-ZR-0(P,X)40-ZR-95,CUM,SIG)                         D702400800003 
DECAY-DATA (40-ZR-95,64.032D,DG,756.73,0.5438)                    D702400800004 
STATUS     (TABLE) Table 2 of Nucl.Instrum.Meth.B,436,179,2018    D702400800005 
ENDBIB               3          0                                 D702400800006 
NOCOMMON             0          0                                 D702400800007 
DATA                 4         23                                 D702400800008 
EN         EN-ERR     DATA       ERR-T                            D702400800009 
MEV        MEV        MB         MB                               D702400800010 
66.6       0.7        4.44       0.29                             D702400800011 
65.4       0.7        4.36       0.28                             D702400800012 
64.2       0.7        4.42       0.29                             D702400800013 
63.0       0.7        4.53       0.30                             D702400800014 
61.7       0.7        4.27       0.28                             D702400800015 
60.4       0.6        4.18       0.28                             D702400800016 
59.2       0.6        4.13       0.27                             D702400800017 
57.8       0.6        4.04       0.28                             D702400800018 
56.5       0.6        3.80       0.27                             D702400800019 
55.1       0.6        4.47       0.31                             D702400800020 
53.7       0.6        3.95       0.28                             D702400800021 
53.1       0.6        4.53       0.32                             D702400800022 
52.4       0.6        4.04       0.28                             D702400800023 
51.4       0.6        4.54       0.32                             D702400800024 
50.9       0.6        4.71       0.32                             D702400800025 
49.6       0.6        4.34       0.31                             D702400800026 
47.8       0.5        3.78       0.27                             D702400800027 
46.0       0.5        4.33       0.31                             D702400800028 
44.1       0.5        4.22       0.30                             D702400800029 
42.1       0.5        4.14       0.29                             D702400800030 
40.0       0.5        4.42       0.31                             D702400800031 
37.9       0.5        4.21       0.30                             D702400800032 
35.7       0.5        4.20       0.30                             D702400800033 
ENDDATA             25          0                                 D702400800034 
ENDSUBENT           33          0                                 D702400899999 
SUBENT        D7024009   20190201                             D119D702400900001 
BIB                  4          5                                 D702400900002 
REACTION   (40-ZR-0(P,X)39-Y-86,,SIG)                             D702400900003 
DECAY-DATA (39-Y-86-G,14.74HR,DG,1076.63,0.825)                   D702400900004 
ANALYSIS   86Zr contribution subtracted                           D702400900005 
STATUS     (TABLE) Table 2 of Nucl.Instrum.Meth.B,436,179,2018    D702400900006 
           (DEP,D7024005) 86Zr production cross section given     D702400900007 
ENDBIB               5          0                                 D702400900008 
NOCOMMON             0          0                                 D702400900009 
DATA                 4         23                                 D702400900010 
EN         EN-ERR     DATA       ERR-T                            D702400900011 
MEV        MEV        MB         MB                               D702400900012 
66.6       0.7        41.65      3.88                             D702400900013 
65.4       0.7        39.97      3.73                             D702400900014 
64.2       0.7        37.18      3.48                             D702400900015 
63.0       0.7        34.96      3.29                             D702400900016 
61.7       0.7        30.80      2.91                             D702400900017 
60.4       0.6        28.09      2.69                             D702400900018 
59.2       0.6        23.54      2.29                             D702400900019 
57.8       0.6        20.83      2.02                             D702400900020 
56.5       0.6        17.47      1.73                             D702400900021 
55.1       0.6        16.47      1.70                             D702400900022 
53.7       0.6        14.42      1.57                             D702400900023 
53.1       0.6        15.63      1.28                             D702400900024 
52.4       0.6        14.10      1.66                             D702400900025 
51.4       0.6        15.26      1.24                             D702400900026 
50.9       0.6        14.28      1.04                             D702400900027 
49.6       0.6        15.28      1.27                             D702400900028 
47.8       0.5        14.15      1.21                             D702400900029 
46.0       0.5        13.99      1.21                             D702400900030 
44.1       0.5        14.95      1.28                             D702400900031 
42.1       0.5        17.62      1.43                             D702400900032 
40.0       0.5        20.34      1.63                             D702400900033 
37.9       0.5        22.24      1.74                             D702400900034 
35.7       0.5        20.59      1.65                             D702400900035 
ENDDATA             25          0                                 D702400900036 
ENDSUBENT           35          0                                 D702400999999 
SUBENT        D7024010   20190201                             D119D702401000001 
BIB                  3          3                                 D702401000002 
REACTION   (40-ZR-0(P,X)39-Y-87-M,CUM,SIG)                        D702401000003 
DECAY-DATA (39-Y-87-M,13.37HR,DG,380.79,0.7805)                   D702401000004 
STATUS     (TABLE) Table 2 of Nucl.Instrum.Meth.B,436,179,2018    D702401000005 
ENDBIB               3          0                                 D702401000006 
NOCOMMON             0          0                                 D702401000007 
DATA                 4         23                                 D702401000008 
EN         EN-ERR     DATA       ERR-T                            D702401000009 
MEV        MEV        MB         MB                               D702401000010 
66.6       0.7        152.95     9.82                             D702401000011 
65.4       0.7        159.43     10.24                            D702401000012 
64.2       0.7        162.55     10.43                            D702401000013 
63.0       0.7        169.54     10.88                            D702401000014 
61.7       0.7        172.62     11.08                            D702401000015 
60.4       0.6        172.11     11.05                            D702401000016 
59.2       0.6        176.22     11.32                            D702401000017 
57.8       0.6        178.57     11.47                            D702401000018 
56.5       0.6        178.98     11.50                            D702401000019 
55.1       0.6        175.58     11.29                            D702401000020 
53.7       0.6        172.94     11.12                            D702401000021 
53.1       0.6        159.52     10.64                            D702401000022 
52.4       0.6        159.14     10.25                            D702401000023 
51.4       0.6        138.20     9.23                             D702401000024 
50.9       0.6        150.70     9.71                             D702401000025 
49.6       0.6        114.05     7.66                             D702401000026 
47.8       0.5        83.12      5.63                             D702401000027 
46.0       0.5        53.59      3.69                             D702401000028 
44.1       0.5        28.11      2.01                             D702401000029 
42.1       0.5        15.38      1.18                             D702401000030 
40.0       0.5        10.51      0.84                             D702401000031 
37.9       0.5        9.07       0.77                             D702401000032 
35.7       0.5        8.54       0.73                             D702401000033 
ENDDATA             25          0                                 D702401000034 
ENDSUBENT           33          0                                 D702401099999 
SUBENT        D7024011   20190201                             D119D702401100001 
BIB                  3          3                                 D702401100002 
REACTION   (40-ZR-0(P,X)39-Y-87-G,CUM,SIG)                        D702401100003 
DECAY-DATA (39-Y-87-G,79.8HR,DG,484.81,0.898)                     D702401100004 
STATUS     (TABLE) Table 2 of Nucl.Instrum.Meth.B,436,179,2018    D702401100005 
ENDBIB               3          0                                 D702401100006 
NOCOMMON             0          0                                 D702401100007 
DATA                 4         23                                 D702401100008 
EN         EN-ERR     DATA       ERR-T                            D702401100009 
MEV        MEV        MB         MB                               D702401100010 
66.6       0.7        222.00     13.16                            D702401100011 
65.4       0.7        228.23     13.53                            D702401100012 
64.2       0.7        235.62     13.98                            D702401100013 
63.0       0.7        239.85     14.23                            D702401100014 
61.7       0.7        243.52     14.45                            D702401100015 
60.4       0.6        242.45     14.38                            D702401100016 
59.2       0.6        248.17     14.73                            D702401100017 
57.8       0.6        253.69     15.08                            D702401100018 
56.5       0.6        242.78     14.43                            D702401100019 
55.1       0.6        244.31     14.53                            D702401100020 
53.7       0.6        235.97     14.03                            D702401100021 
53.1       0.6        221.79     14.37                            D702401100022 
52.4       0.6        217.98     12.97                            D702401100023 
51.4       0.6        190.74     12.36                            D702401100024 
50.9       0.6        202.07     12.03                            D702401100025 
49.6       0.6        159.02     10.31                            D702401100026 
47.8       0.5        116.42     7.55                             D702401100027 
46.0       0.5        77.22      5.01                             D702401100028 
44.1       0.5        42.89      2.79                             D702401100029 
42.1       0.5        24.10      1.57                             D702401100030 
40.0       0.5        18.37      1.20                             D702401100031 
37.9       0.5        16.66      1.09                             D702401100032 
35.7       0.5        15.27      1.00                             D702401100033 
ENDDATA             25          0                                 D702401100034 
ENDSUBENT           33          0                                 D702401199999 
SUBENT        D7024012   20190201                             D119D702401200001 
BIB                  4          5                                 D702401200002 
REACTION   (40-ZR-0(P,X)39-Y-88,IND,SIG)                          D702401200003 
DECAY-DATA (39-Y-88,106.627D,DG,898.04,0.937))                    D702401200004 
ANALYSIS   88Zr contribution subtracted                           D702401200005 
STATUS     (TABLE) Table 2 of Nucl.Instrum.Meth.B,436,179,2018    D702401200006 
           (DEP,D7024006) 88Zr production cross section given     D702401200007 
ENDBIB               5          0                                 D702401200008 
NOCOMMON             0          0                                 D702401200009 
DATA                 4         23                                 D702401200010 
EN         EN-ERR     DATA       ERR-T                            D702401200011 
MEV        MEV        MB         MB                               D702401200012 
66.6       0.7        28.40      2.36                             D702401200013 
65.4       0.7        28.71      2.38                             D702401200014 
64.2       0.7        29.01      2.41                             D702401200015 
63.0       0.7        28.84      2.40                             D702401200016 
61.7       0.7        27.47      2.28                             D702401200017 
60.4       0.6        28.38      2.36                             D702401200018 
59.2       0.6        26.93      2.24                             D702401200019 
57.8       0.6        26.24      2.19                             D702401200020 
56.5       0.6        26.25      2.19                             D702401200021 
55.1       0.6        26.77      2.23                             D702401200022 
53.7       0.6        27.21      2.27                             D702401200023 
53.1       0.6        28.73      2.62                             D702401200024 
52.4       0.6        26.33      2.19                             D702401200025 
51.4       0.6        26.35      2.40                             D702401200026 
50.9       0.6        25.26      2.10                             D702401200027 
49.6       0.6        25.97      2.37                             D702401200028 
47.8       0.5        25.44      2.32                             D702401200029 
46.0       0.5        23.03      2.10                             D702401200030 
44.1       0.5        19.21      1.75                             D702401200031 
42.1       0.5        18.35      1.67                             D702401200032 
40.0       0.5        12.52      1.14                             D702401200033 
37.9       0.5        11.08      1.01                             D702401200034 
35.7       0.5        9.67       0.88                             D702401200035 
ENDDATA             25          0                                 D702401200036 
ENDSUBENT           35          0                                 D702401299999 
SUBENT        D7024013   20190201                             D119D702401300001 
BIB                  3          3                                 D702401300002 
REACTION   (40-ZR-0(P,X)38-SR-85-G,CUM,SIG)                       D702401300003 
DECAY-DATA (38-SR-85-G,64.849D,DG,514.0,0.96)                     D702401300004 
STATUS     (TABLE) Table 2 of Nucl.Instrum.Meth.B,436,179,2018    D702401300005 
ENDBIB               3          0                                 D702401300006 
NOCOMMON             0          0                                 D702401300007 
DATA                 4         23                                 D702401300008 
EN         EN-ERR     DATA       ERR-T                            D702401300009 
MEV        MEV        MB         MB                               D702401300010 
66.6       0.7        28.59      1.69                             D702401300011 
65.4       0.7        31.03      1.83                             D702401300012 
64.2       0.7        30.65      1.82                             D702401300013 
63.0       0.7        30.13      1.79                             D702401300014 
61.7       0.7        30.11      1.79                             D702401300015 
60.4       0.6        29.60      1.76                             D702401300016 
59.2       0.6        30.15      1.79                             D702401300017 
57.8       0.6        31.43      1.87                             D702401300018 
56.5       0.6        31.61      1.88                             D702401300019 
55.1       0.6        33.73      2.01                             D702401300020 
53.7       0.6        35.76      2.12                             D702401300021 
53.1       0.6        39.82      2.57                             D702401300022 
52.4       0.6        36.33      2.15                             D702401300023 
51.4       0.6        42.79      2.75                             D702401300024 
50.9       0.6        39.62      2.35                             D702401300025 
49.6       0.6        43.01      2.77                             D702401300026 
47.8       0.5        40.70      2.62                             D702401300027 
46.0       0.5        35.34      2.29                             D702401300028 
44.1       0.5        28.85      1.89                             D702401300029 
42.1       0.5        24.25      1.61                             D702401300030 
40.0       0.5        13.53      0.94                             D702401300031 
37.9       0.5        6.98       0.53                             D702401300032 
35.7       0.5        1.74       0.19                             D702401300033 
ENDDATA             25          0                                 D702401300034 
ENDSUBENT           33          0                                 D702401399999 
SUBENT        D7024014   20190201                             D119D702401400001 
BIB                  3          3                                 D702401400002 
REACTION   (40-ZR-0(P,X)37-RB-83,CUM,SIG)                         D702401400003 
DECAY-DATA (37-RB-83,86.2D,DG,520.4,0.45)                         D702401400004 
STATUS     (TABLE) Table 2 of Nucl.Instrum.Meth.B,436,179,2018    D702401400005 
ENDBIB               3          0                                 D702401400006 
NOCOMMON             0          0                                 D702401400007 
DATA                 4         10                                 D702401400008 
EN         EN-ERR     DATA       ERR-T                            D702401400009 
MEV        MEV        MB         MB                               D702401400010 
66.6       0.7        13.56      1.22                             D702401400011 
65.4       0.7        10.68      0.97                             D702401400012 
64.2       0.7        8.59       0.79                             D702401400013 
63.0       0.7        6.83       0.63                             D702401400014 
61.7       0.7        4.64       0.44                             D702401400015 
60.4       0.6        2.96       0.29                             D702401400016 
59.2       0.6        2.10       0.21                             D702401400017 
57.8       0.6        1.46       0.16                             D702401400018 
56.5       0.6        0.59       0.08                             D702401400019 
55.1       0.6        0.57       0.08                             D702401400020 
ENDDATA             12          0                                 D702401400021 
ENDSUBENT           20          0                                 D702401499999 
ENDENTRY            14          0                                 D702499999999 
