ENTRY            D7026   20191204                             D127D702600000001 
SUBENT        D7026001   20191204                             D127D702600100001 
BIB                 13         23                                 D702600100002 
TITLE      Excitation function of alpha-particle-induced          D702600100003 
           reactions on natNi from threshold to 44 MeV            D702600100004 
AUTHOR     (M.S.Uddin, K.S.Kim, M.Nadeem, S.Sudar, G.N.Kim)       D702600100005 
INSTITUTE  (3BANSAV,3KORKNU,3HUNKOS)                              D702600100006 
REFERENCE  (J,EPJ/A,53,100,2017)                                  D702600100007 
FACILITY   (CYCLO,3KORKRM) MC-50 cyclotron (KIRAMS)               D702600100008 
SAMPLE     Natural nickel (Ni)                                    D702600100009 
            - Purity   : 99.95%                                   D702600100010 
            - Thickness: 10 micro-meter                           D702600100011 
METHOD     (ACTIV) Irradiation for 30 min (300 nA)                D702600100012 
           (STTA) Stacked-foil activation technique               D702600100013 
           (GSPEC) Started after the cooling time of 1 hour       D702600100014 
DETECTOR   (HPGE)                                                 D702600100015 
MONITOR    - Cu foils (99% purity, 10 micro-meter thickness)      D702600100016 
           - Ti foils (99.95% purity, 10 micro-meter thickness)   D702600100017 
           (29-CU-0(A,X)31-GA-66,,SIG)                            D702600100018 
           (29-CU-0(A,X)31-GA-67,,SIG)                            D702600100019 
           (29-CU-0(A,X)30-ZN-65,,SIG)                            D702600100020 
           (22-TI-0(A,X)24-CR-51,,SIG)                            D702600100021 
MONIT-REF  (,S.M.Qaim+,R,IAEA-TECDOC-1211,2001)                   D702600100022 
ERR-ANALYS (DATA-ERR) Total uncertainty: 7-26%                    D702600100023 
STATUS     (APRVD) Approved by M.S.Uddin (2020-06-13)             D702600100024 
HISTORY    (20191204C) S.C.Yang                                   D702600100025 
ENDBIB              23          0                                 D702600100026 
NOCOMMON             0          0                                 D702600100027 
ENDSUBENT           26          0                                 D702600199999 
SUBENT        D7026002   20191204                             D127D702600200001 
BIB                  3          4                                 D702600200002 
REACTION   (28-NI-0(A,X)30-ZN-62,,SIG)                            D702600200003 
DECAY-DATA (30-ZN-62,9.187HR,DG,548.35,0.153,                     D702600200004 
                             DG,596.56,0.260)                     D702600200005 
STATUS     (TABLE) Table 2 of Eur.Phys.J.A,53,100,2017            D702600200006 
ENDBIB               4          0                                 D702600200007 
NOCOMMON             0          0                                 D702600200008 
DATA                 4         18                                 D702600200009 
EN         EN-ERR     DATA       DATA-ERR                         D702600200010 
MEV        MEV        MB         MB                               D702600200011 
43.3       0.3        11.6       1.0                              D702600200012 
42.2       0.3        15.2       1.3                              D702600200013 
41.0       0.4        17.1       1.5                              D702600200014 
39.7       0.4        20.4       1.7                              D702600200015 
38.5       0.4        23.7       2.0                              D702600200016 
37.2       0.4        24.2       2.1                              D702600200017 
35.9       0.4        30.0       2.6                              D702600200018 
34.6       0.4        32.4       2.8                              D702600200019 
33.2       0.5        27.9       2.4                              D702600200020 
31.7       0.5        29.7       2.6                              D702600200021 
30.2       0.5        25.8       2.2                              D702600200022 
28.7       0.5        24.2       2.1                              D702600200023 
27.1       0.5        18.7       1.6                              D702600200024 
25.4       0.5        13.6       1.2                              D702600200025 
23.7       0.6        9.8        0.9                              D702600200026 
21.8       0.6        5.4        0.5                              D702600200027 
19.9       0.6        2.0        0.25                             D702600200028 
18.5       0.7        1.1        0.16                             D702600200029 
ENDDATA             20          0                                 D702600200030 
ENDSUBENT           29          0                                 D702600299999 
SUBENT        D7026003   20191204                             D127D702600300001 
BIB                  3          4                                 D702600300002 
REACTION   (28-NI-0(A,X)30-ZN-63,,SIG)                            D702600300003 
DECAY-DATA (30-ZN-63,38.47MIN,DG,669.62,0.080,                    D702600300004 
                              DG,962.06,0.065)                    D702600300005 
STATUS     (TABLE) Table 2 of Eur.Phys.J.A,53,100,2017            D702600300006 
ENDBIB               4          0                                 D702600300007 
NOCOMMON             0          0                                 D702600300008 
DATA                 4         18                                 D702600300009 
EN         EN-ERR     DATA       DATA-ERR                         D702600300010 
MEV        MEV        MB         MB                               D702600300011 
35.9       0.4        7.8        2.2                              D702600300012 
34.6       0.4        7.7        2.1                              D702600300013 
33.2       0.5        9.5        2.1                              D702600300014 
31.7       0.5        13.3       2.4                              D702600300015 
30.2       0.5        14.9       2.3                              D702600300016 
28.7       0.5        25.9       3.1                              D702600300017 
27.1       0.5        27.6       3.1                              D702600300018 
25.4       0.5        38.3       3.5                              D702600300019 
23.7       0.6        62.5       6.0                              D702600300020 
21.8       0.6        89.9       9.3                              D702600300021 
19.9       0.6        114.4      12.0                             D702600300022 
18.5       0.7        118.5      11.3                             D702600300023 
17.1       0.7        121.5      11.4                             D702600300024 
14.7       0.8        121.2      10.9                             D702600300025 
12.9       0.9        78.6       6.9                              D702600300026 
11.1       1.0        46.1       4.4                              D702600300027 
7.7        1.2        5.7        0.5                              D702600300028 
4.8        1.6        2.2        0.26                             D702600300029 
ENDDATA             20          0                                 D702600300030 
ENDSUBENT           29          0                                 D702600399999 
SUBENT        D7026004   20191204                             D127D702600400001 
BIB                  3          3                                 D702600400002 
REACTION   (28-NI-0(A,X)30-ZN-65,,SIG)                            D702600400003 
DECAY-DATA (30-ZN-65,244.26D,DG,1115.54,0.506)                    D702600400004 
STATUS     (TABLE) Table 2 of Eur.Phys.J.A,53,100,2017            D702600400005 
ENDBIB               3          0                                 D702600400006 
NOCOMMON             0          0                                 D702600400007 
DATA                 4         23                                 D702600400008 
EN         EN-ERR     DATA       DATA-ERR                         D702600400009 
MEV        MEV        MB         MB                               D702600400010 
43.3       0.3        5.5        0.6                              D702600400011 
42.2       0.3        5.7        0.6                              D702600400012 
41.0       0.4        6.4        0.6                              D702600400013 
39.7       0.4        6.6        0.6                              D702600400014 
38.5       0.4        6.1        0.6                              D702600400015 
37.2       0.4        7.1        0.6                              D702600400016 
35.9       0.4        6.9        0.7                              D702600400017 
34.6       0.4        6.1        0.6                              D702600400018 
33.2       0.5        5.7        0.5                              D702600400019 
31.7       0.5        5.6        0.6                              D702600400020 
30.2       0.5        4.2        0.5                              D702600400021 
28.7       0.5        4.1        0.4                              D702600400022 
27.1       0.5        4.3        0.5                              D702600400023 
25.4       0.5        7.0        0.6                              D702600400024 
23.7       0.6        12.8       1.0                              D702600400025 
21.8       0.6        20.0       1.5                              D702600400026 
19.9       0.6        27.8       2.1                              D702600400027 
18.5       0.7        31.3       2.3                              D702600400028 
17.1       0.7        33.5       2.5                              D702600400029 
14.7       0.8        27.1       2.0                              D702600400030 
12.9       0.9        23.3       1.7                              D702600400031 
11.1       1.0        15.4       1.3                              D702600400032 
7.7        1.2        2.2        0.2                              D702600400033 
ENDDATA             25          0                                 D702600400034 
ENDSUBENT           33          0                                 D702600499999 
SUBENT        D7026005   20191204                             D127D702600500001 
BIB                  3          4                                 D702600500002 
REACTION   (28-NI-0(A,X)28-NI-56,,SIG)                            D702600500003 
DECAY-DATA (28-NI-56,6.077D,DG,480.44,0.365,                      D702600500004 
                            DG,749.95,0.495)                      D702600500005 
STATUS     (TABLE) Table 2 of Eur.Phys.J.A,53,100,2017            D702600500006 
ENDBIB               4          0                                 D702600500007 
NOCOMMON             0          0                                 D702600500008 
DATA                 4          9                                 D702600500009 
EN         EN-ERR     DATA       DATA-ERR                         D702600500010 
MEV        MEV        MB         MB                               D702600500011 
43.3       0.3        0.77       0.06                             D702600500012 
42.2       0.3        0.60       0.05                             D702600500013 
41.0       0.4        0.46       0.04                             D702600500014 
39.7       0.4        0.36       0.03                             D702600500015 
38.5       0.4        0.27       0.02                             D702600500016 
37.2       0.4        0.20       0.02                             D702600500017 
35.9       0.4        0.12       0.012                            D702600500018 
34.6       0.4        0.07       0.009                            D702600500019 
33.2       0.5        0.02       0.002                            D702600500020 
ENDDATA             11          0                                 D702600500021 
ENDSUBENT           20          0                                 D702600599999 
SUBENT        D7026006   20191204                             D127D702600600001 
BIB                  4          6                                 D702600600002 
REACTION   (28-NI-58(A,X)28-NI-57,,SIG)                           D702600600003 
DECAY-DATA (28-NI-57,35.6HR,DG,127.16,0.167,                      D702600600004 
                            DG,1377.63,0.817)                     D702600600005 
COMMENT    Data obtained after normalization of natural target    D702600600006 
            to the enriched Ni-58 target                          D702600600007 
STATUS     (TABLE) Table 2 of Eur.Phys.J.A,53,100,2017            D702600600008 
ENDBIB               6          0                                 D702600600009 
NOCOMMON             0          0                                 D702600600010 
DATA                 4         18                                 D702600600011 
EN         EN-ERR     DATA       DATA-ERR                         D702600600012 
MEV        MEV        MB         MB                               D702600600013 
43.3       0.3        26.2       1.8                              D702600600014 
42.2       0.3        30.7       2.1                              D702600600015 
41.0       0.4        31.5       2.2                              D702600600016 
39.7       0.4        33.8       2.4                              D702600600017 
38.5       0.4        36.8       2.6                              D702600600018 
37.2       0.4        37.1       2.6                              D702600600019 
35.9       0.4        38.4       2.7                              D702600600020 
34.6       0.4        36.9       2.6                              D702600600021 
33.2       0.5        30.5       2.1                              D702600600022 
31.7       0.5        26.5       1.8                              D702600600023 
30.2       0.5        19.9       1.4                              D702600600024 
28.7       0.5        15.1       1.1                              D702600600025 
27.1       0.5        11.7       0.8                              D702600600026 
25.4       0.5        8.3        0.6                              D702600600027 
23.7       0.6        5.7        0.4                              D702600600028 
21.8       0.6        2.0        0.15                             D702600600029 
19.9       0.6        0.3        0.02                             D702600600030 
18.5       0.7        0.08       0.01                             D702600600031 
ENDDATA             20          0                                 D702600600032 
ENDSUBENT           31          0                                 D702600699999 
SUBENT        D7026007   20191204                             D127D702600700001 
BIB                  3          4                                 D702600700002 
REACTION   (28-NI-0(A,X)27-CO-56,CUM,SIG)                         D702600700003 
DECAY-DATA (27-CO-56,77.27D,DG,846.77,1.000,                      D702600700004 
                            DG,1238.28,0.676)                     D702600700005 
STATUS     (TABLE) Table 2 of Eur.Phys.J.A,53,100,2017            D702600700006 
ENDBIB               4          0                                 D702600700007 
NOCOMMON             0          0                                 D702600700008 
DATA                 4         10                                 D702600700009 
EN         EN-ERR     DATA       DATA-ERR                         D702600700010 
MEV        MEV        MB         MB                               D702600700011 
43.3       0.3        92.1       6.2                              D702600700012 
42.2       0.3        75.2       5.1                              D702600700013 
41.0       0.4        61.5       4.2                              D702600700014 
39.7       0.4        45.7       3.1                              D702600700015 
38.5       0.4        34.2       2.3                              D702600700016 
37.2       0.4        22.3       1.5                              D702600700017 
35.9       0.4        13.0       0.9                              D702600700018 
34.6       0.4        5.8        0.4                              D702600700019 
33.2       0.5        2.1        0.2                              D702600700020 
31.7       0.5        0.5        0.06                             D702600700021 
ENDDATA             12          0                                 D702600700022 
ENDSUBENT           21          0                                 D702600799999 
SUBENT        D7026008   20191204                             D127D702600800001 
BIB                  3          4                                 D702600800002 
REACTION   (28-NI-0(A,X)27-CO-57,CUM,SIG)                         D702600800003 
DECAY-DATA (27-CO-57,271.79D,DG,122.06,0.856,                     D702600800004 
                             DG,136.47,0.107)                     D702600800005 
STATUS     (TABLE) Table 2 of Eur.Phys.J.A,53,100,2017            D702600800006 
ENDBIB               4          0                                 D702600800007 
NOCOMMON             0          0                                 D702600800008 
DATA                 4         19                                 D702600800009 
EN         EN-ERR     DATA       DATA-ERR                         D702600800010 
MEV        MEV        MB         MB                               D702600800011 
43.3       0.3        119.2      8.1                              D702600800012 
42.2       0.3        141.4      9.6                              D702600800013 
41.0       0.4        155.8      10.6                             D702600800014 
39.7       0.4        173.4      11.7                             D702600800015 
38.5       0.4        185.2      12.5                             D702600800016 
37.2       0.4        193.2      13.1                             D702600800017 
35.9       0.4        204.0      13.8                             D702600800018 
34.6       0.4        208.2      14.1                             D702600800019 
33.2       0.5        207.8      14.1                             D702600800020 
31.7       0.5        211.9      14.4                             D702600800021 
30.2       0.5        197.6      13.4                             D702600800022 
28.7       0.5        177.9      12.1                             D702600800023 
27.1       0.5        164.2      11.2                             D702600800024 
25.4       0.5        136.6      11.2                             D702600800025 
23.7       0.6        96.4       5.6                              D702600800026 
21.8       0.6        54.2       1.8                              D702600800027 
19.9       0.6        19.1       0.22                             D702600800028 
18.5       0.7        6.9        0.03                             D702600800029 
17.1       0.7        1.1        0.0007                           D702600800030 
ENDDATA             21          0                                 D702600800031 
ENDSUBENT           30          0                                 D702600899999 
SUBENT        D7026009   20191204                             D127D702600900001 
BIB                  3          3                                 D702600900002 
REACTION   (28-NI-0(A,X)27-CO-58,,SIG)                            D702600900003 
DECAY-DATA (27-CO-58-G,70.86D,DG,810.80,0.990)                    D702600900004 
STATUS     (TABLE) Table 2 of Eur.Phys.J.A,53,100,2017            D702600900005 
ENDBIB               3          0                                 D702600900006 
NOCOMMON             0          0                                 D702600900007 
DATA                 4         11                                 D702600900008 
EN         EN-ERR     DATA       DATA-ERR                         D702600900009 
MEV        MEV        MB         MB                               D702600900010 
43.3       0.3        51.1       3.5                              D702600900011 
42.2       0.3        48.8       3.4                              D702600900012 
41.0       0.4        37.8       2.6                              D702600900013 
39.7       0.4        30.1       2.1                              D702600900014 
38.5       0.4        22.3       1.6                              D702600900015 
37.2       0.4        13.9       1.0                              D702600900016 
35.9       0.4        8.7        0.7                              D702600900017 
34.6       0.4        4.4        0.4                              D702600900018 
33.2       0.5        0.7        0.1                              D702600900019 
31.7       0.5        0.3        0.07                             D702600900020 
30.2       0.5        0.03       0.008                            D702600900021 
ENDDATA             13          0                                 D702600900022 
ENDSUBENT           21          0                                 D702600999999 
ENDENTRY             9          0                                 D702699999999 
