ENTRY            D7043   20230215                             D139D704300000001 
SUBENT        D7043001   20230215                             D139D704300100001 
BIB                 13         25                                 D704300100002 
TITLE      Measurement of the production cross-sections of        D704300100003 
           natCd(p,x) reactions up to 45 MeV                      D704300100004 
AUTHOR     (M.Shahid, K.Kim, T.H.Nguyen, M.Nadeem, H.Naik,        D704300100005 
            G.N.Kim)                                              D704300100006 
INSTITUTE  (3KORKNU,3INDTRM)                                      D704300100007 
REFERENCE  (J,NIM/B,521,22,2022)                                  D704300100008 
FACILITY   (CYCLO,3KORKRM) MC-50 cyclotron (KIRAMS)               D704300100009 
SAMPLE     Natural cadmium                                        D704300100010 
            - Purity   : 99.7%                                    D704300100011 
            - Thickness: 9.74 micro-meter                         D704300100012 
METHOD     (ACTIV,STTA)                                           D704300100013 
           (GSPEC) Started after cooling for ~10 h                D704300100014 
DETECTOR   (HPGE)                                                 D704300100015 
MONITOR    Monitor foils (natCu, natNi, and natTi) were used to   D704300100016 
            measure the beam intensity.                           D704300100017 
MONIT-REF  (,A.Hermanne+,J,NDS,148,338,2018)                      D704300100018 
ERR-ANALYS (EN-ERR) The uncertainty in the proton energy ranges   D704300100019 
            from +/-0.04 to +/-0.25 MeV.                          D704300100020 
           (ERR-T) Total uncertainty: 6.2-13.2%                   D704300100021 
           (ERR-S,1.,11.) Gamma-ray counting              (1-11%) D704300100022 
           (ERR-1) Beam intensity                          (5.2%) D704300100023 
           (ERR-2,3.,4.) Detector efficiency               (3-4%) D704300100024 
           (ERR-3,1.,3.) Sample thickness                  (1-3%) D704300100025 
STATUS     (APRVD) Approved by G.N.Kim (2023-03-08)               D704300100026 
HISTORY    (20230215C) S.C.Yang                                   D704300100027 
ENDBIB              25          0                                 D704300100028 
COMMON               1          3                                 D704300100029 
ERR-1                                                             D704300100030 
PER-CENT                                                          D704300100031 
5.2                                                               D704300100032 
ENDCOMMON            3          0                                 D704300100033 
ENDSUBENT           32          0                                 D704300199999 
SUBENT        D7043002   20230215                             D139D704300200001 
BIB                  4          5                                 D704300200002 
REACTION   (48-CD-0(P,X)49-IN-109,,SIG)                           D704300200003 
DECAY-DATA (49-IN-109-G,4.2HR,DG,203.3,0.742,                     D704300200004 
                              DG,426.25,0.0405)                   D704300200005 
ADD-RES    (TTY-C) the integral yields calculated.                D704300200006 
STATUS     (TABLE) Table 2 of Nucl.Instrum.Meth.B,521,22,2022     D704300200007 
ENDBIB               5          0                                 D704300200008 
NOCOMMON             0          0                                 D704300200009 
DATA                 4         15                                 D704300200010 
EN         EN-ERR     DATA       ERR-T                            D704300200011 
MEV        MEV        MB         MB                               D704300200012 
42.9       0.03       152.0      10.9                             D704300200013 
41.3       0.03       145.9      10.4                             D704300200014 
39.7       0.04       139.0      9.9                              D704300200015 
38.0       0.04       134.3      9.6                              D704300200016 
36.2       0.04       129.1      9.2                              D704300200017 
34.4       0.04       117.1      8.4                              D704300200018 
32.5       0.04       114.5      8.2                              D704300200019 
30.5       0.04       125.7      9.0                              D704300200020 
28.4       0.05       128.5      9.2                              D704300200021 
26.2       0.05       142.0      10.1                             D704300200022 
24.4       0.05       125.0      8.9                              D704300200023 
21.8       0.06       113.3      8.1                              D704300200024 
19.7       0.06       100.3      7.2                              D704300200025 
16.7       0.07       76.3       5.5                              D704300200026 
14.0       0.08       27.7       2.0                              D704300200027 
ENDDATA             17          0                                 D704300200028 
ENDSUBENT           27          0                                 D704300299999 
SUBENT        D7043003   20230215                             D139D704300300001 
BIB                  4          5                                 D704300300002 
REACTION   (48-CD-0(P,X)49-IN-110-G,,SIG)                         D704300300003 
DECAY-DATA (49-IN-110-G,4.9HR,DG,641.68,0.260,                    D704300300004 
                              DG,707.4,0.295)                     D704300300005 
ADD-RES    (TTY-C) the integral yields calculated.                D704300300006 
STATUS     (TABLE) Table 2 of Nucl.Instrum.Meth.B,521,22,2022     D704300300007 
ENDBIB               5          0                                 D704300300008 
NOCOMMON             0          0                                 D704300300009 
DATA                 4         19                                 D704300300010 
EN         EN-ERR     DATA       ERR-T                            D704300300011 
MEV        MEV        MB         MB                               D704300300012 
42.9       0.03       63.        4.5                              D704300300013 
41.3       0.03       72.2       5.2                              D704300300014 
39.7       0.04       61.4       4.4                              D704300300015 
38.0       0.04       77.4       5.5                              D704300300016 
36.2       0.04       83.2       5.9                              D704300300017 
34.4       0.04       82.9       5.9                              D704300300018 
32.5       0.04       78.8       5.6                              D704300300019 
30.5       0.04       74.3       5.3                              D704300300020 
28.4       0.05       63.7       4.5                              D704300300021 
26.2       0.05       53.2       3.8                              D704300300022 
24.4       0.05       38.        2.7                              D704300300023 
21.8       0.06       33.9       2.4                              D704300300024 
19.7       0.06       31.        2.2                              D704300300025 
16.7       0.07       25.5       1.8                              D704300300026 
14.0       0.08       18.6       1.3                              D704300300027 
9.9        0.10       5.8        0.4                              D704300300028 
8.5        0.11       2.9        0.2                              D704300300029 
6.9        0.13       2.6        0.2                              D704300300030 
5.0        0.16       0.8        0.1                              D704300300031 
ENDDATA             21          0                                 D704300300032 
ENDSUBENT           31          0                                 D704300399999 
SUBENT        D7043004   20230215                             D139D704300400001 
BIB                  4          5                                 D704300400002 
REACTION   (48-CD-0(P,X)49-IN-111,,SIG)                           D704300400003 
DECAY-DATA (49-IN-111-G,2.81D,DG,171.28,0.90,                     D704300400004 
                              DG,245.39,0.94)                     D704300400005 
ADD-RES    (TTY-C) the integral yields calculated.                D704300400006 
STATUS     (TABLE) Table 2 of Nucl.Instrum.Meth.B,521,22,2022     D704300400007 
ENDBIB               5          0                                 D704300400008 
NOCOMMON             0          0                                 D704300400009 
DATA                 4         20                                 D704300400010 
EN         EN-ERR     DATA       ERR-T                            D704300400011 
MEV        MEV        MB         MB                               D704300400012 
42.9       0.03       252.4      17.9                             D704300400013 
41.3       0.03       258.7      18.3                             D704300400014 
39.7       0.04       240.3      17.                              D704300400015 
38.0       0.04       245.8      17.4                             D704300400016 
36.2       0.04       237.8      16.8                             D704300400017 
34.4       0.04       213.4      15.1                             D704300400018 
32.5       0.04       192.       13.6                             D704300400019 
30.5       0.04       186.6      13.2                             D704300400020 
28.4       0.05       189.7      13.4                             D704300400021 
26.2       0.05       233.       16.5                             D704300400022 
24.4       0.05       261.7      18.5                             D704300400023 
21.8       0.06       304.6      21.6                             D704300400024 
19.7       0.06       267.9      19.                              D704300400025 
16.7       0.07       237.3      16.8                             D704300400026 
14.0       0.08       183.       13.                              D704300400027 
9.9        0.10       79.6       5.6                              D704300400028 
8.5        0.11       54.8       3.9                              D704300400029 
6.9        0.13       39.6       2.8                              D704300400030 
5.0        0.16       15.9       1.1                              D704300400031 
2.5        0.25       7.7        0.5                              D704300400032 
ENDDATA             22          0                                 D704300400033 
ENDSUBENT           32          0                                 D704300499999 
SUBENT        D7043005   20230215                             D139D704300500001 
BIB                  4          4                                 D704300500002 
REACTION   (48-CD-0(P,X)49-IN-113-M,,SIG)                         D704300500003 
DECAY-DATA (49-IN-113-M,1.658HR,DG,391.69,0.642)                  D704300500004 
ADD-RES    (TTY-C) the integral yields calculated.                D704300500005 
STATUS     (TABLE) Table 2 of Nucl.Instrum.Meth.B,521,22,2022     D704300500006 
ENDBIB               4          0                                 D704300500007 
NOCOMMON             0          0                                 D704300500008 
DATA                 4         20                                 D704300500009 
EN         EN-ERR     DATA       ERR-T                            D704300500010 
MEV        MEV        MB         MB                               D704300500011 
42.9       0.03       9.3        0.8                              D704300500012 
41.3       0.03       10.2       0.8                              D704300500013 
39.7       0.04       12.2       0.9                              D704300500014 
38.0       0.04       12.1       0.9                              D704300500015 
36.2       0.04       12.2       0.9                              D704300500016 
34.4       0.04       11.        0.8                              D704300500017 
32.5       0.04       15.        1.1                              D704300500018 
30.5       0.04       11.6       0.9                              D704300500019 
28.4       0.05       8.9        0.7                              D704300500020 
26.2       0.05       16.        1.2                              D704300500021 
24.4       0.05       24.3       1.8                              D704300500022 
21.8       0.06       44.5       3.2                              D704300500023 
19.7       0.06       55.6       4.                               D704300500024 
16.7       0.07       60.4       4.3                              D704300500025 
14.0       0.08       59.7       4.3                              D704300500026 
9.9        0.10       29.2       2.1                              D704300500027 
8.5        0.11       19.1       1.4                              D704300500028 
6.9        0.13       12.7       0.9                              D704300500029 
5.0        0.16       5.7        0.4                              D704300500030 
2.5        0.25       2.2        0.2                              D704300500031 
ENDDATA             22          0                                 D704300500032 
ENDSUBENT           31          0                                 D704300599999 
SUBENT        D7043006   20230215                             D139D704300600001 
BIB                  4          4                                 D704300600002 
REACTION   (48-CD-0(P,X)49-IN-114-M,,SIG)                         D704300600003 
DECAY-DATA (49-IN-114-M,49.51D,DG,190.29,0.156)                   D704300600004 
ADD-RES    (TTY-C) the integral yields calculated.                D704300600005 
STATUS     (TABLE) Table 2 of Nucl.Instrum.Meth.B,521,22,2022     D704300600006 
ENDBIB               4          0                                 D704300600007 
NOCOMMON             0          0                                 D704300600008 
DATA                 4         20                                 D704300600009 
EN         EN-ERR     DATA       ERR-T                            D704300600010 
MEV        MEV        MB         MB                               D704300600011 
42.9       0.03       17.9       1.3                              D704300600012 
41.3       0.03       20.9       1.5                              D704300600013 
39.7       0.04       16.3       1.2                              D704300600014 
38.0       0.04       24.3       1.7                              D704300600015 
36.2       0.04       28.3       2.0                              D704300600016 
34.4       0.04       35.1       2.5                              D704300600017 
32.5       0.04       44.8       3.2                              D704300600018 
30.5       0.04       58.4       4.1                              D704300600019 
28.4       0.05       63.0       4.5                              D704300600020 
26.2       0.05       61.8       4.4                              D704300600021 
24.4       0.05       50.3       3.6                              D704300600022 
21.8       0.06       39.3       2.8                              D704300600023 
19.7       0.06       19.4       1.4                              D704300600024 
16.7       0.07       16.0       1.1                              D704300600025 
14.0       0.08       31.0       2.2                              D704300600026 
9.9        0.10       48.7       3.5                              D704300600027 
8.5        0.11       56.4       4.0                              D704300600028 
6.9        0.13       32.3       2.3                              D704300600029 
5.0        0.16       11.6       0.8                              D704300600030 
2.5        0.25       4.2        0.3                              D704300600031 
ENDDATA             22          0                                 D704300600032 
ENDSUBENT           31          0                                 D704300699999 
SUBENT        D7043007   20230215                             D139D704300700001 
BIB                  4          4                                 D704300700002 
REACTION   (48-CD-0(P,X)49-IN-115-M,,SIG)                         D704300700003 
DECAY-DATA (49-IN-115-M,4.48HR,DG,336.24,0.459)                   D704300700004 
ADD-RES    (TTY-C) the integral yields calculated.                D704300700005 
STATUS     (TABLE) Table 2 of Nucl.Instrum.Meth.B,521,22,2022     D704300700006 
ENDBIB               4          0                                 D704300700007 
NOCOMMON             0          0                                 D704300700008 
DATA                 4         20                                 D704300700009 
EN         EN-ERR     DATA       ERR-T                            D704300700010 
MEV        MEV        MB         MB                               D704300700011 
42.9       0.03       1.4        0.1                              D704300700012 
41.3       0.03       1.4        0.1                              D704300700013 
39.7       0.04       1.2        0.1                              D704300700014 
38.0       0.04       1.1        0.1                              D704300700015 
36.2       0.04       1.1        0.1                              D704300700016 
34.4       0.04       1.5        0.1                              D704300700017 
32.5       0.04       1.4        0.1                              D704300700018 
30.5       0.04       1.9        0.1                              D704300700019 
28.4       0.05       2.         0.2                              D704300700020 
26.2       0.05       2.7        0.2                              D704300700021 
24.4       0.05       4.         0.3                              D704300700022 
21.8       0.06       8.4        0.6                              D704300700023 
19.7       0.06       14.4       1.                               D704300700024 
16.7       0.07       18.8       1.3                              D704300700025 
14.0       0.08       17.6       1.3                              D704300700026 
9.9        0.10       9.2        0.7                              D704300700027 
8.5        0.11       3.7        0.3                              D704300700028 
6.9        0.13       1.4        0.1                              D704300700029 
5.0        0.16       0.6        0.1                              D704300700030 
2.5        0.25       0.5        0.04                             D704300700031 
ENDDATA             22          0                                 D704300700032 
ENDSUBENT           31          0                                 D704300799999 
SUBENT        D7043008   20230215                             D139D704300800001 
BIB                  4          4                                 D704300800002 
REACTION   (48-CD-0(P,X)48-CD-107,CUM,SIG)                        D704300800003 
DECAY-DATA (48-CD-107,6.50HR,DG,93.1,0.047)                       D704300800004 
ADD-RES    (TTY-C) the integral yields calculated.                D704300800005 
STATUS     (TABLE) Table 3 of Nucl.Instrum.Meth.B,521,22,2022     D704300800006 
ENDBIB               4          0                                 D704300800007 
NOCOMMON             0          0                                 D704300800008 
DATA                 4         15                                 D704300800009 
EN         EN-ERR     DATA       ERR-T                            D704300800010 
MEV        MEV        MB         MB                               D704300800011 
42.9       0.03       43.9       3.1                              D704300800012 
41.3       0.03       26.6       1.9                              D704300800013 
39.7       0.04       22.2       1.6                              D704300800014 
38.0       0.04       14.9       1.1                              D704300800015 
36.2       0.04       7.4        0.6                              D704300800016 
34.4       0.04       3.0        0.2                              D704300800017 
32.5       0.04       4.2        0.3                              D704300800018 
30.5       0.04       4.4        0.3                              D704300800019 
28.4       0.05       4.9        0.4                              D704300800020 
26.2       0.05       5.8        0.4                              D704300800021 
24.4       0.05       5.7        0.4                              D704300800022 
21.8       0.06       7.2        0.5                              D704300800023 
19.7       0.06       5.6        0.4                              D704300800024 
16.7       0.07       2.8        0.2                              D704300800025 
14.0       0.08       0.7        0.1                              D704300800026 
ENDDATA             17          0                                 D704300800027 
ENDSUBENT           26          0                                 D704300899999 
SUBENT        D7043009   20230215                             D139D704300900001 
BIB                  4          4                                 D704300900002 
REACTION   (48-CD-0(P,X)48-CD-109,CUM,SIG)                        D704300900003 
DECAY-DATA (48-CD-109,461.9D,DG,88.03,0.0364)                     D704300900004 
ADD-RES    (TTY-C) the integral yields calculated.                D704300900005 
STATUS     (TABLE) Table 3 of Nucl.Instrum.Meth.B,521,22,2022     D704300900006 
ENDBIB               4          0                                 D704300900007 
NOCOMMON             0          0                                 D704300900008 
DATA                 4         15                                 D704300900009 
EN         EN-ERR     DATA       ERR-T                            D704300900010 
MEV        MEV        MB         MB                               D704300900011 
42.9       0.03       214.8      15.3                             D704300900012 
41.3       0.03       194.8      13.9                             D704300900013 
39.7       0.04       171.2      12.2                             D704300900014 
38.0       0.04       179.       12.7                             D704300900015 
36.2       0.04       161.3      11.5                             D704300900016 
34.4       0.04       143.3      10.2                             D704300900017 
32.5       0.04       140.4      10.                              D704300900018 
30.5       0.04       146.9      10.4                             D704300900019 
28.4       0.05       146.6      10.4                             D704300900020 
26.2       0.05       153.3      10.9                             D704300900021 
24.4       0.05       128.1      9.1                              D704300900022 
21.8       0.06       117.       8.3                              D704300900023 
19.7       0.06       99.1       7.1                              D704300900024 
16.7       0.07       74.2       5.3                              D704300900025 
14.0       0.08       27.5       2.                               D704300900026 
ENDDATA             17          0                                 D704300900027 
ENDSUBENT           26          0                                 D704300999999 
SUBENT        D7043010   20230215                             D139D704301000001 
BIB                  4          5                                 D704301000002 
REACTION   (48-CD-0(P,X)48-CD-115-G,CUM,SIG)                      D704301000003 
DECAY-DATA (48-CD-115-G,2.23D,DG,336.24,0.459,                    D704301000004 
                              DG,527.90,0.2745)                   D704301000005 
ADD-RES    (TTY-C) the integral yields calculated.                D704301000006 
STATUS     (TABLE) Table 3 of Nucl.Instrum.Meth.B,521,22,2022     D704301000007 
ENDBIB               5          0                                 D704301000008 
NOCOMMON             0          0                                 D704301000009 
DATA                 4         20                                 D704301000010 
EN         EN-ERR     DATA       ERR-T                            D704301000011 
MEV        MEV        MB         MB                               D704301000012 
42.9       0.03       8.7        0.6                              D704301000013 
41.3       0.03       8.7        0.6                              D704301000014 
39.7       0.04       8.2        0.6                              D704301000015 
38.0       0.04       8.2        0.6                              D704301000016 
36.2       0.04       8.3        0.6                              D704301000017 
34.4       0.04       7.9        0.6                              D704301000018 
32.5       0.04       8.         0.6                              D704301000019 
30.5       0.04       8.         0.6                              D704301000020 
28.4       0.05       7.5        0.5                              D704301000021 
26.2       0.05       7.1        0.5                              D704301000022 
24.4       0.05       6.3        0.5                              D704301000023 
21.8       0.06       5.7        0.4                              D704301000024 
19.7       0.06       4.9        0.4                              D704301000025 
16.7       0.07       3.         0.2                              D704301000026 
14.0       0.08       1.3        0.1                              D704301000027 
9.9        0.10       0.5        0.04                             D704301000028 
8.5        0.11       0.2        0.02                             D704301000029 
6.9        0.13       0.4        0.04                             D704301000030 
5.0        0.16       0.2        0.02                             D704301000031 
2.5        0.25       0.2        0.02                             D704301000032 
ENDDATA             22          0                                 D704301000033 
ENDSUBENT           32          0                                 D704301099999 
SUBENT        D7043011   20230215                             D139D704301100001 
BIB                  4          5                                 D704301100002 
REACTION   (48-CD-0(P,X)47-AG-105,CUM,SIG)                        D704301100003 
DECAY-DATA (47-AG-105-G,41.29D,DG,280.44,0.302,                   D704301100004 
                               DG,344.52,0.414)                   D704301100005 
ADD-RES    (TTY-C) the integral yields calculated.                D704301100006 
STATUS     (TABLE) Table 3 of Nucl.Instrum.Meth.B,521,22,2022     D704301100007 
ENDBIB               5          0                                 D704301100008 
NOCOMMON             0          0                                 D704301100009 
DATA                 4         15                                 D704301100010 
EN         EN-ERR     DATA       ERR-T                            D704301100011 
MEV        MEV        MB         MB                               D704301100012 
42.9       0.03       20.8       1.5                              D704301100013 
41.3       0.03       16.7       1.2                              D704301100014 
39.7       0.04       16.5       1.2                              D704301100015 
38.0       0.04       14.8       1.1                              D704301100016 
36.2       0.04       13.2       0.9                              D704301100017 
34.4       0.04       11.7       0.8                              D704301100018 
32.5       0.04       11.2       0.8                              D704301100019 
30.5       0.04       11.9       0.8                              D704301100020 
28.4       0.05       11.9       0.8                              D704301100021 
26.2       0.05       12.6       0.9                              D704301100022 
24.4       0.05       11.3       0.8                              D704301100023 
21.8       0.06       11.9       0.8                              D704301100024 
19.7       0.06       9.7        0.7                              D704301100025 
16.7       0.07       4.4        0.3                              D704301100026 
14.0       0.08       1.1        0.1                              D704301100027 
ENDDATA             17          0                                 D704301100028 
ENDSUBENT           27          0                                 D704301199999 
SUBENT        D7043012   20230215                             D139D704301200001 
BIB                  4          7                                 D704301200002 
REACTION   (48-CD-0(P,X)47-AG-106-M,,SIG)                         D704301200003 
DECAY-DATA (47-AG-106-M,8.28D,DG,450.97,0.282,                    D704301200004 
                              DG,616.17,0.216,                    D704301200005 
                              DG,717.24,0.289,                    D704301200006 
                              DG,1045.83,0.296)                   D704301200007 
ADD-RES    (TTY-C) the integral yields calculated.                D704301200008 
STATUS     (TABLE) Table 3 of Nucl.Instrum.Meth.B,521,22,2022     D704301200009 
ENDBIB               7          0                                 D704301200010 
NOCOMMON             0          0                                 D704301200011 
DATA                 4         13                                 D704301200012 
EN         EN-ERR     DATA       ERR-T                            D704301200013 
MEV        MEV        MB         MB                               D704301200014 
42.9       0.03       6.2        0.5                              D704301200015 
41.3       0.03       4.9        0.4                              D704301200016 
39.7       0.04       5.         0.4                              D704301200017 
38.0       0.04       4.4        0.3                              D704301200018 
36.2       0.04       4.2        0.3                              D704301200019 
34.4       0.04       3.7        0.3                              D704301200020 
32.5       0.04       3.3        0.3                              D704301200021 
30.5       0.04       3.         0.2                              D704301200022 
28.4       0.05       2.3        0.2                              D704301200023 
26.2       0.05       1.6        0.1                              D704301200024 
24.4       0.05       1.1        0.1                              D704301200025 
21.8       0.06       0.6        0.1                              D704301200026 
19.7       0.06       0.2        0.03                             D704301200027 
ENDDATA             15          0                                 D704301200028 
ENDSUBENT           27          0                                 D704301299999 
SUBENT        D7043013   20230215                             D139D704301300001 
BIB                  4          7                                 D704301300002 
REACTION   (48-CD-0(P,X)47-AG-110-M,,SIG)                         D704301300003 
DECAY-DATA (47-AG-110-M,249.83D,DG,657.76,0.956,                  D704301300004 
                                DG,763.94,0.226,                  D704301300005 
                                DG,884.70,0.75,                   D704301300006 
                                DG,937.48,0.35)                   D704301300007 
ADD-RES    (TTY-C) the integral yields calculated.                D704301300008 
STATUS     (TABLE) Table 3 of Nucl.Instrum.Meth.B,521,22,2022     D704301300009 
ENDBIB               7          0                                 D704301300010 
NOCOMMON             0          0                                 D704301300011 
DATA                 4         14                                 D704301300012 
EN         EN-ERR     DATA       ERR-T                            D704301300013 
MEV        MEV        MB         MB                               D704301300014 
42.9       0.03       1.7        0.1                              D704301300015 
41.3       0.03       1.5        0.1                              D704301300016 
39.7       0.04       1.3        0.1                              D704301300017 
38.0       0.04       1.3        0.1                              D704301300018 
36.2       0.04       1.2        0.1                              D704301300019 
34.4       0.04       1.2        0.1                              D704301300020 
32.5       0.04       1.1        0.1                              D704301300021 
30.5       0.04       1.5        0.1                              D704301300022 
28.4       0.05       1.3        0.1                              D704301300023 
26.2       0.05       1.2        0.1                              D704301300024 
24.4       0.05       0.8        0.1                              D704301300025 
21.8       0.06       0.4        0.04                             D704301300026 
19.7       0.06       0.23       0.02                             D704301300027 
16.7       0.07       0.17       0.02                             D704301300028 
ENDDATA             16          0                                 D704301300029 
ENDSUBENT           28          0                                 D704301399999 
SUBENT        D7043014   20230215                             D139D704301400001 
BIB                  4          4                                 D704301400002 
REACTION   (48-CD-0(P,X)47-AG-111,,SIG)                           D704301400003 
DECAY-DATA (47-AG-111-G,7.45D,DG,342.1,0.067)                     D704301400004 
ADD-RES    (TTY-C) the integral yields calculated.                D704301400005 
STATUS     (TABLE) Table 3 of Nucl.Instrum.Meth.B,521,22,2022     D704301400006 
ENDBIB               4          0                                 D704301400007 
NOCOMMON             0          0                                 D704301400008 
DATA                 4         16                                 D704301400009 
EN         EN-ERR     DATA       ERR-T                            D704301400010 
MEV        MEV        MB         MB                               D704301400011 
42.9       0.03       1.7        0.2                              D704301400012 
41.3       0.03       1.0        0.1                              D704301400013 
39.7       0.04       1.3        0.1                              D704301400014 
38.0       0.04       0.8        0.1                              D704301400015 
36.2       0.04       1.2        0.1                              D704301400016 
34.4       0.04       1.4        0.2                              D704301400017 
32.5       0.04       1.1        0.1                              D704301400018 
30.5       0.04       0.5        0.1                              D704301400019 
28.4       0.05       0.6        0.1                              D704301400020 
26.2       0.05       0.2        0.1                              D704301400021 
24.4       0.05       0.5        0.1                              D704301400022 
21.8       0.06       0.7        0.1                              D704301400023 
19.7       0.06       1.0        0.1                              D704301400024 
16.7       0.07       1.1        0.1                              D704301400025 
14.0       0.08       0.7        0.1                              D704301400026 
9.9        0.10       0.04       0.002                            D704301400027 
ENDDATA             18          0                                 D704301400028 
ENDSUBENT           27          0                                 D704301499999 
ENDENTRY            14          0                                 D704399999999 
