ENTRY            D7044   20240801                             D143D704400000001 
SUBENT        D7044001   20240801                             D143D704400100001 
BIB                 14         30                                 D704400100002 
TITLE      Production cross sections of radionuclides in the      D704400100003 
           proton induced reactions on natural iron with the      D704400100004 
           proton energy of 57 MeV                                D704400100005 
AUTHOR     (S.C.Yang, S.P.Yoon, T.Y.Song, G.N.Kim)                D704400100006 
INSTITUTE  (3KORKAE,3KORKNU)                                      D704400100007 
REFERENCE  (J,NET,56,1796,2024)                                   D704400100008 
FACILITY   (LINAC,3KORKAE) 100 MeV linac in Korea Multi-purpose   D704400100009 
            Accelerator Complex (KOMAC)                           D704400100010 
SAMPLE     Natural iron (Fe)                                      D704400100011 
           - Purity   : 99.99%                                    D704400100012 
           - Thickness: 102 micro-meter                           D704400100013 
METHOD     (ACTIV) Irradiation for 30 min (100 nA)                D704400100014 
           (STTA) Conventional stacked-foil activation technique  D704400100015 
           (GSPEC) Started after the cooling time of 17 h         D704400100016 
DETECTOR   (HPGE) Energy resolutions of 1.8 keV (FWHM) and        D704400100017 
            relative detection efficiency of 20% at 1.33 MeV peak D704400100018 
            of 60Co                                               D704400100019 
MONITOR    (13-AL-27(P,X)11-NA-24,,SIG)                           D704400100020 
            - Al foil (100 micro-meter thickness)                 D704400100021 
DECAY-MON  (11-NA-24,14.997HR,DG,1368.6,0.999936)                 D704400100022 
MONIT-REF  (,A.Hermanne+,J,NDS,148,338,2018)                      D704400100023 
ERR-ANALYS (ERR-T) Total uncertainty: 8.01-12.92%                 D704400100024 
           (ERR-S,1.17,10.21) Gamma-ray counting statistics       D704400100025 
           (ERR-1) Detection efficiency                   (<3.00%)D704400100026 
           (ERR-2) Decay data                             (<1.71%)D704400100027 
           (ERR-3) Sample thickness                        (0.41%)D704400100028 
           (ERR-4) Beam flux                               (7.32%)D704400100029 
STATUS     (TABLE,,S.C.Yang+,J,NET,56,1796,2024) Table 3          D704400100030 
           (APRVD) Approved by S.C.Yang (2024-08-09)              D704400100031 
HISTORY    (20240801C) S.C.Yang                                   D704400100032 
ENDBIB              30          0                                 D704400100033 
COMMON               4          3                                 D704400100034 
ERR-1      ERR-2      ERR-3      ERR-4                            D704400100035 
PER-CENT   PER-CENT   PER-CENT   PER-CENT                         D704400100036 
3.00       1.71       0.41       7.32                             D704400100037 
ENDCOMMON            3          0                                 D704400100038 
ENDSUBENT           37          0                                 D704400199999 
SUBENT        D7044002   20240801                             D143D704400200001 
BIB                  2          2                                 D704400200002 
REACTION   (26-FE-0(P,X)27-CO-55,,SIG)                            D704400200003 
DECAY-DATA (27-CO-55,17.53HR,DG,931.1,0.75)                       D704400200004 
ENDBIB               2          0                                 D704400200005 
NOCOMMON             0          0                                 D704400200006 
DATA                 4         21                                 D704400200007 
EN         EN-ERR     DATA       ERR-T                            D704400200008 
MEV        MEV        MB         MB                               D704400200009 
52.9       0.3        8.60       0.80                             D704400200010 
52.2       0.3        8.82       0.83                             D704400200011 
49.7       0.3        9.27       0.87                             D704400200012 
49.0       0.3        9.19       0.87                             D704400200013 
46.9       0.4        9.65       0.90                             D704400200014 
46.2       0.4        9.80       0.91                             D704400200015 
44.0       0.4        9.97       0.93                             D704400200016 
43.3       0.4        10.48      0.97                             D704400200017 
40.9       0.4        11.13      1.03                             D704400200018 
40.1       0.4        11.99      1.09                             D704400200019 
37.7       0.4        13.80      1.24                             D704400200020 
36.8       0.4        15.33      1.37                             D704400200021 
34.2       0.4        18.72      1.65                             D704400200022 
33.3       0.5        21.51      1.87                             D704400200023 
30.3       0.5        31.94      2.72                             D704400200024 
29.3       0.5        36.16      3.06                             D704400200025 
26.1       0.6        46.80      3.93                             D704400200026 
25.0       0.6        46.30      3.89                             D704400200027 
21.2       0.6        38.26      3.24                             D704400200028 
19.8       0.7        32.64      2.78                             D704400200029 
16.5       0.9        8.90       0.85                             D704400200030 
ENDDATA             23          0                                 D704400200031 
ENDSUBENT           30          0                                 D704400299999 
SUBENT        D7044003   20240801                             D143D704400300001 
BIB                  2          2                                 D704400300002 
REACTION   (26-FE-0(P,X)27-CO-56,,SIG)                            D704400300003 
DECAY-DATA (27-CO-56,77.236D,DG,846.77,0.999399)                  D704400300004 
ENDBIB               2          0                                 D704400300005 
NOCOMMON             0          0                                 D704400300006 
DATA                 4         23                                 D704400300007 
EN         EN-ERR     DATA       ERR-T                            D704400300008 
MEV        MEV        MB         MB                               D704400300009 
52.9       0.3        15.53      1.52                             D704400300010 
52.2       0.3        16.20      1.57                             D704400300011 
49.7       0.3        15.99      1.56                             D704400300012 
49.0       0.3        15.76      1.55                             D704400300013 
46.9       0.4        17.25      1.65                             D704400300014 
46.2       0.4        17.27      1.66                             D704400300015 
44.0       0.4        18.16      1.73                             D704400300016 
43.3       0.4        18.07      1.73                             D704400300017 
40.9       0.4        17.76      1.71                             D704400300018 
40.1       0.4        18.74      1.78                             D704400300019 
37.7       0.4        18.72      1.78                             D704400300020 
36.8       0.4        21.23      1.96                             D704400300021 
34.2       0.4        21.42      1.99                             D704400300022 
33.3       0.5        22.94      2.10                             D704400300023 
30.3       0.5        24.03      2.13                             D704400300024 
29.3       0.5        25.02      2.22                             D704400300025 
26.1       0.6        30.11      2.61                             D704400300026 
25.0       0.6        33.17      2.86                             D704400300027 
21.2       0.6        53.96      4.51                             D704400300028 
19.8       0.7        68.45      5.61                             D704400300029 
16.5       0.9        164.49     13.23                            D704400300030 
14.8       0.9        225.53     18.07                            D704400300031 
10.4       1.2        231.11     18.51                            D704400300032 
ENDDATA             25          0                                 D704400300033 
ENDSUBENT           32          0                                 D704400399999 
SUBENT        D7044004   20240801                             D143D704400400001 
BIB                  2          2                                 D704400400002 
REACTION   (26-FE-0(P,X)27-CO-57,,SIG)                            D704400400003 
DECAY-DATA (27-CO-57,271.74D,DG,122.06,0.8560)                    D704400400004 
ENDBIB               2          0                                 D704400400005 
NOCOMMON             0          0                                 D704400400006 
DATA                 4         23                                 D704400400007 
EN         EN-ERR     DATA       ERR-T                            D704400400008 
MEV        MEV        MB         MB                               D704400400009 
52.9       0.3        0.71       0.06                             D704400400010 
52.2       0.3        0.62       0.06                             D704400400011 
49.7       0.3        0.63       0.06                             D704400400012 
49.0       0.3        0.79       0.07                             D704400400013 
46.9       0.4        0.79       0.07                             D704400400014 
46.2       0.4        0.85       0.07                             D704400400015 
44.0       0.4        0.68       0.06                             D704400400016 
43.3       0.4        0.61       0.06                             D704400400017 
40.9       0.4        0.76       0.07                             D704400400018 
40.1       0.4        0.78       0.07                             D704400400019 
37.7       0.4        0.53       0.05                             D704400400020 
36.8       0.4        0.78       0.07                             D704400400021 
34.2       0.4        0.74       0.07                             D704400400022 
33.3       0.5        0.94       0.08                             D704400400023 
30.3       0.5        1.30       0.11                             D704400400024 
29.3       0.5        1.08       0.09                             D704400400025 
26.1       0.6        1.94       0.16                             D704400400026 
25.0       0.6        2.05       0.17                             D704400400027 
21.2       0.6        2.93       0.24                             D704400400028 
19.8       0.7        2.79       0.23                             D704400400029 
16.5       0.9        4.51       0.37                             D704400400030 
14.8       0.9        5.73       0.46                             D704400400031 
10.4       1.2        9.65       0.77                             D704400400032 
ENDDATA             25          0                                 D704400400033 
ENDSUBENT           32          0                                 D704400499999 
SUBENT        D7044005   20240801                             D143D704400500001 
BIB                  2          2                                 D704400500002 
REACTION   (26-FE-0(P,X)26-FE-52-G,CUM,SIG)                       D704400500003 
DECAY-DATA (26-FE-52-G,8.275HR,DG,168.688,0.993)                  D704400500004 
ENDBIB               2          0                                 D704400500005 
NOCOMMON             0          0                                 D704400500006 
DATA                 4         15                                 D704400500007 
EN         EN-ERR     DATA       ERR-T                            D704400500008 
MEV        MEV        MB         MB                               D704400500009 
52.9       0.3        1.22       0.10                             D704400500010 
52.2       0.3        1.23       0.10                             D704400500011 
49.7       0.3        1.28       0.11                             D704400500012 
49.0       0.3        1.35       0.11                             D704400500013 
46.9       0.4        1.25       0.10                             D704400500014 
46.2       0.4        1.38       0.12                             D704400500015 
44.0       0.4        1.44       0.12                             D704400500016 
43.3       0.4        1.49       0.13                             D704400500017 
40.9       0.4        1.36       0.12                             D704400500018 
40.1       0.4        1.34       0.11                             D704400500019 
37.7       0.4        1.02       0.09                             D704400500020 
36.8       0.4        0.97       0.08                             D704400500021 
34.2       0.4        0.50       0.05                             D704400500022 
33.3       0.5        0.40       0.04                             D704400500023 
30.3       0.5        0.16       0.02                             D704400500024 
ENDDATA             17          0                                 D704400500025 
ENDSUBENT           24          0                                 D704400599999 
SUBENT        D7044006   20240801                             D143D704400600001 
BIB                  2          2                                 D704400600002 
REACTION   (26-FE-0(P,X)25-MN-52-G,CUM,SIG)                       D704400600003 
DECAY-DATA (25-MN-52-G,5.591D,DG,1434.092,1.00)                   D704400600004 
ENDBIB               2          0                                 D704400600005 
NOCOMMON             0          0                                 D704400600006 
DATA                 4         19                                 D704400600007 
EN         EN-ERR     DATA       ERR-T                            D704400600008 
MEV        MEV        MB         MB                               D704400600009 
52.9       0.3        11.92      1.15                             D704400600010 
52.2       0.3        10.60      1.05                             D704400600011 
49.7       0.3        11.31      1.10                             D704400600012 
49.0       0.3        12.04      1.16                             D704400600013 
46.9       0.4        12.64      1.21                             D704400600014 
46.2       0.4        13.06      1.26                             D704400600015 
44.0       0.4        14.39      1.36                             D704400600016 
43.3       0.4        15.01      1.42                             D704400600017 
40.9       0.4        16.59      1.54                             D704400600018 
40.1       0.4        17.02      1.57                             D704400600019 
37.7       0.4        20.39      1.84                             D704400600020 
36.8       0.4        22.71      2.03                             D704400600021 
34.2       0.4        24.12      2.14                             D704400600022 
33.3       0.5        25.02      2.23                             D704400600023 
30.3       0.5        24.83      2.16                             D704400600024 
29.3       0.5        23.48      2.05                             D704400600025 
26.1       0.6        17.02      1.52                             D704400600026 
25.0       0.6        12.50      1.18                             D704400600027 
21.2       0.6        2.17       0.26                             D704400600028 
ENDDATA             21          0                                 D704400600029 
ENDSUBENT           28          0                                 D704400699999 
SUBENT        D7044007   20240801                             D143D704400700001 
BIB                  2          2                                 D704400700002 
REACTION   (26-FE-0(P,X)25-MN-54,,SIG)                            D704400700003 
DECAY-DATA (25-MN-54,312.2D,DG,834.848,0.99976)                   D704400700004 
ENDBIB               2          0                                 D704400700005 
NOCOMMON             0          0                                 D704400700006 
DATA                 4         19                                 D704400700007 
EN         EN-ERR     DATA       ERR-T                            D704400700008 
MEV        MEV        MB         MB                               D704400700009 
52.9       0.3        115.95     10.34                            D704400700010 
52.2       0.3        124.97     11.00                            D704400700011 
49.7       0.3        130.12     11.46                            D704400700012 
49.0       0.3        132.87     11.68                            D704400700013 
46.9       0.4        144.53     12.58                            D704400700014 
46.2       0.4        145.27     12.67                            D704400700015 
44.0       0.4        156.83     13.59                            D704400700016 
43.3       0.4        162.18     13.99                            D704400700017 
40.9       0.4        168.62     14.47                            D704400700018 
40.1       0.4        156.15     13.53                            D704400700019 
37.7       0.4        148.62     12.89                            D704400700020 
36.8       0.4        139.58     12.22                            D704400700021 
34.2       0.4        101.32     9.20                             D704400700022 
33.3       0.5        90.30      8.30                             D704400700023 
30.3       0.5        42.06      4.17                             D704400700024 
29.3       0.5        30.96      3.19                             D704400700025 
26.1       0.6        3.46       0.31                             D704400700026 
25.0       0.6        2.36       0.22                             D704400700027 
21.2       0.6        1.28       0.13                             D704400700028 
ENDDATA             21          0                                 D704400700029 
ENDSUBENT           28          0                                 D704400799999 
SUBENT        D7044008   20240801                             D143D704400800001 
BIB                  2          2                                 D704400800002 
REACTION   (26-FE-0(P,X)24-CR-51,CUM,SIG)                         D704400800003 
DECAY-DATA (24-CR-51,27.704D,DG,320.0824,0.0991)                  D704400800004 
ENDBIB               2          0                                 D704400800005 
NOCOMMON             0          0                                 D704400800006 
DATA                 4         14                                 D704400800007 
EN         EN-ERR     DATA       ERR-T                            D704400800008 
MEV        MEV        MB         MB                               D704400800009 
52.9       0.3        81.90      7.14                             D704400800010 
52.2       0.3        85.24      7.41                             D704400800011 
49.7       0.3        95.48      8.23                             D704400800012 
49.0       0.3        98.27      8.45                             D704400800013 
46.9       0.4        103.04     8.85                             D704400800014 
46.2       0.4        107.20     9.16                             D704400800015 
44.0       0.4        95.54      8.24                             D704400800016 
43.3       0.4        94.56      8.17                             D704400800017 
40.9       0.4        89.20      7.73                             D704400800018 
40.1       0.4        76.16      6.68                             D704400800019 
37.7       0.4        57.19      5.17                             D704400800020 
36.8       0.4        50.36      4.59                             D704400800021 
34.2       0.4        30.87      3.08                             D704400800022 
33.3       0.5        17.46      1.99                             D704400800023 
ENDDATA             16          0                                 D704400800024 
ENDSUBENT           23          0                                 D704400899999 
SUBENT        D7044009   20240801                             D143D704400900001 
BIB                  2          2                                 D704400900002 
REACTION   (26-FE-0(P,X)23-V-48,CUM,SIG)                          D704400900003 
DECAY-DATA (23-V-48,15.974D,DG,983.525,0.9998)                    D704400900004 
ENDBIB               2          0                                 D704400900005 
NOCOMMON             0          0                                 D704400900006 
DATA                 4          8                                 D704400900007 
EN         EN-ERR     DATA       ERR-T                            D704400900008 
MEV        MEV        MB         MB                               D704400900009 
52.9       0.3        4.80       0.53                             D704400900010 
52.2       0.3        4.68       0.51                             D704400900011 
49.7       0.3        4.56       0.50                             D704400900012 
49.0       0.3        4.35       0.48                             D704400900013 
46.9       0.4        3.20       0.39                             D704400900014 
46.2       0.4        3.08       0.38                             D704400900015 
44.0       0.4        2.35       0.29                             D704400900016 
43.3       0.4        1.96       0.25                             D704400900017 
ENDDATA             10          0                                 D704400900018 
ENDSUBENT           17          0                                 D704400999999 
ENDENTRY             9          0                                 D704499999999 
