ENTRY            M0144   19910205                             0000M014400000001 
SUBENT        M0144001   19910205                             0000M014400100001 
BIB                 14         25                                 M014400100002 
TITLE      DIRECT PHOTOEFFECT ON HEAVY NUCLEI AT SMALL EXCITATION M014400100003 
           ENERGY.                                                M014400100004 
AUTHOR     (G.N.ZATSEPINA,V.V.IGONIN,L.E.LAZAREVA,A.I.LEPESTKIN)  M014400100005 
INSTITUTE  (4CCPLEB,4CCPSGU)                                      M014400100006 
REFERENCE  (B,NRLME,479,62)                                       M014400100007 
METHOD     (REC)                                                  M014400100008 
FACILITY   (SYNCH,4CCPLEB)                                        M014400100009 
DETECTOR   (PLATE).TYPE NIKFI JA-2,THICKNESS=400MU,SIZE=3*5 CM**2.M014400100010 
INC-SOURCE (BRST)                                                 M014400100011 
SAMPLE     DISK OF 2 CM RADIUS (THICKNESS = 3.77 G/CM-SQ AND      M014400100012 
           3.91 G/CM-SQ FOR AU AND BI ACCORDINGLY).               M014400100013 
CORRECTION CORRECTED FOR                                          M014400100014 
            A)VARIATION OF NUCLEAR EMULSION THICKNESS,            M014400100015 
            B)DEPENDENCE OF THE (N,P) CROSS SECTION ON NEUTRON    M014400100016 
              ENERGY,                                             M014400100017 
            C)THE PROBABILITY THAT A PROTON TRACK ENDS IN         M014400100018 
              EMULSION,                                           M014400100019 
            D)BACK-GROUND.                                        M014400100020 
ERR-ANALYS (ERR-S) STATISTICAL ERRORS ARE PRESENTED.              M014400100021 
COMMENT    THE OBTAINED RESULTS INDICATE THE ANISOTROPY OF        M014400100022 
           THE ANGULAR DISTRIBUTIONS.                             M014400100023 
STATUS     (APRVD).BY A.I.LEPESTKIN.                              M014400100024 
HISTORY    (851020C).DATA WERE COMPILED IN SCJAD OF SARATOV STATE M014400100025 
           UNIVERSITY.                                            M014400100026 
           (910202A) CORRECTED BY V.VARLAMOV, V.MCLANE            M014400100027 
ENDBIB              25          0                                 M014400100028 
COMMON               2          3                                 M014400100029 
EN-MAX     E-ERR                                                  M014400100030 
MEV        MEV                                                    M014400100031 
14.        0.25                                                   M014400100032 
ENDCOMMON            3          0                                 M014400100033 
ENDSUBENT           32          0                                 M014400199999 
SUBENT        M0144002   19910205                             0000M014400200001 
BIB                  2          3                                 M014400200002 
REACTION   (83-BI-209(G,X)0-NN-1,,DE,,BRS/REL,EXP)                M014400200003 
ANALYSIS   THE SUM OF NEUTRONS OUTGOING AT THE ANGLES             M014400200004 
            90 AND 270 DEGREES.                                   M014400200005 
ENDBIB               3          0                                 M014400200006 
NOCOMMON             0          0                                 M014400200007 
DATA                 3         11                                 M014400200008 
E          DATA       ERR-S                                       M014400200009 
MEV        ARB-UNITS  ARB-UNITS                                   M014400200010 
1.25       686.9      43.6                                        M014400200011 
1.75       574.3      38.3                                        M014400200012 
2.25       548.3      40.3                                        M014400200013 
2.75       342.2      33.5                                        M014400200014 
3.25       229.6      29.4                                        M014400200015 
3.75       151.2      25.2                                        M014400200016 
4.25       138.8      25.4                                        M014400200017 
4.75       71.9       20.5                                        M014400200018 
5.25       86.5       21.3                                        M014400200019 
5.75       70.8       21.4                                        M014400200020 
6.25       28.4       14.2                                        M014400200021 
ENDDATA             13          0                                 M014400200022 
ENDSUBENT           21          0                                 M014400299999 
SUBENT        M0144003   19910205                             0000M014400300001 
BIB                  2          3                                 M014400300002 
REACTION   (83-BI-209(G,X)0-NN-1,,DE,,BRS/REL,EXP)                M014400300003 
ANALYSIS   THE SUM OF NEUTRONS OUTGOING AT THE ANGLES             M014400300004 
           30 AND 150 DEGREES.                                    M014400300005 
ENDBIB               3          0                                 M014400300006 
NOCOMMON             0          0                                 M014400300007 
DATA                 3         10                                 M014400300008 
E          DATA       ERR-S                                       M014400300009 
MEV        ARB-UNITS  ARB-UNITS                                   M014400300010 
1.25       536.52     44.93                                       M014400300011 
1.75       458.89     42.3                                        M014400300012 
2.25       407.55     41.14                                       M014400300013 
2.75       230.28     31.25                                       M014400300014 
3.25       180.69     28.12                                       M014400300015 
3.75       84.        22.23                                       M014400300016 
4.25       55.52      20.69                                       M014400300017 
4.75       41.06      17.78                                       M014400300018 
5.25       34.61      16.06                                       M014400300019 
5.75       12.88      9.08                                        M014400300020 
ENDDATA             12          0                                 M014400300021 
ENDSUBENT           20          0                                 M014400399999 
SUBENT        M0144004   19910205                             0000M014400400001 
BIB                  2          3                                 M014400400002 
REACTION   (79-AU-197(G,X)0-NN-1,,DE,,BRS/REL,EXP)                M014400400003 
ANALYSIS   THE SUM OF NEUTRONS OUTGOING AT THE ANGLES             M014400400004 
           90 AND 270 DEGREES.                                    M014400400005 
ENDBIB               3          0                                 M014400400006 
NOCOMMON             0          0                                 M014400400007 
DATA                 3          9                                 M014400400008 
E          DATA       ERR-S                                       M014400400009 
MEV        ARB-UNITS  ARB-UNITS                                   M014400400010 
1.25       531.3      30.56                                       M014400400011 
1.75       312.1      23.7                                        M014400400012 
2.25       183.3      19.4                                        M014400400013 
2.75       91.6       14.08                                       M014400400014 
3.25       95.4       15.31                                       M014400400015 
3.75       68.5       14.63                                       M014400400016 
4.25       52.5       12.55                                       M014400400017 
4.75       27.4       10.74                                       M014400400018 
5.25       11.5       6.57                                        M014400400019 
ENDDATA             11          0                                 M014400400020 
ENDSUBENT           19          0                                 M014400499999 
SUBENT        M0144005   19910205                             0000M014400500001 
BIB                  2          3                                 M014400500002 
REACTION   (79-AU-197(G,X)0-NN-1,,DE,,BRS/REL,EXP)                M014400500003 
ANALYSIS   THE SUM OF NEUTRONS OUTGOING AT THE ANGLES             M014400500004 
           30 AND 150 DEGREES.                                    M014400500005 
ENDBIB               3          0                                 M014400500006 
NOCOMMON             0          0                                 M014400500007 
DATA                 3         10                                 M014400500008 
E          DATA       ERR-S                                       M014400500009 
MEV        ARB-UNITS  ARB-UNITS                                   M014400500010 
1.25       398.8      22.                                         M014400500011 
1.75       275.6      18.                                         M014400500012 
2.25       163.8      17.                                         M014400500013 
2.75       102.2      13.                                         M014400500014 
3.25       89.1       13.                                         M014400500015 
3.75       69.8       14.                                         M014400500016 
4.25       37.1       12.                                         M014400500017 
4.75       18.8       9.                                          M014400500018 
5.25       13.4       7.                                          M014400500019 
5.75       8.7        6.                                          M014400500020 
ENDDATA             12          0                                 M014400500021 
ENDSUBENT           20          0                                 M014400599999 
SUBENT        M0144006   19910205                             0000M014400600001 
BIB                  1          1                                 M014400600002 
REACTION   (83-BI-209(G,X)0-NN-1,,DA/DE,,BRS/REL,EXP)             M014400600003 
ENDBIB               1          0                                 M014400600004 
COMMON               1          3                                 M014400600005 
ANG                                                               M014400600006 
ADEG                                                              M014400600007 
90.                                                               M014400600008 
ENDCOMMON            3          0                                 M014400600009 
DATA                 3         11                                 M014400600010 
E          DATA       DATA-ERR                                    M014400600011 
MEV        ARB-UNITS  ARB-UNITS                                   M014400600012 
1.25       457.7      29.1                                        M014400600013 
1.75       380.1      25.3                                        M014400600014 
2.25       364.6      26.8                                        M014400600015 
2.75       227.9      22.24                                       M014400600016 
3.25       153.1      19.6                                        M014400600017 
3.75       98.6       16.4                                        M014400600018 
4.25       92.7       16.9                                        M014400600019 
4.75       48.        13.7                                        M014400600020 
5.25       57.6       14.9                                        M014400600021 
5.75       47.8       14.4                                        M014400600022 
6.25       19.2       9.6                                         M014400600023 
ENDDATA             13          0                                 M014400600024 
ENDSUBENT           23          0                                 M014400699999 
SUBENT        M0144007   19910205                             0000M014400700001 
BIB                  1          1                                 M014400700002 
REACTION   (83-BI-209(G,X)0-NN-1,,DA/DE,,BRS/REL,EXP)             M014400700003 
ENDBIB               1          0                                 M014400700004 
COMMON               1          3                                 M014400700005 
ANG                                                               M014400700006 
ADEG                                                              M014400700007 
30.                                                               M014400700008 
ENDCOMMON            3          0                                 M014400700009 
DATA                 3         11                                 M014400700010 
E          DATA       DATA-ERR                                    M014400700011 
MEV        ARB-UNITS  ARB-UNITS                                   M014400700012 
1.25       357.5      29.91                                       M014400700013 
1.75       303.8      28.02                                       M014400700014 
2.25       271.       28.06                                       M014400700015 
2.75       153.4      21.51                                       M014400700016 
3.25       120.5      18.77                                       M014400700017 
3.75       54.8       14.49                                       M014400700018 
4.25       37.1       13.81                                       M014400700019 
4.75       27.4       11.87                                       M014400700020 
5.25       23.        10.87                                       M014400700021 
5.75       8.7        6.13                                        M014400700022 
6.25       4.8        4.8                                         M014400700023 
ENDDATA             13          0                                 M014400700024 
ENDSUBENT           23          0                                 M014400799999 
SUBENT        M0144008   19910205                             0000M014400800001 
BIB                  1          1                                 M014400800002 
REACTION   (79-AU-197(G,X)0-NN-1,,DA/DE,,BRS/REL,EXP)             M014400800003 
ENDBIB               1          0                                 M014400800004 
COMMON               1          3                                 M014400800005 
ANG                                                               M014400800006 
ADEG                                                              M014400800007 
30.                                                               M014400800008 
ENDCOMMON            3          0                                 M014400800009 
DATA                 3         10                                 M014400800010 
E          DATA       ERR-S                                       M014400800011 
MEV        ARB-UNITS  ARB-UNITS                                   M014400800012 
1.25       430.2      37.                                         M014400800013 
1.75       275.6      27.                                         M014400800014 
2.25       167.7      23.93                                       M014400800015 
2.75       70.3       16.68                                       M014400800016 
3.25       85.3       16.11                                       M014400800017 
3.75       43.8       13.23                                       M014400800018 
4.25       34.        11.8                                        M014400800019 
4.75       17.1       10.05                                       M014400800020 
5.25       7.7        7.6                                         M014400800021 
5.75       4.35       4.31                                        M014400800022 
ENDDATA             12          0                                 M014400800023 
ENDSUBENT           22          0                                 M014400899999 
ENDENTRY             8          0                                 M014499999999 
