ENTRY            C1706   20140418                             C141C170600000001 
SUBENT        C1706001   20140418                             C141C170600100001 
BIB                 10         24                                 C170600100002 
TITLE      Constraint on the astrophysical 18Ne(a,p)21Na          C170600100003 
           reaction rate through a 24Mg(p,t)22Mg measurement      C170600100004 
AUTHOR     (K.Y.Chae,D.W.Bardayan,J.C.Blackmon,K.A.Chipps,        C170600100005 
           R.Hatarik,K.L.Jones,R.L.Kozub,J.F.Liang,C.Matei,       C170600100006 
           B.H.Moazen,C.D.Nesaraja,P.D.O'Malley,S.D.Pain,         C170600100007 
           S.T.Pittman,M.S.Smith)                                 C170600100008 
INSTITUTE  (1USATEN,1USARUT,1USAORL,1USACSM,1USATTU,1USAOAU)      C170600100009 
REFERENCE  (J,PR/C,79,055804,2009)  Main reference                C170600100010 
           (C,2008MACKIN,1,169,2008) Preliminary data             C170600100011 
FACILITY   (VDGT,1USAORL)                                         C170600100012 
SAMPLE     Isotopically enriched (99.9%) 24Mg foils with          C170600100013 
           thickness of 500 mu-g/cm2                              C170600100014 
DETECTOR   (SI)Large area annular silicon detector array          C170600100015 
           SIDAR, configured with 100 mu-m dE detectors           C170600100016 
           backed by 1000-mu-m E detectors arranged in a          C170600100017 
           "lampshade" configuration to cover a large angular     C170600100018 
           range.The angles covered by SIDAR were between 18deg   C170600100019 
           and 48deg for E=41MeV and between 27deg and 69deg      C170600100020 
           for E=41.5 MeV                                         C170600100021 
METHOD     (EDE)                                                  C170600100022 
ERR-ANALYS (ERR-S) Statistical uncertainty                        C170600100023 
HISTORY    (20090626C) Compiled by S.H.                           C170600100024 
           (20100622U) Reference to Mackinac conference added     C170600100025 
           (20140418U) SD: Small correction in Subent 27.         C170600100026 
ENDBIB              24          0                                 C170600100027 
NOCOMMON             0          0                                 C170600100028 
ENDSUBENT           27          0                                 C170600199999 
SUBENT        C1706002   20090626                             C092C170600200001 
BIB                  2          3                                 C170600200002 
REACTION   (12-MG-24(P,T)12-MG-22,PAR,DA,,REL)                    C170600200003 
STATUS     (TABLE) Data presented in fig.4 of the reference sent  C170600200004 
           by author (K.Y.Ch)                                     C170600200005 
ENDBIB               3          0                                 C170600200006 
COMMON               2          3                                 C170600200007 
EN         E-LVL                                                  C170600200008 
MEV        KEV                                                    C170600200009 
41.0       0.0                                                    C170600200010 
ENDCOMMON            3          0                                 C170600200011 
DATA                 3         14                                 C170600200012 
ANG-CM     DATA-CM    ERR-S                                       C170600200013 
ADEG       ARB-UNITS  ARB-UNITS                                   C170600200014 
20.12         4.83E-01   4.46E-03                                 C170600200015 
24.11         1.05E+00   5.82E-03                                 C170600200016 
26.20         1.20E+00   5.88E-03                                 C170600200017 
28.30         1.31E+00   5.84E-03                                 C170600200018 
30.39         1.21E+00   5.33E-03                                 C170600200019 
32.59         1.05E+00   4.78E-03                                 C170600200020 
34.79         9.36E-01   4.31E-03                                 C170600200021 
37.09         6.98E-01   3.56E-03                                 C170600200022 
39.28         3.75E-01   2.54E-03                                 C170600200023 
41.57         3.01E-01   2.21E-03                                 C170600200024 
43.86         1.88E-01   1.69E-03                                 C170600200025 
46.14         1.17E-01   1.30E-03                                 C170600200026 
48.41         9.73E-02   1.23E-03                                 C170600200027 
50.79         1.07E-01   1.41E-03                                 C170600200028 
ENDDATA             16          0                                 C170600200029 
ENDSUBENT           28          0                                 C170600299999 
SUBENT        C1706003   20090626                             C092C170600300001 
BIB                  2          3                                 C170600300002 
REACTION   (12-MG-24(P,T)12-MG-22,PAR,DA,,REL)                    C170600300003 
STATUS     (TABLE) Data presented in fig.4 of the reference sent  C170600300004 
           by author (K.Y.Ch)                                     C170600300005 
ENDBIB               3          0                                 C170600300006 
COMMON               2          3                                 C170600300007 
EN         E-LVL                                                  C170600300008 
MEV        KEV                                                    C170600300009 
41.5       0.0                                                    C170600300010 
ENDCOMMON            3          0                                 C170600300011 
DATA                 3         15                                 C170600300012 
ANG-CM     DATA-CM    ERR-S                                       C170600300013 
ADEG       ARB-UNITS  ARB-UNITS                                   C170600300014 
29.93         1.19E+00   7.09E-03                                 C170600300015 
32.90         6.07E-01   4.73E-03                                 C170600300016 
35.97         8.48E-01   5.27E-03                                 C170600300017 
39.14         5.60E-01   4.06E-03                                 C170600300018 
42.31         3.01E-01   2.84E-03                                 C170600300019 
45.46         1.01E-01   1.58E-03                                 C170600300020 
48.60         9.34E-02   1.47E-03                                 C170600300021 
51.73         1.09E-01   1.54E-03                                 C170600300022 
54.74         1.41E-01   1.71E-03                                 C170600300023 
57.84         1.86E-01   1.92E-03                                 C170600300024 
60.72         2.00E-01   1.97E-03                                 C170600300025 
63.59         1.92E-01   1.91E-03                                 C170600300026 
66.45         1.74E-01   1.81E-03                                 C170600300027 
69.29         1.22E-01   1.60E-03                                 C170600300028 
72.01         1.15E-01   1.73E-03                                 C170600300029 
ENDDATA             17          0                                 C170600300030 
ENDSUBENT           29          0                                 C170600399999 
SUBENT        C1706004   20090626                             C092C170600400001 
BIB                  2          3                                 C170600400002 
REACTION   (12-MG-24(P,T)12-MG-22,PAR,DA,,REL)                    C170600400003 
STATUS     (TABLE) Data presented in fig.4 of the reference sent  C170600400004 
           by author (K.Y.Ch)                                     C170600400005 
ENDBIB               3          0                                 C170600400006 
COMMON               2          3                                 C170600400007 
EN         E-LVL                                                  C170600400008 
MEV        KEV                                                    C170600400009 
41.0       3308.0                                                 C170600400010 
ENDCOMMON            3          0                                 C170600400011 
DATA                 3         13                                 C170600400012 
ANG-CM     DATA-CM    ERR-S                                       C170600400013 
ADEG       ARB-UNITS  ARB-UNITS                                   C170600400014 
20.33         4.91E-02   1.42E-03                                 C170600400015 
24.36         4.16E-02   1.16E-03                                 C170600400016 
26.48         4.84E-02   1.18E-03                                 C170600400017 
28.60         4.60E-02   1.10E-03                                 C170600400018 
30.71         5.05E-02   1.09E-03                                 C170600400019 
32.93         4.89E-02   1.03E-03                                 C170600400020 
35.15         4.73E-02   9.67E-04                                 C170600400021 
37.47         4.64E-02   9.19E-04                                 C170600400022 
39.68         4.46E-02   8.75E-04                                 C170600400023 
41.99         4.62E-02   8.65E-04                                 C170600400024 
46.60         3.69E-02   7.27E-04                                 C170600400025 
48.89         3.11E-02   6.93E-04                                 C170600400026 
53.56         2.65E-02   7.03E-04                                 C170600400027 
ENDDATA             15          0                                 C170600400028 
ENDSUBENT           27          0                                 C170600499999 
SUBENT        C1706005   20090626                             C092C170600500001 
BIB                  2          3                                 C170600500002 
REACTION   (12-MG-24(P,T)12-MG-22,PAR,DA,,REL)                    C170600500003 
STATUS     (TABLE) Data presented in fig.4 of the reference sent  C170600500004 
           by author (K.Y.Ch)                                     C170600500005 
ENDBIB               3          0                                 C170600500006 
COMMON               2          3                                 C170600500007 
EN         E-LVL                                                  C170600500008 
MEV        KEV                                                    C170600500009 
41.5       3308.0                                                 C170600500010 
ENDCOMMON            3          0                                 C170600500011 
DATA                 3         15                                 C170600500012 
ANG-CM     DATA-CM    ERR-S                                       C170600500013 
ADEG       ARB-UNITS  ARB-UNITS                                   C170600500014 
30.26         4.63E-02   1.40E-03                                 C170600500015 
33.26         5.04E-02   1.36E-03                                 C170600500016 
36.36         4.98E-02   1.28E-03                                 C170600500017 
39.57         4.80E-02   1.19E-03                                 C170600500018 
42.76         4.54E-02   1.10E-03                                 C170600500019 
45.94         3.85E-02   9.76E-04                                 C170600500020 
49.11         3.10E-02   8.46E-04                                 C170600500021 
52.26         2.68E-02   7.64E-04                                 C170600500022 
55.30         2.29E-02   6.89E-04                                 C170600500023 
58.43         2.29E-02   6.75E-04                                 C170600500024 
61.32         2.44E-02   6.87E-04                                 C170600500025 
64.21         2.29E-02   6.58E-04                                 C170600500026 
67.08         2.18E-02   6.39E-04                                 C170600500027 
69.94         1.90E-02   6.32E-04                                 C170600500028 
72.68         1.42E-02   6.07E-04                                 C170600500029 
ENDDATA             17          0                                 C170600500030 
ENDSUBENT           29          0                                 C170600599999 
SUBENT        C1706006   20090626                             C092C170600600001 
BIB                  2          3                                 C170600600002 
REACTION   (12-MG-24(P,T)12-MG-22,PAR,DA,,REL)                    C170600600003 
STATUS     (TABLE) Data presented in fig.4 of the reference sent  C170600600004 
           by author (K.Y.Ch)                                     C170600600005 
ENDBIB               3          0                                 C170600600006 
COMMON               2          3                                 C170600600007 
EN         E-LVL                                                  C170600600008 
MEV        KEV                                                    C170600600009 
41.0       4402.0                                                 C170600600010 
ENDCOMMON            3          0                                 C170600600011 
DATA                 3         13                                 C170600600012 
ANG-CM     DATA-CM    ERR-S                                       C170600600013 
ADEG       ARB-UNITS  ARB-UNITS                                   C170600600014 
20.42         7.94E-02   1.81E-03                                 C170600600015 
24.46         5.94E-02   1.39E-03                                 C170600600016 
26.59         5.68E-02   1.28E-03                                 C170600600017 
28.72         4.61E-02   1.10E-03                                 C170600600018 
30.84         3.70E-02   9.33E-04                                 C170600600019 
33.07         3.54E-02   8.77E-04                                 C170600600020 
35.29         2.74E-02   7.37E-04                                 C170600600021 
37.62         3.37E-02   7.82E-04                                 C170600600022 
39.84         3.45E-02   7.69E-04                                 C170600600023 
42.16         3.87E-02   7.92E-04                                 C170600600024 
46.78         4.42E-02   7.97E-04                                 C170600600025 
49.08         3.95E-02   7.81E-04                                 C170600600026 
51.49         4.08E-02   8.73E-04                                 C170600600027 
ENDDATA             15          0                                 C170600600028 
ENDSUBENT           27          0                                 C170600699999 
SUBENT        C1706007   20090626                             C092C170600700001 
BIB                  2          3                                 C170600700002 
REACTION   (12-MG-24(P,T)12-MG-22,PAR,DA,,REL)                    C170600700003 
STATUS     (TABLE) Data presented in fig.4 of the reference sent  C170600700004 
           by author (K.Y.Ch)                                     C170600700005 
ENDBIB               3          0                                 C170600700006 
COMMON               2          3                                 C170600700007 
EN         E-LVL                                                  C170600700008 
MEV        KEV                                                    C170600700009 
41.5       4402.0                                                 C170600700010 
ENDCOMMON            3          0                                 C170600700011 
DATA                 3         15                                 C170600700012 
ANG-CM     DATA-CM    ERR-S                                       C170600700013 
ADEG       ARB-UNITS  ARB-UNITS                                   C170600700014 
30.39         3.96E-02   1.29E-03                                 C170600700015 
33.40         3.08E-02   1.06E-03                                 C170600700016 
36.51         2.49E-02   9.03E-04                                 C170600700017 
39.73         3.04E-02   9.46E-04                                 C170600700018 
42.93         3.19E-02   9.25E-04                                 C170600700019 
46.12         4.05E-02   1.00E-03                                 C170600700020 
49.30         4.50E-02   1.02E-03                                 C170600700021 
52.47         4.15E-02   9.51E-04                                 C170600700022 
55.51         3.86E-02   8.94E-04                                 C170600700023 
58.65         3.38E-02   8.21E-04                                 C170600700024 
61.56         2.54E-02   7.01E-04                                 C170600700025 
64.45         1.78E-02   5.81E-04                                 C170600700026 
67.33         1.03E-02   4.39E-04                                 C170600700027 
70.19         9.97E-03   4.58E-04                                 C170600700028 
72.94         8.71E-03   4.75E-04                                 C170600700029 
ENDDATA             17          0                                 C170600700030 
ENDSUBENT           29          0                                 C170600799999 
SUBENT        C1706008   20090626                             C092C170600800001 
BIB                  2          3                                 C170600800002 
REACTION   (12-MG-24(P,T)12-MG-22,PAR,DA,,REL)                    C170600800003 
STATUS     (TABLE) Data presented in fig.4 of the reference sent  C170600800004 
           by author (K.Y.Ch)                                     C170600800005 
ENDBIB               3          0                                 C170600800006 
COMMON               2          3                                 C170600800007 
EN         E-LVL                                                  C170600800008 
MEV        KEV                                                    C170600800009 
41.0       5035.0                                                 C170600800010 
ENDCOMMON            3          0                                 C170600800011 
DATA                 3         13                                 C170600800012 
ANG-CM     DATA-CM    ERR-S                                       C170600800013 
ADEG       ARB-UNITS  ARB-UNITS                                   C170600800014 
20.48         5.76E-02   1.54E-03                                 C170600800015 
24.53         5.61E-02   1.35E-03                                 C170600800016 
26.66         5.30E-02   1.24E-03                                 C170600800017 
28.79         4.61E-02   1.10E-03                                 C170600800018 
30.92         4.16E-02   9.89E-04                                 C170600800019 
33.15         3.71E-02   8.99E-04                                 C170600800020 
35.39         3.14E-02   7.89E-04                                 C170600800021 
37.72         3.28E-02   7.72E-04                                 C170600800022 
39.94         3.27E-02   7.48E-04                                 C170600800023 
42.27         3.15E-02   7.14E-04                                 C170600800024 
46.90         3.14E-02   6.71E-04                                 C170600800025 
49.21         2.90E-02   6.69E-04                                 C170600800026 
51.61         2.35E-02   6.62E-04                                 C170600800027 
ENDDATA             15          0                                 C170600800028 
ENDSUBENT           27          0                                 C170600899999 
SUBENT        C1706009   20090626                             C092C170600900001 
BIB                  2          3                                 C170600900002 
REACTION   (12-MG-24(P,T)12-MG-22,PAR,DA,,REL)                    C170600900003 
STATUS     (TABLE) Data presented in fig.4 of the reference sent  C170600900004 
           by author (K.Y.Ch)                                     C170600900005 
ENDBIB               3          0                                 C170600900006 
COMMON               2          3                                 C170600900007 
EN         E-LVL                                                  C170600900008 
MEV        KEV                                                    C170600900009 
41.5       5035.0                                                 C170600900010 
ENDCOMMON            3          0                                 C170600900011 
DATA                 3         15                                 C170600900012 
ANG-CM     DATA-CM    ERR-S                                       C170600900013 
ADEG       ARB-UNITS  ARB-UNITS                                   C170600900014 
30.47         3.80E-02   1.26E-03                                 C170600900015 
33.49         3.11E-02   1.07E-03                                 C170600900016 
36.61         2.92E-02   9.77E-04                                 C170600900017 
39.83         3.16E-02   9.65E-04                                 C170600900018 
43.04         3.04E-02   9.03E-04                                 C170600900019 
46.24         2.96E-02   8.55E-04                                 C170600900020 
49.43         3.00E-02   8.33E-04                                 C170600900021 
52.60         2.73E-02   7.70E-04                                 C170600900022 
55.65         2.19E-02   6.73E-04                                 C170600900023 
58.79         1.80E-02   5.98E-04                                 C170600900024 
61.70         1.53E-02   5.44E-04                                 C170600900025 
64.60         1.23E-02   4.83E-04                                 C170600900026 
67.49         1.12E-02   4.59E-04                                 C170600900027 
70.35         1.07E-02   4.75E-04                                 C170600900028 
73.10         1.00E-02   5.10E-04                                 C170600900029 
ENDDATA             17          0                                 C170600900030 
ENDSUBENT           29          0                                 C170600999999 
SUBENT        C1706010   20090626                             C092C170601000001 
BIB                  2          3                                 C170601000002 
REACTION   (12-MG-24(P,T)12-MG-22,PAR,DA,,REL)                    C170601000003 
STATUS     (TABLE) Data presented in fig.4 of the reference sent  C170601000004 
           by author (K.Y.Ch)                                     C170601000005 
ENDBIB               3          0                                 C170601000006 
COMMON               2          3                                 C170601000007 
EN         E-LVL                                                  C170601000008 
MEV        KEV                                                    C170601000009 
41.0       6045.0                                                 C170601000010 
ENDCOMMON            3          0                                 C170601000011 
DATA                 3         13                                 C170601000012 
ANG-CM     DATA-CM    ERR-S                                       C170601000013 
ADEG       ARB-UNITS  ARB-UNITS                                   C170601000014 
20.57         2.78E-02   1.55E-03                                 C170601000015 
24.64         9.22E-02   2.48E-03                                 C170601000016 
26.79         1.03E-01   2.49E-03                                 C170601000017 
28.93         1.08E-01   2.42E-03                                 C170601000018 
31.06         9.80E-02   2.19E-03                                 C170601000019 
33.31         8.77E-02   1.99E-03                                 C170601000020 
35.55         8.76E-02   1.91E-03                                 C170601000021 
37.89         7.93E-02   1.73E-03                                 C170601000022 
40.12         6.31E-02   1.51E-03                                 C170601000023 
42.46         4.72E-02   1.26E-03                                 C170601000024 
47.11         3.29E-02   1.00E-03                                 C170601000025 
49.42         3.36E-02   1.04E-03                                 C170601000026 
51.84         3.00E-02   1.08E-03                                 C170601000027 
ENDDATA             15          0                                 C170601000028 
ENDSUBENT           27          0                                 C170601099999 
SUBENT        C1706011   20090626                             C092C170601100001 
BIB                  2          3                                 C170601100002 
REACTION   (12-MG-24(P,T)12-MG-22,PAR,DA,,REL)                    C170601100003 
STATUS     (TABLE) Data presented in fig.4 of the reference sent  C170601100004 
           by author (K.Y.Ch)                                     C170601100005 
ENDBIB               3          0                                 C170601100006 
COMMON               2          3                                 C170601100007 
EN         E-LVL                                                  C170601100008 
MEV        KEV                                                    C170601100009 
41.5       6045.0                                                 C170601100010 
ENDCOMMON            3          0                                 C170601100011 
DATA                 3         15                                 C170601100012 
ANG-CM     DATA-CM    ERR-S                                       C170601100013 
ADEG       ARB-UNITS  ARB-UNITS                                   C170601100014 
30.61         1.00E-01   2.94E-03                                 C170601100015 
33.64         9.26E-02   2.65E-03                                 C170601100016 
36.78         8.38E-02   2.41E-03                                 C170601100017 
40.01         7.03E-02   2.07E-03                                 C170601100018 
43.24         5.22E-02   1.71E-03                                 C170601100019 
46.45         4.05E-02   1.45E-03                                 C170601100020 
49.64         3.54E-02   1.30E-03                                 C170601100021 
52.83         3.19E-02   1.20E-03                                 C170601100022 
55.89         3.09E-02   1.16E-03                                 C170601100023 
59.04         3.61E-02   1.23E-03                                 C170601100024 
61.96         3.61E-02   1.20E-03                                 C170601100025 
64.87         2.98E-02   1.10E-03                                 C170601100026 
67.76         2.36E-02   9.56E-04                                 C170601100027 
70.63         1.90E-02   9.12E-04                                 C170601100028 
73.39         1.37E-02   8.42E-04                                 C170601100029 
ENDDATA             17          0                                 C170601100030 
ENDSUBENT           29          0                                 C170601199999 
SUBENT        C1706012   20090626                             C092C170601200001 
BIB                  2          3                                 C170601200002 
REACTION   (12-MG-24(P,T)12-MG-22,PAR,DA,,REL)                    C170601200003 
STATUS     (TABLE) Data presented in fig.4 of the reference sent  C170601200004 
           by author (K.Y.Ch)                                     C170601200005 
ENDBIB               3          0                                 C170601200006 
COMMON               2          3                                 C170601200007 
EN         E-LVL                                                  C170601200008 
MEV        KEV                                                    C170601200009 
41.0       7967.0                                                 C170601200010 
ENDCOMMON            3          0                                 C170601200011 
DATA                 3         13                                 C170601200012 
ANG-CM     DATA-CM    ERR-S                                       C170601200013 
ADEG       ARB-UNITS  ARB-UNITS                                   C170601200014 
20.77         1.38E-02   1.29E-03                                 C170601200015 
24.88         1.35E-02   1.06E-03                                 C170601200016 
27.05         1.11E-02   1.01E-03                                 C170601200017 
29.21         1.25E-02   9.77E-04                                 C170601200018 
31.36         1.05E-02   8.15E-04                                 C170601200019 
33.63         9.14E-03   7.50E-04                                 C170601200020 
35.89         8.42E-03   6.91E-04                                 C170601200021 
38.25         1.00E-02   6.96E-04                                 C170601200022 
40.50         7.78E-03   6.29E-04                                 C170601200023 
42.86         9.61E-03   6.56E-04                                 C170601200024 
47.54         7.30E-03   5.51E-04                                 C170601200025 
49.88         7.29E-03   5.69E-04                                 C170601200026 
52.31         7.60E-03   6.18E-04                                 C170601200027 
ENDDATA             15          0                                 C170601200028 
ENDSUBENT           27          0                                 C170601299999 
SUBENT        C1706013   20090626                             C092C170601300001 
BIB                  2          3                                 C170601300002 
REACTION   (12-MG-24(P,T)12-MG-22,PAR,DA,,REL)                    C170601300003 
STATUS     (TABLE) Data presented in fig.4 of the reference sent  C170601300004 
           by author (K.Y.Ch)                                     C170601300005 
ENDBIB               3          0                                 C170601300006 
COMMON               2          3                                 C170601300007 
EN         E-LVL                                                  C170601300008 
MEV        KEV                                                    C170601300009 
41.5       7967.0                                                 C170601300010 
ENDCOMMON            3          0                                 C170601300011 
DATA                 3         15                                 C170601300012 
ANG-CM     DATA-CM    ERR-S                                       C170601300013 
ADEG       ARB-UNITS  ARB-UNITS                                   C170601300014 
30.91         1.01E-02   1.12E-03                                 C170601300015 
33.97         8.51E-03   9.05E-04                                 C170601300016 
37.13         7.56E-03   8.35E-04                                 C170601300017 
40.39         8.86E-03   8.00E-04                                 C170601300018 
43.64         7.97E-03   7.54E-04                                 C170601300019 
46.88         9.05E-03   7.38E-04                                 C170601300020 
50.10         8.79E-03   8.61E-04                                 C170601300021 
53.30         9.09E-03   7.32E-04                                 C170601300022 
56.39         8.39E-03   7.02E-04                                 C170601300023 
59.56         7.70E-03   6.61E-04                                 C170601300024 
62.50         5.60E-03   6.46E-04                                 C170601300025 
65.42         5.35E-03   5.90E-04                                 C170601300026 
68.33         3.99E-03   5.21E-04                                 C170601300027 
71.22         3.86E-03   5.23E-04                                 C170601300028 
73.99         2.65E-03   3.70E-04                                 C170601300029 
ENDDATA             17          0                                 C170601300030 
ENDSUBENT           29          0                                 C170601399999 
SUBENT        C1706014   20090626                             C092C170601400001 
BIB                  2          3                                 C170601400002 
REACTION   (12-MG-24(P,T)12-MG-22,PAR,DA,,REL)                    C170601400003 
STATUS     (TABLE) Data presented in fig.4 of the reference sent  C170601400004 
           by author (K.Y.Ch)                                     C170601400005 
ENDBIB               3          0                                 C170601400006 
COMMON               2          3                                 C170601400007 
EN         E-LVL                                                  C170601400008 
MEV        KEV                                                    C170601400009 
41.0       8495.0                                                 C170601400010 
ENDCOMMON            3          0                                 C170601400011 
DATA                 3         13                                 C170601400012 
ANG-CM     DATA-CM    ERR-S                                       C170601400013 
ADEG       ARB-UNITS  ARB-UNITS                                   C170601400014 
20.85         3.58E-02   2.00E-03                                 C170601400015 
24.98         3.81E-02   1.81E-03                                 C170601400016 
27.15         3.13E-02   1.66E-03                                 C170601400017 
29.31         2.74E-02   1.61E-03                                 C170601400018 
31.48         2.59E-02   1.44E-03                                 C170601400019 
33.75         2.37E-02   1.38E-03                                 C170601400020 
36.02         1.85E-02   1.21E-03                                 C170601400021 
38.39         2.04E-02   1.10E-03                                 C170601400022 
40.65         1.74E-02   1.02E-03                                 C170601400023 
43.01         1.88E-02   1.11E-03                                 C170601400024 
47.71         1.72E-02   9.27E-04                                 C170601400025 
50.05         1.62E-02   8.58E-04                                 C170601400026 
52.49         1.79E-02   9.47E-04                                 C170601400027 
ENDDATA             15          0                                 C170601400028 
ENDSUBENT           27          0                                 C170601499999 
SUBENT        C1706015   20090626                             C092C170601500001 
BIB                  2          3                                 C170601500002 
REACTION   (12-MG-24(P,T)12-MG-22,PAR,DA,,REL)                    C170601500003 
STATUS     (TABLE) Data presented in fig.4 of the reference sent  C170601500004 
           by author (K.Y.Ch)                                     C170601500005 
ENDBIB               3          0                                 C170601500006 
COMMON               2          3                                 C170601500007 
EN         E-LVL                                                  C170601500008 
MEV        KEV                                                    C170601500009 
41.5       8495.0                                                 C170601500010 
ENDCOMMON            3          0                                 C170601500011 
DATA                 3         15                                 C170601500012 
ANG-CM     DATA-CM    ERR-S                                       C170601500013 
ADEG       ARB-UNITS  ARB-UNITS                                   C170601500014 
31.02         2.33E-02   1.66E-03                                 C170601500015 
34.09         2.13E-02   1.58E-03                                 C170601500016 
37.26         2.51E-02   1.59E-03                                 C170601500017 
40.54         2.12E-02   1.38E-03                                 C170601500018 
43.80         1.76E-02   1.36E-03                                 C170601500019 
47.04         1.98E-02   1.46E-03                                 C170601500020 
50.27         1.59E-02   1.30E-03                                 C170601500021 
53.49         1.92E-02   1.13E-03                                 C170601500022 
56.58         1.61E-02   1.06E-03                                 C170601500023 
59.76         1.68E-02   1.08E-03                                 C170601500024 
62.71         1.64E-02   9.79E-04                                 C170601500025 
65.64         1.90E-05   2.68E-05                                 C170601500026 
68.55         2.81E-05   3.25E-05                                 C170601500027 
71.45         9.90E-03   7.44E-04                                 C170601500028 
74.22         7.04E-03   7.17E-04                                 C170601500029 
ENDDATA             17          0                                 C170601500030 
ENDSUBENT           29          0                                 C170601599999 
SUBENT        C1706016   20090626                             C092C170601600001 
BIB                  2          3                                 C170601600002 
REACTION   (12-MG-24(P,T)12-MG-22,PAR,DA,,REL)                    C170601600003 
STATUS     (TABLE) Data presented in fig.4 of the reference sent  C170601600004 
           by author (K.Y.Ch)                                     C170601600005 
ENDBIB               3          0                                 C170601600006 
COMMON               2          3                                 C170601600007 
EN         E-LVL                                                  C170601600008 
MEV        KEV                                                    C170601600009 
41.0       9544.0                                                 C170601600010 
ENDCOMMON            3          0                                 C170601600011 
DATA                 3          7                                 C170601600012 
ANG-CM     DATA-CM    ERR-S                                       C170601600013 
ADEG       ARB-UNITS  ARB-UNITS                                   C170601600014 
21.02         6.64E-03   1.48E-03                                 C170601600015 
25.17         6.12E-03   7.18E-04                                 C170601600016 
29.54         5.67E-03   9.56E-04                                 C170601600017 
31.72         4.75E-03   1.53E-03                                 C170601600018 
34.01         5.66E-03   7.72E-04                                 C170601600019 
38.68         6.19E-03   7.53E-04                                 C170601600020 
43.33         7.83E-03   8.52E-04                                 C170601600021 
ENDDATA              9          0                                 C170601600022 
ENDSUBENT           21          0                                 C170601699999 
SUBENT        C1706017   20090626                             C092C170601700001 
BIB                  2          3                                 C170601700002 
REACTION   (12-MG-24(P,T)12-MG-22,PAR,DA,,REL)                    C170601700003 
STATUS     (TABLE) Data presented in fig.4 of the reference sent  C170601700004 
           by author (K.Y.Ch)                                     C170601700005 
ENDBIB               3          0                                 C170601700006 
COMMON               2          3                                 C170601700007 
EN         E-LVL                                                  C170601700008 
MEV        KEV                                                    C170601700009 
41.5       9544.0                                                 C170601700010 
ENDCOMMON            3          0                                 C170601700011 
DATA                 3          9                                 C170601700012 
ANG-CM     DATA-CM    ERR-S                                       C170601700013 
ADEG       ARB-UNITS  ARB-UNITS                                   C170601700014 
31.26         4.67E-03   9.05E-04                                 C170601700015 
34.35         4.57E-03   7.97E-04                                 C170601700016 
37.55         5.15E-03   8.18E-04                                 C170601700017 
40.84         7.77E-03   9.75E-04                                 C170601700018 
44.12         7.16E-03   8.48E-04                                 C170601700019 
47.39         5.76E-03   1.02E-03                                 C170601700020 
50.64         5.56E-03   1.21E-03                                 C170601700021 
60.18         3.19E-03   6.24E-04                                 C170601700022 
63.14         2.71E-03   4.66E-04                                 C170601700023 
ENDDATA             11          0                                 C170601700024 
ENDSUBENT           23          0                                 C170601799999 
SUBENT        C1706018   20090626                             C092C170601800001 
BIB                  2          3                                 C170601800002 
REACTION   (12-MG-24(P,T)12-MG-22,PAR,DA,,REL)                    C170601800003 
STATUS     (TABLE) Data presented in fig.4 of the reference sent  C170601800004 
           by author (K.Y.Ch)                                     C170601800005 
ENDBIB               3          0                                 C170601800006 
COMMON               2          3                                 C170601800007 
EN         E-LVL                                                  C170601800008 
MEV        KEV                                                    C170601800009 
41.0       9773.0                                                 C170601800010 
ENDCOMMON            3          0                                 C170601800011 
DATA                 3          9                                 C170601800012 
ANG-CM     DATA-CM    ERR-S                                       C170601800013 
ADEG       ARB-UNITS  ARB-UNITS                                   C170601800014 
25.23         8.93E-03   1.07E-03                                 C170601800015 
27.42         6.86E-03   8.95E-04                                 C170601800016 
29.61         8.25E-03   9.13E-04                                 C170601800017 
31.80         7.46E-03   8.75E-04                                 C170601800018 
34.09         7.12E-03   9.29E-04                                 C170601800019 
36.38         7.29E-03   8.75E-04                                 C170601800020 
38.77         8.18E-03   7.09E-04                                 C170601800021 
43.43         7.40E-03   7.99E-04                                 C170601800022 
48.17         7.84E-03   6.74E-04                                 C170601800023 
ENDDATA             11          0                                 C170601800024 
ENDSUBENT           23          0                                 C170601899999 
SUBENT        C1706019   20090626                             C092C170601900001 
BIB                  2          3                                 C170601900002 
REACTION   (12-MG-24(P,T)12-MG-22,PAR,DA,,REL)                    C170601900003 
STATUS     (TABLE) Data presented in fig.4 of the reference sent  C170601900004 
           by author (K.Y.Ch)                                     C170601900005 
ENDBIB               3          0                                 C170601900006 
COMMON               2          3                                 C170601900007 
EN         E-LVL                                                  C170601900008 
MEV        KEV                                                    C170601900009 
41.5       9773.0                                                 C170601900010 
ENDCOMMON            3          0                                 C170601900011 
DATA                 3          7                                 C170601900012 
ANG-CM     DATA-CM    ERR-S                                       C170601900013 
ADEG       ARB-UNITS  ARB-UNITS                                   C170601900014 
31.34         8.62E-03   1.22E-03                                 C170601900015 
34.43         7.66E-03   1.54E-03                                 C170601900016 
37.63         8.63E-03   1.30E-03                                 C170601900017 
40.94         7.57E-03   1.03E-03                                 C170601900018 
44.22         7.99E-03   1.28E-03                                 C170601900019 
54.00         6.37E-03   7.28E-04                                 C170601900020 
57.11         4.76E-03   7.67E-04                                 C170601900021 
ENDDATA              9          0                                 C170601900022 
ENDSUBENT           21          0                                 C170601999999 
SUBENT        C1706020   20090626                             C092C170602000001 
BIB                  2          3                                 C170602000002 
REACTION   (12-MG-24(P,T)12-MG-22,PAR,DA,,REL)                    C170602000003 
STATUS     (TABLE) Data presented in fig.4 of the reference sent  C170602000004 
           by author (K.Y.Ch)                                     C170602000005 
ENDBIB               3          0                                 C170602000006 
COMMON               2          3                                 C170602000007 
EN         E-LVL                                                  C170602000008 
MEV        KEV                                                    C170602000009 
41.0       10414.0                                                C170602000010 
ENDCOMMON            3          0                                 C170602000011 
DATA                 3         12                                 C170602000012 
ANG-CM     DATA-CM    ERR-S                                       C170602000013 
ADEG       ARB-UNITS  ARB-UNITS                                   C170602000014 
21.02         9.28E-03   1.37E-03                                 C170602000015 
25.17         7.57E-03   1.01E-03                                 C170602000016 
27.36         6.23E-03   9.42E-04                                 C170602000017 
29.54         5.01E-03   9.71E-04                                 C170602000018 
31.72         5.46E-03   9.84E-04                                 C170602000019 
34.01         7.18E-03   9.20E-04                                 C170602000020 
36.29         7.84E-03   8.54E-04                                 C170602000021 
38.68         7.69E-03   8.07E-04                                 C170602000022 
40.96         7.01E-03   8.70E-04                                 C170602000023 
43.33         8.78E-03   9.02E-04                                 C170602000024 
48.06         8.63E-03   6.52E-04                                 C170602000025 
50.42         7.96E-03   7.31E-04                                 C170602000026 
ENDDATA             14          0                                 C170602000027 
ENDSUBENT           26          0                                 C170602099999 
SUBENT        C1706021   20090626                             C092C170602100001 
BIB                  2          3                                 C170602100002 
REACTION   (12-MG-24(P,T)12-MG-22,PAR,DA,,REL)                    C170602100003 
STATUS     (TABLE) Data presented in fig.4 of the reference sent  C170602100004 
           by author (K.Y.Ch)                                     C170602100005 
ENDBIB               3          0                                 C170602100006 
COMMON               2          3                                 C170602100007 
EN         E-LVL                                                  C170602100008 
MEV        KEV                                                    C170602100009 
41.5       10414.0                                                C170602100010 
ENDCOMMON            3          0                                 C170602100011 
DATA                 3          8                                 C170602100012 
ANG-CM     DATA-CM    ERR-S                                       C170602100013 
ADEG       ARB-UNITS  ARB-UNITS                                   C170602100014 
40.84         8.18E-03   1.09E-03                                 C170602100015 
41.67         4.50E-03   6.62E-04                                 C170602100016 
45.00         3.86E-03   6.03E-04                                 C170602100017 
47.39         8.11E-03   9.19E-04                                 C170602100018 
48.33         3.56E-03   5.80E-04                                 C170602100019 
53.88         5.29E-03   7.78E-04                                 C170602100020 
54.92         2.52E-03   4.55E-04                                 C170602100021 
63.14         2.96E-03   6.42E-04                                 C170602100022 
ENDDATA             10          0                                 C170602100023 
ENDSUBENT           22          0                                 C170602199999 
SUBENT        C1706022   20090626                             C092C170602200001 
BIB                  2          3                                 C170602200002 
REACTION   (12-MG-24(P,T)12-MG-22,PAR,DA,,REL)                    C170602200003 
STATUS     (TABLE) Data presented in fig.4 of the reference sent  C170602200004 
           by author (K.Y.Ch)                                     C170602200005 
ENDBIB               3          0                                 C170602200006 
COMMON               2          3                                 C170602200007 
EN         E-LVL                                                  C170602200008 
MEV        KEV                                                    C170602200009 
41.0       10611.0                                                C170602200010 
ENDCOMMON            3          0                                 C170602200011 
DATA                 3          7                                 C170602200012 
ANG-CM     DATA-CM    ERR-S                                       C170602200013 
ADEG       ARB-UNITS  ARB-UNITS                                   C170602200014 
21.46         7.71E-03   1.28E-03                                 C170602200015 
25.69         6.94E-03   1.52E-03                                 C170602200016 
27.93         5.91E-03   1.34E-03                                 C170602200017 
34.71         5.59E-03   1.29E-03                                 C170602200018 
39.47         4.22E-03   7.57E-04                                 C170602200019 
44.20         4.41E-03   6.84E-04                                 C170602200020 
46.61         3.68E-03   6.08E-04                                 C170602200021 
ENDDATA              9          0                                 C170602200022 
ENDSUBENT           21          0                                 C170602299999 
SUBENT        C1706023   20090626                             C092C170602300001 
BIB                  2          3                                 C170602300002 
REACTION   (12-MG-24(P,T)12-MG-22,PAR,DA,,REL)                    C170602300003 
STATUS     (TABLE) Data presented in fig.4 of the reference sent  C170602300004 
           by author (K.Y.Ch)                                     C170602300005 
ENDBIB               3          0                                 C170602300006 
COMMON               2          3                                 C170602300007 
EN         E-LVL                                                  C170602300008 
MEV        KEV                                                    C170602300009 
41.5       10611.0                                                C170602300010 
ENDCOMMON            3          0                                 C170602300011 
DATA                 3          4                                 C170602300012 
ANG-CM     DATA-CM    ERR-S                                       C170602300013 
ADEG       ARB-UNITS  ARB-UNITS                                   C170602300014 
41.67         4.50E-03   6.62E-04                                 C170602300015 
45.00         3.86E-03   6.03E-04                                 C170602300016 
48.33         3.56E-03   5.80E-04                                 C170602300017 
54.92         2.52E-03   4.55E-04                                 C170602300018 
ENDDATA              6          0                                 C170602300019 
ENDSUBENT           18          0                                 C170602399999 
SUBENT        C1706024   20090626                             C092C170602400001 
BIB                  2          3                                 C170602400002 
REACTION   (12-MG-24(P,T)12-MG-22,PAR,DA,,REL)                    C170602400003 
STATUS     (TABLE) Data presented in fig.4 of the reference sent  C170602400004 
           by author (K.Y.Ch)                                     C170602400005 
ENDBIB               3          0                                 C170602400006 
COMMON               2          3                                 C170602400007 
EN         E-LVL                                                  C170602400008 
MEV        KEV                                                    C170602400009 
41.0       11950.0                                                C170602400010 
ENDCOMMON            3          0                                 C170602400011 
DATA                 3          7                                 C170602400012 
ANG-CM     DATA-CM    ERR-S                                       C170602400013 
ADEG       ARB-UNITS  ARB-UNITS                                   C170602400014 
21.54         1.15E-02   1.75E-03                                 C170602400015 
25.79         1.27E-02   2.55E-03                                 C170602400016 
28.03         8.80E-03   1.19E-03                                 C170602400017 
32.49         9.55E-03   1.56E-03                                 C170602400018 
34.83         1.08E-02   8.36E-04                                 C170602400019 
39.61         8.56E-03   6.51E-04                                 C170602400020 
44.36         8.80E-03   7.35E-04                                 C170602400021 
ENDDATA              9          0                                 C170602400022 
ENDSUBENT           21          0                                 C170602499999 
SUBENT        C1706025   20090626                             C092C170602500001 
BIB                  2          3                                 C170602500002 
REACTION   (12-MG-24(P,T)12-MG-22,PAR,DA,,REL)                    C170602500003 
STATUS     (TABLE) Data presented in fig.4 of the reference sent  C170602500004 
           by author (K.Y.Ch)                                     C170602500005 
ENDBIB               3          0                                 C170602500006 
COMMON               2          3                                 C170602500007 
EN         E-LVL                                                  C170602500008 
MEV        KEV                                                    C170602500009 
41.5       11950.0                                                C170602500010 
ENDCOMMON            3          0                                 C170602500011 
DATA                 3          6                                 C170602500012 
ANG-CM     DATA-CM    ERR-S                                       C170602500013 
ADEG       ARB-UNITS  ARB-UNITS                                   C170602500014 
32.02         8.91E-03   5.23E-04                                 C170602500015 
35.18         9.57E-03   5.15E-04                                 C170602500016 
45.16         8.56E-03   4.03E-04                                 C170602500017 
51.81         7.41E-03   3.83E-04                                 C170602500018 
64.53         4.80E-03   5.10E-04                                 C170602500019 
67.52         4.82E-03   7.35E-04                                 C170602500020 
ENDDATA              8          0                                 C170602500021 
ENDSUBENT           20          0                                 C170602599999 
SUBENT        C1706026   20090626                             C092C170602600001 
BIB                  3         11                                 C170602600002 
REACTION   (10-NE-18(A,P)11-NA-21,,SGV,,MXW,DERIV)                C170602600003 
REL-REF    (R,C1237002,A.A.Chen+,J,PR/C,63,065807,2001)           C170602600004 
             Resomamce strength data taken.                       C170602600005 
STATUS     (TABLE) Data presented in fig.5 of the reference sent  C170602600006 
           by author (K.Y.Ch)                                     C170602600007 
           (DEP,C1706002)                                         C170602600008 
           (DEP,C1706014)                                         C170602600009 
           (DEP,C1706015)                                         C170602600010 
           (DEP,C1706018)                                         C170602600011 
           (DEP,C1706019)                                         C170602600012 
           (DEP,C1706027)                                         C170602600013 
ENDBIB              11          0                                 C170602600014 
NOCOMMON             0          0                                 C170602600015 
DATA                 2         17                                 C170602600016 
KT         DATA                                                   C170602600017 
K9         CM3/S/MOL                                              C170602600018 
0.20          1.53E-15                                            C170602600019 
0.25          1.27E-13                                            C170602600020 
0.30          2.60E-12                                            C170602600021 
0.35          3.39E-11                                            C170602600022 
0.40          3.99E-10                                            C170602600023 
0.45          3.49E-09                                            C170602600024 
0.50          2.15E-08                                            C170602600025 
0.55          1.02E-07                                            C170602600026 
0.60          4.60E-07                                            C170602600027 
0.65          2.34E-06                                            C170602600028 
0.70          1.28E-05                                            C170602600029 
0.75          6.45E-05                                            C170602600030 
0.80          2.81E-04                                            C170602600031 
0.85          1.04E-03                                            C170602600032 
0.90          3.37E-03                                            C170602600033 
0.95          9.63E-03                                            C170602600034 
1.00          2.47E-02                                            C170602600035 
ENDDATA             19          0                                 C170602600036 
ENDSUBENT           35          0                                 C170602699999 
SUBENT        C1706027   20140418                             C141C170602700001 
BIB                  2          3                                 C170602700002 
REACTION  1(10-NE-18(A,0),,EN)                                    C170602700003 
          2(10-NE-18(A,P),,WID/STR,,,DERIV)                       C170602700004 
STATUS     (TABLE) Data from Table 3 of PR/C,79,055804.           C170602700005 
ENDBIB               3          0                                 C170602700006 
NOCOMMON             0          0                                 C170602700007 
DATA                 2          2                                 C170602700008 
DATA      1DATA      2                                            C170602700009 
MEV        MEV                                                    C170602700010 
 0.355        1.84E-18                                            C170602700011 
 1.633        3.69E-05                                            C170602700012 
ENDDATA              4          0                                 C170602700013 
ENDSUBENT           12          0                                 C170602799999 
ENDENTRY            27          0                                 C170699999999 
