ENTRY            G3001   20060729                             G014G300100000001 
SUBENT        G3001001   20060729                             G014G300100100001 
BIB                 11         22                                 G300100100002 
INSTITUTE  (3BZLUSP)                                              G300100100003 
REFERENCE  (J,PR/C,52,1484,199509)                                G300100100004 
AUTHOR     (M.L.P.Antunes, M.N.Martins)                           G300100100005 
TITLE      Cross section measurament of two protons and two       G300100100006 
           neutrons emission in 63Cu                              G300100100007 
FACILITY   (LINAC)                                                G300100100008 
INC-SOURCE (VPH)                                                  G300100100009 
METHOD     (ACTIV)                                                G300100100010 
ANALYSIS   (UNFLD)                                                G300100100011 
           measured relactive (e,2n) yield and normalized it      G300100100012 
           to previous absolute (e,2n) measurement (Pr/C,26,1936, G300100100013 
            (1982)). The other yields were normalized using the   G300100100014 
           same factor, corrected for the different gamma         G300100100015 
           intensities. Bremsstrahlung yield measured using a     G300100100016 
           0.275 Mg/Cm**2 Ta radiator. Residual electron beam     G300100100017 
           also hits the target, so the measured yield correspondsG300100100018 
           to an electron plus bremsstrahlung yield.              G300100100019 
DETECTOR   (HPGE)                                                 G300100100020 
STATUS     data provided by author                                G300100100021 
HISTORY    (19970624C) compiled by M.N.Martins                    G300100100022 
           (19971215) final processing by NDS                     G300100100023 
           (20060729A) BIB section updated                        G300100100024 
ENDBIB              22          0                                 G300100100025 
NOCOMMON             0          0                                 G300100100026 
ENDSUBENT           25          0                                 G300100199999 
SUBENT        G3001002   20060729                             G014G300100200001 
BIB                  3          3                                 G300100200002 
REACTION   (29-CU-63(E,2N)29-CU-61,,SIG)                          G300100200003 
PART-DET   (DG)                                                   G300100200004 
DECAY-DATA (29-CU-61,3.41HR,DG,67.4,0.062)                        G300100200005 
ENDBIB               3          0                                 G300100200006 
NOCOMMON             0          0                                 G300100200007 
DATA                 3         15                                 G300100200008 
EN         DATA       DATA-ERR                                    G300100200009 
MEV        MB         MB                                          G300100200010 
28.0            2.24-2     0.22-2                                 G300100200011 
30.0            2.94-2     0.11-2                                 G300100200012 
32.0            3.34-2     0.31-2                                 G300100200013 
34.0            4.17-2     0.36-2                                 G300100200014 
35.0            5.1 -2     0.4 -2                                 G300100200015 
36.0            4.01-2     0.32-2                                 G300100200016 
38.0            5.21-2     0.39-2                                 G300100200017 
40.0            5.66-2     0.38-2                                 G300100200018 
42.0            4.94-2     0.31-2                                 G300100200019 
44.0            6.35-2     0.35-2                                 G300100200020 
45.0            6.28-2     0.13-2                                 G300100200021 
50.0            7.7 -2     0.4 -2                                 G300100200022 
55.0            9.0 -2     0.5 -2                                 G300100200023 
57.0            8.4 -2     0.4 -2                                 G300100200024 
60.0            8.5 -2     0.4 -2                                 G300100200025 
ENDDATA             17          0                                 G300100200026 
ENDSUBENT           25          0                                 G300100299999 
SUBENT        G3001003   20060729                             G014G300100300001 
BIB                  3          3                                 G300100300002 
REACTION   (29-CU-63(G,2N)29-CU-61,,SIG)                          G300100300003 
PART-DET   (DG)                                                   G300100300004 
DECAY-DATA (29-CU-61,3.41HR,DG,67.4,0.062)                        G300100300005 
ENDBIB               3          0                                 G300100300006 
NOCOMMON             0          0                                 G300100300007 
DATA                 3         14                                 G300100300008 
EN         DATA       DATA-ERR                                    G300100300009 
MEV        MB         MB                                          G300100300010 
30.0            11.1-2  0.6    -2                                 G300100300011 
32.0            12.4-2  1.5    -2                                 G300100300012 
34.0            17.0-2  1.9    -2                                 G300100300013 
36.0            19.3-2  2.0    -2                                 G300100300014 
38.0            18.8-2  1.7    -2                                 G300100300015 
40.0            18.1-2  1.5    -2                                 G300100300016 
42.0            20.8-2  1.5    -2                                 G300100300017 
44.0            20.9-2  1.4    -2                                 G300100300018 
45.0            20.0-2  0.5    -2                                 G300100300019 
46.0            18.5-2  1.1    -2                                 G300100300020 
48.0            22.2-2  1.3    -2                                 G300100300021 
50.0            23.6-2  1.4    -2                                 G300100300022 
55.0            26.0-2  1.6    -2                                 G300100300023 
60.0            26.9-2  1.6    -2                                 G300100300024 
ENDDATA             16          0                                 G300100300025 
ENDSUBENT           24          0                                 G300100399999 
SUBENT        G3001004   20060729                             G014G300100400001 
BIB                  1          5                                 G300100400002 
REACTION   (29-CU-63(G,2N)29-CU-61,EP,SIG,,,DERIV)                G300100400003 
            (g,2n)photodisintegration cross section derived by    G300100400004 
           virtual photon analysis of electron and electro+       G300100400005 
           photodesintegration data. E1 and e2 multipole          G300100400006 
           components were separated.                             G300100400007 
ENDBIB               5          0                                 G300100400008 
NOCOMMON             0          0                                 G300100400009 
DATA                 5          5                                 G300100400010 
POLAR      EN-MIN     EN-MAX     DATA       DATA-ERR              G300100400011 
NO-DIM     MEV        MEV        MB         MB                    G300100400012 
1.         19.7       21.0       7.7        0.6                   G300100400013 
1.         21.0       24.0       10.1       0.6                   G300100400014 
1.         24.0       30.0       7.1        0.9                   G300100400015 
1.         30.0       55.0       1.3        0.5                   G300100400016 
2.         24.0       35.0       1.9        0.5                   G300100400017 
ENDDATA              7          0                                 G300100400018 
ENDSUBENT           17          0                                 G300100499999 
SUBENT        G3001005   20060729                             G014G300100500001 
BIB                  3          3                                 G300100500002 
REACTION   (29-CU-63(E,2P)27-CO-61,,SIG)                          G300100500003 
PART-DET   (DG)                                                   G300100500004 
DECAY-DATA (27-CO-61,1.650HR,DG,67.4,0.062)                       G300100500005 
ENDBIB               3          0                                 G300100500006 
NOCOMMON             0          0                                 G300100500007 
DATA                 3         16                                 G300100500008 
EN         DATA       DATA-ERR                                    G300100500009 
MEV        MICRO-B    MICRO-B                                     G300100500010 
25.0            0.24         0.05                                 G300100500011 
28.0            0.30         0.06                                 G300100500012 
30.0            0.63         0.05                                 G300100500013 
32.0            0.77         0.15                                 G300100500014 
34.0            0.93         0.18                                 G300100500015 
35.0            0.95         0.18                                 G300100500016 
36.0            1.57         0.30                                 G300100500017 
38.0            1.96         0.36                                 G300100500018 
40.0            2.02         0.36                                 G300100500019 
42.0            1.68         0.30                                 G300100500020 
44.0            2.8          0.5                                  G300100500021 
45.0            2.95         0.22                                 G300100500022 
50.0            3.2          0.5                                  G300100500023 
55.0            3.9          0.7                                  G300100500024 
57.0            3.7          0.6                                  G300100500025 
60.0            3.7          0.6                                  G300100500026 
ENDDATA             18          0                                 G300100500027 
ENDSUBENT           26          0                                 G300100599999 
SUBENT        G3001006   20060729                             G014G300100600001 
BIB                  3          3                                 G300100600002 
REACTION   (29-CU-63(G,2P)27-CO-61,,SIG)                          G300100600003 
PART-DET   (DG)                                                   G300100600004 
DECAY-DATA (27-CO-61,1.650HR,DG,67.4,0.062)                       G300100600005 
ENDBIB               3          0                                 G300100600006 
NOCOMMON             0          0                                 G300100600007 
DATA                 3         14                                 G300100600008 
EN         DATA       DATA-ERR                                    G300100600009 
MEV        MICRO-B    MICRO-B                                     G300100600010 
30.0            2.39     0.13                                     G300100600011 
32.0            3.35     0.39                                     G300100600012 
34.0            5.6      0.6                                      G300100600013 
36.0            6.3      0.7                                      G300100600014 
38.0            6.4      0.7                                      G300100600015 
40.0            7.3      0.7                                      G300100600016 
42.0            8.8      0.8                                      G300100600017 
44.0            9.6      0.8                                      G300100600018 
45.0            9.09     0.32                                     G300100600019 
46.0            8.2      0.7                                      G300100600020 
48.0            9.4      0.8                                      G300100600021 
50.0            12.5     0.11                                     G300100600022 
55.0            12.2     0.11                                     G300100600023 
60.0            13.7     0.12                                     G300100600024 
ENDDATA             16          0                                 G300100600025 
ENDSUBENT           24          0                                 G300100699999 
SUBENT        G3001007   20060729                             G014G300100700001 
BIB                  1          4                                 G300100700002 
REACTION   (29-CU-63(G,2P)27-CO-61,EP,SIG,,,DERIV)                G300100700003 
            (g,2p)photodisintegration cross section derived by    G300100700004 
           virtual photon analysis of electron and electro+       G300100700005 
           photodesintegration data.                              G300100700006 
ENDBIB               4          0                                 G300100700007 
NOCOMMON             0          0                                 G300100700008 
DATA                 5          3                                 G300100700009 
POLAR      EN-MIN     EN-MAX     DATA       DATA-ERR              G300100700010 
NO-DIM     MEV        MEV        MB         MB                    G300100700011 
1.         17.2       27.0       0.089      0.009                 G300100700012 
1.         27.0       32.0       0.57       0.07                  G300100700013 
1.         32.0       50.0       0.33       0.04                  G300100700014 
ENDDATA              5          0                                 G300100700015 
ENDSUBENT           14          0                                 G300100799999 
ENDENTRY             7          0                                 G300199999999 
