ENTRY            G4001   20130612                             G027G400100000001 
SUBENT        G4001001   20130612                             G027G400100100001 
BIB                 11         19                                 G400100100002 
TITLE      Excitation functions of the short-living isomers of    G400100100003 
           lead and bismuth in (g,n)-reaction.                    G400100100004 
AUTHOR     (I.Z.Beseda, V.S.Bokhinyuk, A.I.Guty, A.P.Osipenko,    G400100100005 
           N.V.Pashchenko, N.T.Sabolchy, I.V.Khimich,             G400100100006 
           I.A.Shabalina)                                         G400100100007 
INSTITUTE  (4UKRUZH)                                              G400100100008 
REFERENCE  (J,UFZ,38,(6),846,1993)                                G400100100009 
           (J,UZHV,32,39,2012)                                    G400100100010 
FACILITY   (BETAT,4UKRUZH) 25 MeV betatron B25/30 at the          G400100100011 
                           university of Uzhgorod.                G400100100012 
METHOD     (EXTB,SITA)G-rays were detected between pulses of      G400100100013 
            betatron.                                             G400100100014 
ANALYSIS   (PLA)                                                  G400100100015 
INC-SOURCE (BRST)                                                 G400100100016 
DETECTOR   (NAICR)                                                G400100100017 
COMMENT     Cross section was calculated by Penfold-Leiss method. G400100100018 
HISTORY    (20050208C)NK                                          G400100100019 
           (20130612A)OG Reference J,UZHV,32,39,2012 was added.   G400100100020 
            REACTION:  SF4 corrected in G4001.002 and G4001.003   G400100100021 
ENDBIB              19          0                                 G400100100022 
NOCOMMON             0          0                                 G400100100023 
ENDSUBENT           22          0                                 G400100199999 
SUBENT        G4001002   20130612                             G027G400100200001 
BIB                  7          9                                 G400100200002 
REACTION   (82-PB-207(G,N)82-PB-206-L,,SIG,,BRS)                  G400100200003 
DECAY-DATA (82-PB-206-L,0.124MSEC)                                G400100200004 
ERR-ANALYS (DATA-ERR) Statistical error                           G400100200005 
SAMPLE     Target enrichment by Pb-207 is 89%, weight 6.815g.     G400100200006 
COMMENT    For investigation of excitation functions two groups   G400100200007 
           of lines at 803 and 880 keV were used.                 G400100200008 
STATUS     (TABLE) Correspond to Fig.3.                           G400100200009 
HISTORY    (20130612A)OG Digitized data were substituted by       G400100200010 
           tabulated data received from A.M.Parlag in May 2013.   G400100200011 
ENDBIB               9          0                                 G400100200012 
NOCOMMON             0          0                                 G400100200013 
DATA                 3         23                                 G400100200014 
EN         DATA       ERR-S                                       G400100200015 
MEV        MB         MB                                          G400100200016 
10.13      1.23       0.17                                        G400100200017 
10.79      2.52       0.17                                        G400100200018 
11.14      3.34       0.27                                        G400100200019 
11.60      5.65       0.27                                        G400100200020 
12.12      12.82      0.41                                        G400100200021 
12.65      15.04      0.41                                        G400100200022 
13.10      14.97      0.60                                        G400100200023 
13.77      15.90      0.60                                        G400100200024 
14.19      15.60      0.80                                        G400100200025 
15.18      12.87      1.00                                        G400100200026 
15.81      11.83      1.00                                        G400100200027 
16.09      10.82      1.20                                        G400100200028 
16.64      9.22       1.20                                        G400100200029 
17.20      5.20       1.32                                        G400100200030 
18.01      3.44       1.36                                        G400100200031 
18.15      4.64       1.36                                        G400100200032 
18.78      3.92       1.36                                        G400100200033 
19.29      1.61       1.32                                        G400100200034 
19.98      1.55       1.32                                        G400100200035 
20.17      3.31       1.33                                        G400100200036 
20.90      4.29       1.33                                        G400100200037 
22.16      2.08       1.58                                        G400100200038 
22.78      4.30       1.73                                        G400100200039 
ENDDATA             25          0                                 G400100200040 
ENDSUBENT           39          0                                 G400100299999 
SUBENT        G4001003   20130612                             G027G400100300001 
BIB                  7          9                                 G400100300002 
REACTION   (83-BI-209(G,N)83-BI-208-L,,SIG,,BRS)                  G400100300003 
DECAY-DATA (83-BI-208-L,2.53MSEC)                                 G400100300004 
ERR-ANALYS (ERR-S) Statistical error                              G400100300005 
STATUS     (TABLE) Correspond to Fig.4.                           G400100300006 
HISTORY    (20130612A)OG Digitized data were substituted by       G400100300007 
           tabulated data received from A.M.Parlag in May 2013.   G400100300008 
SAMPLE     Natural Bi,weight 15.525g.                             G400100300009 
COMMENT    For investigation excitation functions lines 511 and   G400100300010 
           919 keV were used.                                     G400100300011 
ENDBIB               9          0                                 G400100300012 
NOCOMMON             0          0                                 G400100300013 
DATA                 3         21                                 G400100300014 
EN         DATA       ERR-S                                       G400100300015 
MEV        MB         MB                                          G400100300016 
11.43      0.73       0.15                                        G400100300017 
11.96      2.58       0.18                                        G400100300018 
12.48      3.56       0.17                                        G400100300019 
13.05      3.85       0.18                                        G400100300020 
13.42      4.12       0.27                                        G400100300021 
13.93      4.96       0.24                                        G400100300022 
14.48      4.89       0.23                                        G400100300023 
14.98      4.80       0.26                                        G400100300024 
15.51      4.46       0.21                                        G400100300025 
15.86      4.32       0.22                                        G400100300026 
16.51      3.80       0.31                                        G400100300027 
16.97      2.43       0.33                                        G400100300028 
17.98      1.51       0.34                                        G400100300029 
18.51      1.33       0.38                                        G400100300030 
20.01      0.28       0.45                                        G400100300031 
20.37      0.30       0.50                                        G400100300032 
21.11      0.87       0.53                                        G400100300033 
21.52      0.57       0.53                                        G400100300034 
21.96      0.69       0.53                                        G400100300035 
22.56      0.97       0.59                                        G400100300036 
23.77      1.73       0.65                                        G400100300037 
ENDDATA             23          0                                 G400100300038 
ENDSUBENT           37          0                                 G400100399999 
ENDENTRY             3          0                                 G400199999999 
