ENTRY            A0854   20100624                             A069A085400000001 
SUBENT        A0854001   20100624                             A069A085400100001 
BIB                 12         26                                 A085400100002 
TITLE      Comparison of prompt-fission neutron multiplicities andA085400100003 
           energy spectra for intermediate energy proton-and      A085400100004 
           neutron-induced fission.                               A085400100005 
AUTHOR     (O.I.Batenkov, G.Boikov, V.Eismont,M.Majorov,          A085400100006 
           S.Soloviev, J.Blomgren, W.Loveland)                    A085400100007 
INSTITUTE  (4RUSRI)                                               A085400100008 
           (2SWDUPP)                                              A085400100009 
           (1USAORU)                                              A085400100010 
REFERENCE  (C,2007NICE,2,1085,2007)                               A085400100011 
FACILITY   (CYCLO,2SWDUPP)                                        A085400100012 
DETECTOR   (MCPLT)                                                A085400100013 
METHOD     (TOF)                                                  A085400100014 
SAMPLE     The actinide targets were mounted in the center of a   A085400100015 
           thin-walled (0.8 mm) stainless steel chamber.          A085400100016 
           The targets were 100-320 mug/cm**2 of ThF(4), UF(4) andA085400100017 
           NpO(2) evaporated onto a 60 mug/cm**2 Al(2)O(3) backingA085400100018 
           and covered by 20 mug/cm**2 Au.                        A085400100019 
ERR-ANALYS (DATA-ERR).The uncertainty is reported by authors.     A085400100020 
STATUS     The letter was sent to O.Batenkov 11.05.2010 with the  A085400100021 
           request to sent the table data from plots. No reply.   A085400100022 
ADD-RES    (N-SPC) Representative neutron energy spectra for the  A085400100023 
           interaction of 96 MeV protons with 235U are reported onA085400100024 
           fig.3.                                                 A085400100025 
           Pre-equilibrium processes, Post-equilibrium processes  A085400100026 
           and Equilibrium processes  are reported in table 1.    A085400100027 
HISTORY    (20100624C) SB                                         A085400100028 
ENDBIB              26          0                                 A085400100029 
NOCOMMON             0          0                                 A085400100030 
ENDSUBENT           29          0                                 A085400199999 
SUBENT        A0854002   20100624                             A069A085400200001 
BIB                  2          2                                 A085400200002 
REACTION   (90-TH-232(P,F),,NU)                                   A085400200003 
STATUS     (TABLE) .Table in text                                 A085400200004 
ENDBIB               2          0                                 A085400200005 
NOCOMMON             0          0                                 A085400200006 
DATA                 3          2                                 A085400200007 
EN         DATA       DATA-ERR                                    A085400200008 
MEV        PRT/FIS    PRT/FIS                                     A085400200009 
50.        7.35       0.07                                        A085400200010 
96.        9.17       0.10                                        A085400200011 
ENDDATA              4          0                                 A085400200012 
ENDSUBENT           11          0                                 A085400299999 
SUBENT        A0854003   20100624                             A069A085400300001 
BIB                  2          2                                 A085400300002 
REACTION   (90-TH-232(P,F)0-NN-1,,KE)                             A085400300003 
STATUS     (TABLE) .Table in text                                 A085400300004 
ENDBIB               2          0                                 A085400300005 
NOCOMMON             0          0                                 A085400300006 
DATA                 3          2                                 A085400300007 
EN         DATA       DATA-ERR                                    A085400300008 
MEV        MEV        MEV                                         A085400300009 
50.        2.63       0.02                                        A085400300010 
96.        3.09       0.04                                        A085400300011 
ENDDATA              4          0                                 A085400300012 
ENDSUBENT           11          0                                 A085400399999 
SUBENT        A0854004   20100624                             A069A085400400001 
BIB                  2          2                                 A085400400002 
REACTION   (92-U-235(P,F),,NU)                                    A085400400003 
STATUS     (TABLE) .Table in text                                 A085400400004 
ENDBIB               2          0                                 A085400400005 
NOCOMMON             0          0                                 A085400400006 
DATA                 3          2                                 A085400400007 
EN         DATA       DATA-ERR                                    A085400400008 
MEV        PRT/FIS    PRT/FIS                                     A085400400009 
50.        6.86       0.06                                        A085400400010 
96.        8.57       0.08                                        A085400400011 
ENDDATA              4          0                                 A085400400012 
ENDSUBENT           11          0                                 A085400499999 
SUBENT        A0854005   20100624                             A069A085400500001 
BIB                  2          2                                 A085400500002 
REACTION   (92-U-235(P,F)0-NN-1,,KE)                              A085400500003 
STATUS     (TABLE) .Table in text                                 A085400500004 
ENDBIB               2          0                                 A085400500005 
NOCOMMON             0          0                                 A085400500006 
DATA                 3          2                                 A085400500007 
EN         DATA       DATA-ERR                                    A085400500008 
MEV        MEV        MEV                                         A085400500009 
50.        2.77       0.02                                        A085400500010 
96.        3.09       0.03                                        A085400500011 
ENDDATA              4          0                                 A085400500012 
ENDSUBENT           11          0                                 A085400599999 
SUBENT        A0854006   20100624                             A069A085400600001 
BIB                  2          2                                 A085400600002 
REACTION   (92-U-238(P,F),,NU)                                    A085400600003 
STATUS     (TABLE) .Table in text                                 A085400600004 
ENDBIB               2          0                                 A085400600005 
NOCOMMON             0          0                                 A085400600006 
DATA                 3          2                                 A085400600007 
EN         DATA       DATA-ERR                                    A085400600008 
MEV        PRT/FIS    PRT/FIS                                     A085400600009 
50.        7.44       0.07                                        A085400600010 
96.        9.27       0.08                                        A085400600011 
ENDDATA              4          0                                 A085400600012 
ENDSUBENT           11          0                                 A085400699999 
SUBENT        A0854007   20100624                             A069A085400700001 
BIB                  2          2                                 A085400700002 
REACTION   (92-U-238(P,F)0-NN-1,,KE)                              A085400700003 
STATUS     (TABLE) .Table in text                                 A085400700004 
ENDBIB               2          0                                 A085400700005 
NOCOMMON             0          0                                 A085400700006 
DATA                 3          2                                 A085400700007 
EN         DATA       DATA-ERR                                    A085400700008 
MEV        MEV        MEV                                         A085400700009 
50.        2.72       0.02                                        A085400700010 
96.        3.12       0.03                                        A085400700011 
ENDDATA              4          0                                 A085400700012 
ENDSUBENT           11          0                                 A085400799999 
SUBENT        A0854008   20100624                             A069A085400800001 
BIB                  2          2                                 A085400800002 
REACTION   (93-NP-237(P,F),,NU)                                   A085400800003 
STATUS     (TABLE) .Table in text                                 A085400800004 
ENDBIB               2          0                                 A085400800005 
NOCOMMON             0          0                                 A085400800006 
DATA                 3          2                                 A085400800007 
EN         DATA       DATA-ERR                                    A085400800008 
MEV        PRT/FIS    PRT/FIS                                     A085400800009 
50.        7.24       0.06                                        A085400800010 
96.        8.58       0.10                                        A085400800011 
ENDDATA              4          0                                 A085400800012 
ENDSUBENT           11          0                                 A085400899999 
SUBENT        A0854009   20100624                             A069A085400900001 
BIB                  2          2                                 A085400900002 
REACTION   (93-NP-237(P,F)0-NN-1,,KE)                             A085400900003 
STATUS     (TABLE) .Table in text                                 A085400900004 
ENDBIB               2          0                                 A085400900005 
NOCOMMON             0          0                                 A085400900006 
DATA                 3          2                                 A085400900007 
EN         DATA       DATA-ERR                                    A085400900008 
MEV        MEV        MEV                                         A085400900009 
50.        2.83       0.02                                        A085400900010 
96.        3.12       0.04                                        A085400900011 
ENDDATA              4          0                                 A085400900012 
ENDSUBENT           11          0                                 A085400999999 
ENDENTRY             9          0                                 A085499999999 
