ENTRY            A0902   20111124                             A075A090200000001 
SUBENT        A0902001   20111124                             A075A090200100001 
BIB                 11         30                                 A090200100002 
TITLE      Cross section of Al-27(p,x)Na-24, Al-27(p,x)Na-22,     A090200100003 
           Al-27(p,x)Be-7 monitor reaction at proton energies     A090200100004 
            0.04-2.6 GeV.                                         A090200100005 
AUTHOR     (Yu.E.Titarenko, S.P.Borovlev, M.A.Butko, V.M.Zhivun,  A090200100006 
           K.V.Pavlov, V.I.Rogov, A.Yu.Titarenko, R.S.Tikhonov,   A090200100007 
           S.N.Florya, A.B.Koldobskiy)                            A090200100008 
INSTITUTE  (4RUSITE)                                              A090200100009 
REFERENCE  (J,YF,74,531,2011)                                     A090200100010 
           (J,PAN,74,507,2011) English translation                A090200100011 
DETECTOR   (HPGE)                                                 A090200100012 
FACILITY   (SYNCH,4RUSITE) ITEP U-10 synchrotron was used.        A090200100013 
METHOD     (EXTB)                                                 A090200100014 
           (GSPEC)                                                A090200100015 
ERR-ANALYS (ERR-T).The error is reported by authors in table.     A090200100016 
           (ERR-S).The statistical uncertainty is reported by     A090200100017 
           authors in tables.                                     A090200100018 
           (ERR-1).The errors of the measurements of the particle A090200100019 
           flux density both for the 72*72-mm plate and for the   A090200100020 
           diameter 10.5-mm monitor are 4.2%.                     A090200100021 
           (ERR-2,1.,3.).The error of the absolute detection      A090200100022 
           efficiency of the spectrometer.                        A090200100023 
           (EN-ERR).The uncertainty is reported by authors in     A090200100024 
           tables.                                                A090200100025 
SAMPLE     The experimental samples were assembled as a           A090200100026 
           sandwiches consisting of the studied material and      A090200100027 
           aluminum monitor, placed into a plastic bag and        A090200100028 
           were attached by scotch tape on a 72*72-mm aluminum    A090200100029 
           plate 0.1 mm in thickness.                             A090200100030 
STATUS     (TABLE).Table 2 of J,PAN,74,507,2011                   A090200100031 
HISTORY    (20111124C) SB                                         A090200100032 
ENDBIB              30          0                                 A090200100033 
COMMON               1          3                                 A090200100034 
ERR-1                                                             A090200100035 
PER-CENT                                                          A090200100036 
4.2                                                               A090200100037 
ENDCOMMON            3          0                                 A090200100038 
ENDSUBENT           37          0                                 A090200199999 
SUBENT        A0902002   20111128                             A075A090200200001 
BIB                  3         11                                 A090200200002 
REACTION  1(13-AL-27(P,X)11-NA-22,,SIG)                           A090200200003 
            72*72-mm square aluminum foils                        A090200200004 
          2(13-AL-27(P,X)11-NA-22,,SIG)                           A090200200005 
             10.5-mm-diameter round aluminum foils                A090200200006 
DECAY-DATA (11-NA-22,2.6019YR,DG,1274.5,0.99944)                  A090200200007 
FLAG       (1.).Experiment type-W target                          A090200200008 
           (2.).Experiment type-Ta target                         A090200200009 
           (3.).Experiment type-Nb target                         A090200200010 
           (4.).Experiment type-Ni target                         A090200200011 
           (5.).Experiment type-Fe target                         A090200200012 
           (6.).Experiment type-Cr target                         A090200200013 
ENDBIB              11          0                                 A090200200014 
NOCOMMON             0          0                                 A090200200015 
DATA                 9         66                                 A090200200016 
EN         EN-ERR     DATA      1ERR-T     1ERR-S     1DATA      2A090200200017 
ERR-T     2ERR-S     2FLAG                                        A090200200018 
MEV        MEV        MB         MB         MB         MB         A090200200019 
MB         MB         NO-DIM                                      A090200200020 
40.8       0.8                                         40.68      A090200200021 
2.59       0.49       2.                                          A090200200022 
40.8       0.8                                         46.00      A090200200023 
2.92       0.54       4.                                          A090200200024 
40.8       0.8                                         38.59      A090200200025 
2.04       0.10       6.                                          A090200200026 
44.6       0.3                                         43.47      A090200200027 
2.67       0.39       1.                                          A090200200028 
44.6       0.3                                         49.90      A090200200029 
3.09       0.47       3.                                          A090200200030 
44.6       0.3                                         41.16      A090200200031 
2.24       0.11       5.                                          A090200200032 
66.0       0.6        24.41      1.28       0.37       26.70      A090200200033 
1.39       0.29       1.                                          A090200200034 
66.0       0.6        24.41      1.28       0.37       24.49      A090200200035 
1.39       0.47       2.                                          A090200200036 
66.0       0.6        26.85      1.51       0.60       27.38      A090200200037 
1.58       0.53       3.                                          A090200200038 
66.0       0.6        26.85      1.51       0.60       25.02      A090200200039 
1.39       0.41       4.                                          A090200200040 
66.0       0.6        24.87      1.44       0.62       26.50      A090200200041 
1.77       0.70       5.                                          A090200200042 
66.0       0.6        24.87      1.44       0.62       25.71      A090200200043 
1.75       0.70       6.                                          A090200200044 
97.2       0.4        19.48      0.90       0.10       22.15      A090200200045 
1.08       0.11       1.                                          A090200200046 
97.2       0.4        19.48      0.90       0.10       18.92      A090200200047 
1.27       0.50       2.                                          A090200200048 
97.2       0.4        21.41      1.20       0.46       23.33      A090200200049 
1.30       0.38       3.                                          A090200200050 
97.2       0.4        21.41      1.20       0.46       20.62      A090200200051 
1.12       0.33       4.                                          A090200200052 
97.2       0.4        19.73      0.93       0.12       22.19      A090200200053 
1.29       0.37       5.                                          A090200200054 
97.2       0.4        19.73      0.93       0.12       19.34      A090200200055 
1.10       0.34       6.                                          A090200200056 
147.6      0.4        16.22      0.79       0.14       18.01      A090200200057 
1.07       0.42       1.                                          A090200200058 
147.6      0.4        16.22      0.79       0.14       16.50      A090200200059 
0.89       0.26       2.                                          A090200200060 
147.6      0.4        17.82      0.98       0.36       19.62      A090200200061 
1.11       0.35       3.                                          A090200200062 
147.6      0.4        17.82      0.98       0.36       16.99      A090200200063 
1.13       0.56       4.                                          A090200200064 
147.6      0.4        19.40      0.91       0.12       20.26      A090200200065 
1.41       0.76       5.                                          A090200200066 
147.6      0.4        19.40      0.91       0.12       18.28      A090200200067 
1.21       0.61       6.                                          A090200200068 
249.       1.         15.87      1.09       0.01       17.08      A090200200069 
0.93       0.18       1.                                          A090200200070 
249.       1.         15.87      1.09       0.01       15.16      A090200200071 
0.81       0.19       2.                                          A090200200072 
249.       1.         18.12      1.36       0.14       19.14      A090200200073 
1.52       0.22       3.                                          A090200200074 
249.       1.         18.12      1.36       0.14       17.05      A090200200075 
1.40       0.19       4.                                          A090200200076 
249.       1.         15.85      0.86       0.30       18.09      A090200200077 
1.06       0.40       5.                                          A090200200078 
249.       1.         15.85      0.86       0.30       15.58      A090200200079 
1.13       0.68       6.                                          A090200200080 
400.       2.         14.61      0.72       0.64       16.89      A090200200081 
1.15       0.62       1.                                          A090200200082 
400.       2.         14.61      0.72       0.64       14.13      A090200200083 
1.05       0.64       2.                                          A090200200084 
400.       2.         18.02      0.93       0.26       18.41      A090200200085 
1.47       0.86       3.                                          A090200200086 
400.       2.         18.02      0.93       0.26       16.01      A090200200087 
1.31       0.79       4.                                          A090200200088 
400.       2.         19.15      1.67       1.15       16.84      A090200200089 
1.20       0.74       5.                                          A090200200090 
400.       2.         19.15      1.67       1.15       16.06      A090200200091 
1.16       0.70       6.                                          A090200200092 
600.       2.         16.11      0.78       0.13       18.26      A090200200093 
1.09       0.44       1.                                          A090200200094 
600.       2.         16.11      0.78       0.13       16.10      A090200200095 
0.98       0.45       2.                                          A090200200096 
600.       2.         15.90      0.99       0.50       17.91      A090200200097 
1.01       0.34       3.                                          A090200200098 
600.       2.         15.90      0.99       0.50       14.19      A090200200099 
1.10       0.73       4.                                          A090200200100 
600.       2.         15.41      0.76       0.16       18.67      A090200200101 
1.14       0.45       5.                                          A090200200102 
600.       2.         15.41      0.76       0.16       14.90      A090200200103 
0.92       0.41       6.                                          A090200200104 
799.       2.         13.49      0.68       0.17       16.64      A090200200105 
1.00       0.41       1.                                          A090200200106 
799.       2.         13.49      0.68       0.17       14.00      A090200200107 
0.71       0.15       2.                                          A090200200108 
799.       2.         14.85      0.75       0.18       17.37      A090200200109 
1.02       0.40       3.                                          A090200200110 
799.       2.         14.85      0.75       0.18       14.99      A090200200111 
0.83       0.28       4.                                          A090200200112 
799.       2.         16.32      0.92       0.37       18.22      A090200200113 
1.05       0.35       5.                                          A090200200114 
799.       2.         16.32      0.92       0.37       15.75      A090200200115 
1.20       0.77       6.                                          A090200200116 
1199.      3.         13.11      0.83       0.43       15.81      A090200200117 
0.88       0.29       1.                                          A090200200118 
1199.      3.         13.11      0.83       0.43       14.41      A090200200119 
0.73       0.17       2.                                          A090200200120 
1199.      3.         12.76      0.69       0.26       15.38      A090200200121 
0.79       0.14       3.                                          A090200200122 
1199.      3.         12.76      0.69       0.26       12.99      A090200200123 
0.64       0.11       4.                                          A090200200124 
1199.      3.         13.35      0.67       0.16       15.37      A090200200125 
0.79       0.13       5.                                          A090200200126 
1199.      3.         13.35      0.67       0.16       13.44      A090200200127 
0.70       0.17       6.                                          A090200200128 
1598.      4.         11.76      0.62       0.20       13.15      A090200200129 
0.69       0.14       1.                                          A090200200130 
1598.      4.         12.25      0.65       0.24       12.75      A090200200131 
0.59       0.03       2.                                          A090200200132 
1598.      4.         11.70      0.77       0.42       13.42      A090200200133 
0.66       0.06       3.                                          A090200200134 
1598.      4.         12.25      1.04       0.78       13.04      A090200200135 
0.64       0.06       4.                                          A090200200136 
1598.      4.         11.19      0.80       0.28       12.76      A090200200137 
0.63       0.05       5.                                          A090200200138 
1598.      4.         12.00      0.62       0.20       13.88      A090200200139 
0.68       0.05       6.                                          A090200200140 
2605.      8.         10.61      0.53       0.12       10.98      A090200200141 
0.58       0.15       1.                                          A090200200142 
2605.      8.         10.55      0.85       0.31       10.85      A090200200143 
0.53       0.05       2.                                          A090200200144 
2605.      8.         11.01      0.56       0.14       11.72      A090200200145 
0.58       0.07       3.                                          A090200200146 
2605.      8.         11.12      1.25       0.54       11.88      A090200200147 
0.59       0.07       4.                                          A090200200148 
2605.      8.         10.00      0.87       0.65       12.23      A090200200149 
0.62       0.04       5.                                          A090200200150 
2605.      8.         10.52      0.57       0.23       12.13      A090200200151 
0.59       0.05       6.                                          A090200200152 
ENDDATA            136          0                                 A090200200153 
ENDSUBENT          152          0                                 A090200299999 
SUBENT        A0902003   20111128                             A075A090200300001 
BIB                  2          3                                 A090200300002 
REACTION   (13-AL-27(P,X)11-NA-22,,SIG,,AV)                       A090200300003 
            average for experiment type                           A090200300004 
STATUS     (DEP,A0902002)                                         A090200300005 
ENDBIB               3          0                                 A090200300006 
NOCOMMON             0          0                                 A090200300007 
DATA                 5         12                                 A090200300008 
EN         EN-ERR     DATA       ERR-T      ERR-S                 A090200300009 
MEV        MEV        MB         MB         MB                    A090200300010 
40.8       0.8        38.91      1.96       0.96                  A090200300011 
44.6       0.3        41.76      2.30       1.39                  A090200300012 
66.0       0.6        25.75      1.20       0.38                  A090200300013 
97.2       0.4        20.44      1.00       0.44                  A090200300014 
147.6      0.4        17.99      0.95       0.53                  A090200300015 
249.       1.         15.88      0.70       0.07                  A090200300016 
400.       2.         17.05      0.90       0.50                  A090200300017 
600.       2.         16.10      0.78       0.33                  A090200300018 
799.       2.         14.73      0.80       0.46                  A090200300019 
1199.      3.         14.13      0.73       0.38                  A090200300020 
1598.      4.         12.98      0.59       0.14                  A090200300021 
2605.      8.         11.69      0.55       0.18                  A090200300022 
ENDDATA             14          0                                 A090200300023 
ENDSUBENT           22          0                                 A090200399999 
SUBENT        A0902004   20111128                             A075A090200400001 
BIB                  3         11                                 A090200400002 
REACTION  1(13-AL-27(P,X)11-NA-24,,SIG)                           A090200400003 
            72*72-mm square aluminum foils                        A090200400004 
          2(13-AL-27(P,X)11-NA-24,,SIG)                           A090200400005 
             10.5-mm-diameter round aluminum foils                A090200400006 
DECAY-DATA (11-NA-24,14.9590HR,DG,1369.0,1.)                      A090200400007 
FLAG       (1.).Experiment type-W target                          A090200400008 
           (2.).Experiment type-Ta target                         A090200400009 
           (3.).Experiment type-Nb target                         A090200400010 
           (4.).Experiment type-Ni target                         A090200400011 
           (5.).Experiment type-Fe target                         A090200400012 
           (6.).Experiment type-Cr target                         A090200400013 
ENDBIB              11          0                                 A090200400014 
NOCOMMON             0          0                                 A090200400015 
DATA                 9         66                                 A090200400016 
EN         EN-ERR     DATA      1ERR-T     1ERR-S     1DATA      2A090200400017 
ERR-T     2ERR-S     2FLAG                                        A090200400018 
MEV        MEV        MB         MB         MB         MB         A090200400019 
MB         MB         NO-DIM                                      A090200400020 
40.8       0.8                                         1.51       A090200400021 
0.09       0.01       2.                                          A090200400022 
40.8       0.8                                         1.70       A090200400023 
0.10       0.01       4.                                          A090200400024 
40.8       0.8                                         1.20       A090200400025 
0.09       0.03       6.                                          A090200400026 
44.6       0.3                                         2.52       A090200400027 
0.15       0.02       1.                                          A090200400028 
44.6       0.3                                         3.10       A090200400029 
0.19       0.01       3.                                          A090200400030 
44.6       0.3                                         1.93       A090200400031 
0.11       0.01       5.                                          A090200400032 
66.0       0.6        11.70      0.53       0.03       12.68      A090200400033 
0.60       0.01       1.                                          A090200400034 
66.0       0.6        11.70      0.53       0.03       11.52      A090200400035 
0.55       0.04       2.                                          A090200400036 
66.0       0.6        11.92      0.53       0.02       12.72      A090200400037 
0.62       0.04       3.                                          A090200400038 
66.0       0.6        11.92      0.53       0.02       11.91      A090200400039 
0.57       0.05       4.                                          A090200400040 
66.0       0.6        11.51      0.61       0.18       12.05      A090200400041 
0.64       0.02       5.                                          A090200400042 
66.0       0.6        11.51      0.61       0.18       11.28      A090200400043 
0.68       0.06       6.                                          A090200400044 
97.2       0.4        11.39      0.51       0.02       12.01      A090200400045 
0.56       0.02       1.                                          A090200400046 
97.2       0.4        11.39      0.51       0.02       11.41      A090200400047 
0.61       0.11       2.                                          A090200400048 
97.2       0.4        11.90      0.59       0.03       12.61      A090200400049 
0.66       0.02       3.                                          A090200400050 
97.2       0.4        11.90      0.59       0.03       11.89      A090200400051 
0.56       0.03       4.                                          A090200400052 
97.2       0.4        11.46      0.52       0.03       12.52      A090200400053 
0.60       0.03       5.                                          A090200400054 
97.2       0.4        11.46      0.52       0.03       11.23      A090200400055 
0.59       0.10       6.                                          A090200400056 
147.6      0.4        10.59      0.47       0.02       11.26      A090200400057 
0.53       0.01       1.                                          A090200400058 
147.6      0.4        10.59      0.47       0.02       10.37      A090200400059 
0.48       0.03       2.                                          A090200400060 
147.6      0.4        10.81      0.48       0.02       12.40      A090200400061 
0.59       0.02       3.                                          A090200400062 
147.6      0.4        10.81      0.48       0.02       10.73      A090200400063 
0.54       0.06       4.                                          A090200400064 
147.6      0.4        11.13      0.50       0.02       12.00      A090200400065 
0.58       0.03       5.                                          A090200400066 
147.6      0.4        11.13      0.50       0.02       11.35      A090200400067 
1.87       0.01       6.                                          A090200400068 
249.       1.         10.53      0.50       0.03       11.20      A090200400069 
0.62       0.15       1.                                          A090200400070 
249.       1.         10.53      0.50       0.03       10.62      A090200400071 
0.52       0.03       2.                                          A090200400072 
249.       1.         12.22      0.88       0.02       13.12      A090200400073 
0.98       0.25       3.                                          A090200400074 
249.       1.         12.22      0.88       0.02       12.27      A090200400075 
0.91       0.25       4.                                          A090200400076 
249.       1.         10.66      0.48       0.02       11.30      A090200400077 
0.53       0.06       5.                                          A090200400078 
249.       1.         10.66      0.48       0.02       10.68      A090200400079 
0.50       0.02       6.                                          A090200400080 
400.       2.         11.50      0.53       0.04       12.25      A090200400081 
0.61       0.05       1.                                          A090200400082 
400.       2.         11.50      0.53       0.04       11.53      A090200400083 
0.57       0.05       2.                                          A090200400084 
400.       2.         11.60      0.62       0.19       12.64      A090200400085 
0.70       0.03       3.                                          A090200400086 
400.       2.         11.60      0.62       0.19       11.94      A090200400087 
0.64       0.03       4.                                          A090200400088 
400.       2.         11.12      0.50       0.02       10.74      A090200400089 
0.56       0.15       5.                                          A090200400090 
400.       2.         11.12      0.50       0.02       9.95       A090200400091 
0.48       0.15       6.                                          A090200400092 
600.       2.         13.46      0.61       0.03       14.48      A090200400093 
0.68       0.01       1.                                          A090200400094 
600.       2.         13.46      0.61       0.03       13.56      A090200400095 
0.62       0.01       2.                                          A090200400096 
600.       2.         12.36      0.56       0.03       13.16      A090200400097 
0.61       0.01       3.                                          A090200400098 
600.       2.         12.36      0.56       0.03       12.31      A090200400099 
0.56       0.02       4.                                          A090200400100 
600.       2.         12.29      0.55       0.02       12.92      A090200400101 
0.67       0.05       5.                                          A090200400102 
600.       2.         12.29      0.55       0.02       12.51      A090200400103 
0.60       0.05       6.                                          A090200400104 
799.       2.         12.09      0.54       0.02       13.01      A090200400105 
0.61       0.01       1.                                          A090200400106 
799.       2.         12.09      0.54       0.02       11.99      A090200400107 
0.56       0.03       2.                                          A090200400108 
799.       2.         12.30      0.55       0.01       13.27      A090200400109 
0.62       0.02       3.                                          A090200400110 
799.       2.         12.30      0.55       0.01       12.28      A090200400111 
0.57       0.03       4.                                          A090200400112 
799.       2.         13.02      0.59       0.03       13.95      A090200400113 
0.66       0.02       5.                                          A090200400114 
799.       2.         13.02      0.59       0.03       14.09      A090200400115 
0.65       0.03       6.                                          A090200400116 
1199.      3.         13.84      0.61       0.01       14.82      A090200400117 
0.68       0.01       1.                                          A090200400118 
1199.      3.         13.84      0.61       0.01       13.91      A090200400119 
0.62       0.01       2.                                          A090200400120 
1199.      3.         11.30      0.49       0.02       12.82      A090200400121 
0.60       0.02       3.                                          A090200400122 
1199.      3.         11.30      0.49       0.02       12.12      A090200400123 
0.54       0.01       4.                                          A090200400124 
1199.      3.         12.25      0.57       0.05       12.90      A090200400125 
0.61       0.01       5.                                          A090200400126 
1199.      3.         12.25      0.57       0.05       12.21      A090200400127 
0.56       0.01       6.                                          A090200400128 
1598.      4.         10.83      0.49       0.02       11.51      A090200400129 
0.55       0.03       1.                                          A090200400130 
1598.      4.         11.63      0.52       0.03       11.63      A090200400131 
0.53       0.01       2.                                          A090200400132 
1598.      4.         9.49       0.43       0.03       11.38      A090200400133 
0.53       0.01       3.                                          A090200400134 
1598.      4.         10.12      0.46       0.03       11.23      A090200400135 
0.51       0.01       4.                                          A090200400136 
1598.      4.         10.43      0.47       0.03       11.13      A090200400137 
0.54       0.02       5.                                          A090200400138 
1598.      4.         10.90      0.49       0.03       11.79      A090200400139 
0.56       0.04       6.                                          A090200400140 
2605.      8.         9.89       0.45       0.01       10.33      A090200400141 
0.47       0.01       1.                                          A090200400142 
2605.      8.         8.96       0.39       0.05       10.05      A090200400143 
0.47       0.01       2.                                          A090200400144 
2605.      8.         8.75       0.40       0.03       10.27      A090200400145 
0.48       0.01       3.                                          A090200400146 
2605.      8.         8.70       0.38       0.02       9.32       A090200400147 
0.43       0.01       4.                                          A090200400148 
2605.      8.         11.53      0.53       0.08       10.31      A090200400149 
0.51       0.01       5.                                          A090200400150 
2605.      8.         12.13      0.55       0.03       10.47      A090200400151 
0.47       0.01       6.                                          A090200400152 
ENDDATA            136          0                                 A090200400153 
ENDSUBENT          152          0                                 A090200499999 
SUBENT        A0902005   20111128                             A075A090200500001 
BIB                  2          3                                 A090200500002 
REACTION   (13-AL-27(P,X)11-NA-24,,SIG,,AV)                       A090200500003 
            average for experiment type                           A090200500004 
STATUS     (DEP,A0902004)                                         A090200500005 
ENDBIB               3          0                                 A090200500006 
NOCOMMON             0          0                                 A090200500007 
DATA                 5         12                                 A090200500008 
EN         EN-ERR     DATA       ERR-T      ERR-S                 A090200500009 
MEV        MEV        MB         MB         MB                    A090200500010 
40.8       0.8        1.55       0.11       0.09                  A090200500011 
44.6       0.3        2.78       0.37       0.35                  A090200500012 
66.0       0.6        12.22      0.56       0.15                  A090200500013 
97.2       0.4        11.94      0.55       0.16                  A090200500014 
147.6      0.4        11.22      0.53       0.19                  A090200500015 
249.       1.         11.08      0.56       0.25                  A090200500016 
400.       2.         11.69      0.56       0.20                  A090200500017 
600.       2.         13.35      0.64       0.25                  A090200500018 
799.       2.         12.80      0.60       0.21                  A090200500019 
1199.      3.         12.84      0.67       0.36                  A090200500020 
1598.      4.         11.28      0.52       0.13                  A090200500021 
2605.      8.         10.22      0.47       0.11                  A090200500022 
ENDDATA             14          0                                 A090200500023 
ENDSUBENT           22          0                                 A090200599999 
SUBENT        A0902006   20111128                             A075A090200600001 
BIB                  3          9                                 A090200600002 
REACTION   (13-AL-27(P,X)4-BE-7,,SIG)                             A090200600003 
             10.5-mm-diameter round aluminum foils                A090200600004 
DECAY-DATA (4-BE-7,53.29D,DG,477.6,0.1052)                        A090200600005 
FLAG       (1.).Experiment type-W target                          A090200600006 
           (2.).Experiment type-Ta target                         A090200600007 
           (3.).Experiment type-Nb target                         A090200600008 
           (4.).Experiment type-Ni target                         A090200600009 
           (5.).Experiment type-Fe target                         A090200600010 
           (6.).Experiment type-Cr target                         A090200600011 
ENDBIB               9          0                                 A090200600012 
NOCOMMON             0          0                                 A090200600013 
DATA                 6         65                                 A090200600014 
EN         EN-ERR     DATA       ERR-T      ERR-S      FLAG       A090200600015 
MEV        MEV        MB         MB         MB         NO-DIM     A090200600016 
40.8       0.8        0.19       0.04       0.04       2.         A090200600017 
40.8       0.8        0.97       0.57       0.56       4.         A090200600018 
40.8       0.8        0.33       0.08       0.08       6.         A090200600019 
44.6       0.3        0.33       0.11       0.11       1.         A090200600020 
44.6       0.3        0.47       0.13       0.13       3.         A090200600021 
44.6       0.3        0.32       0.07       0.06       5.         A090200600022 
66.0       0.6        0.65       0.06       0.04       1.         A090200600023 
66.0       0.6        0.46       0.08       0.07       2.         A090200600024 
66.0       0.6        0.75       0.09       0.07       3.         A090200600025 
66.0       0.6        0.75       0.10       0.09       4.         A090200600026 
66.0       0.6        0.57       0.09       0.08       5.         A090200600027 
66.0       0.6        0.38       0.21       0.09       6.         A090200600028 
97.2       0.4        0.88       0.10       0.08       1.         A090200600029 
97.2       0.4        0.78       0.11       0.09       2.         A090200600030 
97.2       0.4        1.44       0.14       0.10       3.         A090200600031 
97.2       0.4        0.87       0.09       0.07       4.         A090200600032 
97.2       0.4        0.97       0.13       0.11       5.         A090200600033 
97.2       0.4        0.66       0.07       0.06       6.         A090200600034 
147.6      0.4        1.18       0.09       0.05       1.         A090200600035 
147.6      0.4        0.94       0.07       0.04       2.         A090200600036 
147.6      0.4        1.31       0.10       0.07       3.         A090200600037 
147.6      0.4        1.10       0.15       0.13       4.         A090200600038 
147.6      0.4        1.22       0.13       0.10       5.         A090200600039 
147.6      0.4        1.31       0.14       0.11       6.         A090200600040 
249.       1.         1.85       0.11       0.04       1.         A090200600041 
249.       1.         1.50       0.09       0.03       2.         A090200600042 
249.       1.         2.03       0.17       0.04       3.         A090200600043 
249.       1.         1.79       0.16       0.05       4.         A090200600044 
249.       1.         1.88       0.13       0.08       5.         A090200600045 
249.       1.         1.78       0.21       0.18       6.         A090200600046 
400.       2.         3.29       0.22       0.09       1.         A090200600047 
400.       2.         2.36       0.17       0.09       2.         A090200600048 
400.       2.         3.37       0.25       0.11       3.         A090200600049 
400.       2.         2.57       0.20       0.10       4.         A090200600050 
400.       2.         2.86       0.18       0.08       5.         A090200600051 
400.       2.         2.18       0.16       0.10       6.         A090200600052 
600.       2.         5.08       0.28       0.07       1.         A090200600053 
600.       2.         4.09       0.22       0.06       2.         A090200600054 
600.       2.         4.60       0.25       0.06       3.         A090200600055 
600.       2.         4.16       0.22       0.06       4.         A090200600056 
600.       2.         4.77       0.26       0.05       5.         A090200600057 
600.       2.         4.01       0.22       0.07       6.         A090200600058 
799.       2.         5.84       0.32       0.08       1.         A090200600059 
799.       2.         4.95       0.26       0.06       2.         A090200600060 
799.       2.         6.43       0.33       0.06       3.         A090200600061 
799.       2.         5.37       0.27       0.05       4.         A090200600062 
799.       2.         6.54       0.33       0.04       5.         A090200600063 
799.       2.         5.67       0.30       0.07       6.         A090200600064 
1199.      3.         8.58       0.42       0.04       1.         A090200600065 
1199.      3.         7.42       0.34       0.02       2.         A090200600066 
1199.      3.         8.08       0.41       0.06       3.         A090200600067 
1199.      3.         6.86       0.32       0.02       4.         A090200600068 
1199.      3.         7.98       0.40       0.03       5.         A090200600069 
1199.      3.         6.81       0.32       0.02       6.         A090200600070 
1598.      4.         7.90       0.51       0.23       1.         A090200600071 
1598.      4.         7.57       0.35       0.02       2.         A090200600072 
1598.      4.         8.42       0.41       0.02       3.         A090200600073 
1598.      4.         7.42       0.35       0.02       4.         A090200600074 
1598.      4.         8.37       0.41       0.02       5.         A090200600075 
1598.      4.         8.65       0.40       0.02       6.         A090200600076 
2605.      8.         8.13       0.39       0.02       1.         A090200600077 
2605.      8.         8.87       0.43       0.01       3.         A090200600078 
2605.      8.         7.82       0.36       0.01       4.         A090200600079 
2605.      8.         8.83       0.45       0.02       5.         A090200600080 
2605.      8.         8.87       0.41       0.02       6.         A090200600081 
ENDDATA             67          0                                 A090200600082 
ENDSUBENT           81          0                                 A090200699999 
SUBENT        A0902007   20111128                             A075A090200700001 
BIB                  2          3                                 A090200700002 
REACTION   (13-AL-27(P,X)4-BE-7,,SIG,,AV)                         A090200700003 
            average for experiment type                           A090200700004 
STATUS     (DEP,A0902006)                                         A090200700005 
ENDBIB               3          0                                 A090200700006 
NOCOMMON             0          0                                 A090200700007 
DATA                 5         12                                 A090200700008 
EN         EN-ERR     DATA       ERR-T      ERR-S                 A090200700009 
MEV        MEV        MB         MB         MB                    A090200700010 
40.8       0.8        0.22       0.05       0.05                  A090200700011 
44.6       0.3        0.34       0.05       0.05                  A090200700012 
66.0       0.6        0.61       0.06       0.05                  A090200700013 
97.2       0.4        0.86       0.11       0.10                  A090200700014 
147.6      0.4        1.11       0.08       0.07                  A090200700015 
249.       1.         1.76       0.12       0.09                  A090200700016 
400.       2.         2.76       0.23       0.19                  A090200700017 
600.       2.         4.45       0.26       0.16                  A090200700018 
799.       2.         5.86       0.38       0.27                  A090200700019 
1199.      3.         7.33       0.42       0.26                  A090200700020 
1598.      4.         8.09       0.43       0.22                  A090200700021 
2605.      8.         8.49       0.45       0.24                  A090200700022 
ENDDATA             14          0                                 A090200700023 
ENDSUBENT           22          0                                 A090200799999 
ENDENTRY             7          0                                 A090299999999 
